{
  "contractName": "MultiSig",
  "abi": [
    {
      "inputs": [],
      "stateMutability": "nonpayable",
      "type": "constructor"
    },
    {
      "anonymous": false,
      "inputs": [
        {
          "indexed": true,
          "internalType": "bytes32",
          "name": "approvedHash",
          "type": "bytes32"
        },
        {
          "indexed": true,
          "internalType": "address",
          "name": "owner",
          "type": "address"
        }
      ],
      "name": "ApproveHash",
      "type": "event"
    },
    {
      "anonymous": false,
      "inputs": [
        {
          "indexed": false,
          "internalType": "bytes32",
          "name": "txHash",
          "type": "bytes32"
        }
      ],
      "name": "ExecutionFailure",
      "type": "event"
    },
    {
      "anonymous": false,
      "inputs": [
        {
          "indexed": false,
          "internalType": "bytes32",
          "name": "txHash",
          "type": "bytes32"
        }
      ],
      "name": "ExecutionSuccess",
      "type": "event"
    },
    {
      "anonymous": false,
      "inputs": [
        {
          "indexed": true,
          "internalType": "address",
          "name": "signed",
          "type": "address"
        }
      ],
      "name": "eventAlreadySigned",
      "type": "event"
    },
    {
      "anonymous": false,
      "inputs": [
        {
          "indexed": false,
          "internalType": "address[]",
          "name": "signers",
          "type": "address[]"
        },
        {
          "indexed": false,
          "internalType": "uint256",
          "name": "threshold",
          "type": "uint256"
        }
      ],
      "name": "setupEvent",
      "type": "event"
    },
    {
      "anonymous": false,
      "inputs": [
        {
          "indexed": false,
          "internalType": "address",
          "name": "signer",
          "type": "address"
        }
      ],
      "name": "signerAddEvent",
      "type": "event"
    },
    {
      "anonymous": false,
      "inputs": [
        {
          "indexed": false,
          "internalType": "address",
          "name": "oldSigner",
          "type": "address"
        },
        {
          "indexed": false,
          "internalType": "address",
          "name": "newSigner",
          "type": "address"
        }
      ],
      "name": "signerChangedEvent",
      "type": "event"
    },
    {
      "anonymous": false,
      "inputs": [
        {
          "indexed": false,
          "internalType": "address",
          "name": "signer",
          "type": "address"
        }
      ],
      "name": "signerRemoveEvent",
      "type": "event"
    },
    {
      "anonymous": false,
      "inputs": [
        {
          "indexed": false,
          "internalType": "uint256",
          "name": "threshold",
          "type": "uint256"
        }
      ],
      "name": "thresholdEvent",
      "type": "event"
    },
    {
      "inputs": [],
      "name": "_nonce",
      "outputs": [
        {
          "internalType": "uint256",
          "name": "",
          "type": "uint256"
        }
      ],
      "stateMutability": "view",
      "type": "function"
    },
    {
      "inputs": [
        {
          "internalType": "address",
          "name": "",
          "type": "address"
        },
        {
          "internalType": "bytes32",
          "name": "",
          "type": "bytes32"
        }
      ],
      "name": "approvedHashes",
      "outputs": [
        {
          "internalType": "uint256",
          "name": "",
          "type": "uint256"
        }
      ],
      "stateMutability": "view",
      "type": "function"
    },
    {
      "inputs": [
        {
          "internalType": "address",
          "name": "to",
          "type": "address"
        },
        {
          "internalType": "uint256",
          "name": "value",
          "type": "uint256"
        },
        {
          "internalType": "bytes",
          "name": "data",
          "type": "bytes"
        }
      ],
      "name": "execTransaction",
      "outputs": [
        {
          "internalType": "bool",
          "name": "success",
          "type": "bool"
        }
      ],
      "stateMutability": "payable",
      "type": "function"
    },
    {
      "inputs": [],
      "name": "getNonce",
      "outputs": [
        {
          "internalType": "uint256",
          "name": "",
          "type": "uint256"
        }
      ],
      "stateMutability": "view",
      "type": "function"
    },
    {
      "inputs": [
        {
          "internalType": "bytes32",
          "name": "dataHash",
          "type": "bytes32"
        }
      ],
      "name": "checkSignatures",
      "outputs": [],
      "stateMutability": "view",
      "type": "function"
    },
    {
      "inputs": [
        {
          "internalType": "bytes32",
          "name": "hash",
          "type": "bytes32"
        }
      ],
      "name": "getSignersOfHash",
      "outputs": [
        {
          "internalType": "address[]",
          "name": "",
          "type": "address[]"
        }
      ],
      "stateMutability": "view",
      "type": "function"
    },
    {
      "inputs": [
        {
          "internalType": "address",
          "name": "to",
          "type": "address"
        },
        {
          "internalType": "uint256",
          "name": "value",
          "type": "uint256"
        },
        {
          "internalType": "bytes",
          "name": "data",
          "type": "bytes"
        }
      ],
      "name": "approveHash",
      "outputs": [],
      "stateMutability": "nonpayable",
      "type": "function"
    },
    {
      "inputs": [
        {
          "internalType": "address",
          "name": "to",
          "type": "address"
        },
        {
          "internalType": "uint256",
          "name": "value",
          "type": "uint256"
        },
        {
          "internalType": "bytes",
          "name": "data",
          "type": "bytes"
        },
        {
          "internalType": "uint256",
          "name": "nonce",
          "type": "uint256"
        }
      ],
      "name": "encodeTransactionData",
      "outputs": [
        {
          "internalType": "bytes",
          "name": "",
          "type": "bytes"
        }
      ],
      "stateMutability": "pure",
      "type": "function"
    },
    {
      "inputs": [
        {
          "internalType": "address",
          "name": "to",
          "type": "address"
        },
        {
          "internalType": "uint256",
          "name": "value",
          "type": "uint256"
        },
        {
          "internalType": "bytes",
          "name": "data",
          "type": "bytes"
        },
        {
          "internalType": "uint256",
          "name": "nonce",
          "type": "uint256"
        }
      ],
      "name": "getTransactionHash",
      "outputs": [
        {
          "internalType": "bytes32",
          "name": "",
          "type": "bytes32"
        }
      ],
      "stateMutability": "pure",
      "type": "function"
    },
    {
      "inputs": [
        {
          "internalType": "address",
          "name": "signer",
          "type": "address"
        }
      ],
      "name": "existSigner",
      "outputs": [
        {
          "internalType": "bool",
          "name": "",
          "type": "bool"
        }
      ],
      "stateMutability": "view",
      "type": "function"
    },
    {
      "inputs": [],
      "name": "getSigners",
      "outputs": [
        {
          "internalType": "address[]",
          "name": "",
          "type": "address[]"
        }
      ],
      "stateMutability": "view",
      "type": "function"
    },
    {
      "inputs": [
        {
          "internalType": "uint256",
          "name": "threshold",
          "type": "uint256"
        }
      ],
      "name": "setThreshold",
      "outputs": [],
      "stateMutability": "nonpayable",
      "type": "function"
    },
    {
      "inputs": [
        {
          "internalType": "address",
          "name": "signer",
          "type": "address"
        },
        {
          "internalType": "uint256",
          "name": "threshold",
          "type": "uint256"
        }
      ],
      "name": "addSigner",
      "outputs": [],
      "stateMutability": "nonpayable",
      "type": "function"
    },
    {
      "inputs": [
        {
          "internalType": "address",
          "name": "signer",
          "type": "address"
        },
        {
          "internalType": "uint256",
          "name": "threshold",
          "type": "uint256"
        }
      ],
      "name": "removeSigner",
      "outputs": [],
      "stateMutability": "nonpayable",
      "type": "function"
    },
    {
      "inputs": [
        {
          "internalType": "address",
          "name": "oldSigner",
          "type": "address"
        },
        {
          "internalType": "address",
          "name": "newSigner",
          "type": "address"
        }
      ],
      "name": "changeSigner",
      "outputs": [],
      "stateMutability": "nonpayable",
      "type": "function"
    }
  ],
  "bytecode": "0x608060405234801561001057600080fd5b50611401806100206000396000f3fe6080604052600436106100e85760003560e01c806394cf795e1161008a578063c6a38df511610059578063c6a38df51461025c578063c7da349d1461027c578063d087d2881461029c578063d12c1e90146102b1576100e8565b806394cf795e146101e7578063960bfe04146101fc578063ab4ed83e1461021c578063b98a34de1461023c576100e8565b80633bad5426116100c65780633bad5426146101655780635d1222aa1461018557806365af1bed146101a75780637d832974146101c7576100e8565b806315e6b022146100ed578063325c71441461010f57806335cabd301461012f575b600080fd5b3480156100f957600080fd5b5061010d610108366004610fb8565b6102de565b005b34801561011b57600080fd5b5061010d61012a3660046110cb565b610498565b34801561013b57600080fd5b5061014f61014a3660046110cb565b6104ef565b60405161015c919061116c565b60405180910390f35b34801561017157600080fd5b5061010d610180366004610fea565b6106eb565b34801561019157600080fd5b5061019a610953565b60405161015c91906111c4565b3480156101b357600080fd5b5061010d6101c2366004610fea565b610959565b3480156101d357600080fd5b5061019a6101e2366004610fea565b610a7a565b3480156101f357600080fd5b5061014f610a97565b34801561020857600080fd5b5061010d6102173660046110cb565b610b8d565b61022f61022a366004611013565b610c31565b60405161015c91906111b9565b34801561024857600080fd5b5061019a61025736600461106b565b610d35565b34801561026857600080fd5b5061010d610277366004611013565b610d56565b34801561028857600080fd5b5061022f610297366004610f97565b610ddd565b3480156102a857600080fd5b5061019a610e56565b3480156102bd57600080fd5b506102d16102cc36600461106b565b610e5c565b60405161015c91906111cd565b3330146103065760405162461bcd60e51b81526004016102fd9061123e565b60405180910390fd5b61030f82610ddd565b61032b5760405162461bcd60e51b81526004016102fd90611299565b61033481610ddd565b156103515760405162461bcd60e51b81526004016102fd906112d5565b6001600160a01b0381166103775760405162461bcd60e51b81526004016102fd9061134d565b6001600160a01b0381163014156103a05760405162461bcd60e51b81526004016102fd906112b7565b60005b60005481101561045a57826001600160a01b0316600082815481106103d857634e487b7160e01b600052603260045260246000fd5b6000918252602090912001546001600160a01b0316141561044857816000828154811061041557634e487b7160e01b600052603260045260246000fd5b9060005260206000200160006101000a8154816001600160a01b0302191690836001600160a01b0316021790555061045a565b806104528161139a565b9150506103a3565b7f7e8e25ddc635cb5bf8351e6459039cf927dca393363ab35edb92f6f16c208538838360405161048b92919061112c565b60405180910390a1505050565b60025460018110156104bc5760405162461bcd60e51b81526004016102fd90611311565b60006104c7836104ef565b905081815110156104ea5760405162461bcd60e51b81526004016102fd906112f3565b505050565b6060600080808054905067ffffffffffffffff81111561051f57634e487b7160e01b600052604160045260246000fd5b604051908082528060200260200182016040528015610548578160200160208202803683370190505b50905060005b60005481101561060c57600080828154811061057a57634e487b7160e01b600052603260045260246000fd5b60009182526020808320909101546001600160a01b0316808352600180835260408085208b8652909352919092205491925014156105f957808385815181106105d357634e487b7160e01b600052603260045260246000fd5b6001600160a01b0390921660209283029190910190910152836105f58161139a565b9450505b50806106048161139a565b91505061054e565b60008367ffffffffffffffff81111561063557634e487b7160e01b600052604160045260246000fd5b60405190808252806020026020018201604052801561065e578160200160208202803683370190505b509050600091505b838210156106e05782828151811061068e57634e487b7160e01b600052603260045260246000fd5b60200260200101518183815181106106b657634e487b7160e01b600052603260045260246000fd5b6001600160a01b0390921660209283029190910190910152816106d88161139a565b925050610666565b93505050505b919050565b33301461070a5760405162461bcd60e51b81526004016102fd9061123e565b61071382610ddd565b61072f5760405162461bcd60e51b81526004016102fd90611299565b600054600190610740908290611383565b101561075e5760405162461bcd60e51b81526004016102fd90611220565b600054819061076f90600190611383565b101561078d5760405162461bcd60e51b81526004016102fd9061127b565b6001600160a01b0382166107b35760405162461bcd60e51b81526004016102fd9061134d565b60005b60005481101561081d57826001600160a01b0316600082815481106107eb57634e487b7160e01b600052603260045260246000fd5b6000918252602090912001546001600160a01b0316141561080b5761081d565b806108158161139a565b9150506107b6565b60005461082c90600190611383565b8110156108d157600061084082600161136b565b8154811061085e57634e487b7160e01b600052603260045260246000fd5b600091825260208220015481546001600160a01b0390911691908390811061089657634e487b7160e01b600052603260045260246000fd5b600091825260209091200180546001600160a01b0319166001600160a01b0392909216919091179055806108c98161139a565b91505061081d565b60008054806108f057634e487b7160e01b600052603160045260246000fd5b600082815260209020810160001990810180546001600160a01b03191690550190556040517f2a26a55a8080e2e746000a8f5cbd1ef67983c5d0bbf17077c34ad78927d020d190610942908590611118565b60405180910390a16104ea82610b8d565b60035481565b3330146109785760405162461bcd60e51b81526004016102fd9061123e565b61098182610ddd565b1561099e5760405162461bcd60e51b81526004016102fd906112d5565b6001600160a01b0382166109c45760405162461bcd60e51b81526004016102fd9061134d565b6001600160a01b0382163014156109ed5760405162461bcd60e51b81526004016102fd906112b7565b600080546001810182559080527f290decd9548b62a8d60345a988386fc84ba6bc95484008f6362f93160ef3e5630180546001600160a01b0319166001600160a01b0384161790556040517fdae259046cd53db960bf96e7d68edf396dbbae145d2f361d945a48d45a3b48a590610a65908490611118565b60405180910390a1610a7681610b8d565b5050565b600160209081526000928352604080842090915290825290205481565b600080546060919067ffffffffffffffff811115610ac557634e487b7160e01b600052604160045260246000fd5b604051908082528060200260200182016040528015610aee578160200160208202803683370190505b50905060005b600054811015610b875760008181548110610b1f57634e487b7160e01b600052603260045260246000fd5b9060005260206000200160009054906101000a90046001600160a01b0316828281518110610b5d57634e487b7160e01b600052603260045260246000fd5b6001600160a01b039092166020928302919091019091015280610b7f8161139a565b915050610af4565b50905090565b333014610bac5760405162461bcd60e51b81526004016102fd9061123e565b600054811115610bce5760405162461bcd60e51b81526004016102fd9061132f565b60016002541015610bf15760405162461bcd60e51b81526004016102fd9061125c565b60028190556040517ffe44fa8929b5cdc79f5f66efa51b2f7b70f55504ab5c87dc86680b68a775dcf690610c269083906111c4565b60405180910390a150565b6000806000610c4587878787600354610e5c565b600380549192506000610c578361139a565b9091555050805160208201209150610c6e82610498565b50610cb0868686868080601f016020809104026020016040519081016040528093929190818152602001838380828437600092019190915250610ed992505050565b91508115610cf4577fdc29884a71d2bb98d3c53dc09718be05c7bfd142b7773a5c5cf2517629290ac081604051610ce791906111c4565b60405180910390a1610d2c565b7fdbe42d02a4e07d7eeff2874efe172540c93b297d206f6d691c9782a257323e3281604051610d2391906111c4565b60405180910390a15b50949350505050565b6000610d448686868686610e5c565b80519060200120905095945050505050565b610d5f33610ddd565b610d7b5760405162461bcd60e51b81526004016102fd90611299565b6000610d8c85858585600354610d35565b3360008181526001602081815260408084208685529091528083209190915551929350909183917ff2a0eb156472d1440255b0d7c1e19cc07115d1051fe605b0dce69acfec884d9c91a35050505050565b6000805b600054811015610e4d576000808281548110610e0d57634e487b7160e01b600052603260045260246000fd5b6000918252602090912001546001600160a01b0390811691508416811415610e3a576001925050506106e6565b5080610e458161139a565b915050610de1565b50600092915050565b60035490565b6060600086868686604051610e72929190611108565b604051908190038120610e8b9392918790602001611146565b60408051601f198184030181529082905280516020918201209250610ebe91601960f81b91600160f81b918591016110e3565b60405160208183030381529060405291505095945050505050565b6000806109c45a610eea9190611383565b90507ffe44fa8929b5cdc79f5f66efa51b2f7b70f55504ab5c87dc86680b68a775dcf681604051610f1b91906111c4565b60405180910390a1600080845160208601878986f195945050505050565b80356001600160a01b03811681146106e657600080fd5b60008083601f840112610f61578182fd5b50813567ffffffffffffffff811115610f78578182fd5b602083019150836020828501011115610f9057600080fd5b9250929050565b600060208284031215610fa8578081fd5b610fb182610f39565b9392505050565b60008060408385031215610fca578081fd5b610fd383610f39565b9150610fe160208401610f39565b90509250929050565b60008060408385031215610ffc578182fd5b61100583610f39565b946020939093013593505050565b60008060008060608587031215611028578182fd5b61103185610f39565b935060208501359250604085013567ffffffffffffffff811115611053578283fd5b61105f87828801610f50565b95989497509550505050565b600080600080600060808688031215611082578081fd5b61108b86610f39565b945060208601359350604086013567ffffffffffffffff8111156110ad578182fd5b6110b988828901610f50565b96999598509660600135949350505050565b6000602082840312156110dc578081fd5b5035919050565b6001600160f81b03199384168152919092166001820152600281019190915260220190565b6000828483379101908152919050565b6001600160a01b0391909116815260200190565b6001600160a01b0392831681529116602082015260400190565b6001600160a01b0394909416845260208401929092526040830152606082015260800190565b6020808252825182820181905260009190848201906040850190845b818110156111ad5783516001600160a01b031683529284019291840191600101611188565b50909695505050505050565b901515815260200190565b90815260200190565b6000602080835283518082850152825b818110156111f9578581018301518582016040015282016111dd565b8181111561120a5783604083870101525b50601f01601f1916929092016040019392505050565b6020808252600490820152634d53303960e01b604082015260600190565b60208082526004908201526309aa660760e31b604082015260600190565b6020808252600590820152644d5330322160d81b604082015260600190565b60208082526004908201526304d5331360e41b604082015260600190565b6020808252600490820152634d53303760e01b604082015260600190565b6020808252600490820152634d53303560e01b604082015260600190565b6020808252600490820152634d53303360e01b604082015260600190565b60208082526004908201526326a9981b60e11b604082015260600190565b60208082526004908201526326a9981960e11b604082015260600190565b6020808252600490820152634d53303160e01b604082015260600190565b6020808252600490820152631354cc0d60e21b604082015260600190565b6000821982111561137e5761137e6113b5565b500190565b600082821015611395576113956113b5565b500390565b60006000198214156113ae576113ae6113b5565b5060010190565b634e487b7160e01b600052601160045260246000fdfea2646970667358221220cb9d476dae549104f9bafe76384b40aa2461ac291775568c641ddd808d56c31064736f6c63430008000033",
  "immutableReferences": {},
  "source": "// SPDX-License-Identifier: MIT\n\npragma solidity ^0.8.0;\n\n\n\ncontract MultiSig {\n\n    event setupEvent(address[] signers, uint256 threshold);\n    event ApproveHash(bytes32 indexed approvedHash, address indexed owner);\n    event ExecutionFailure(bytes32 txHash);\n    event ExecutionSuccess(bytes32 txHash);\n    event signerAddEvent(address signer);\n    event signerRemoveEvent(address signer);\n    event signerChangedEvent(address oldSigner, address newSigner);\n    event thresholdEvent(uint256 threshold);\n    event eventAlreadySigned(address indexed signed);\n\n\n    // Mapping to keep track of all hashes (message or transaction) that have been approved by ANY owners\n    address[] private _signers;\n    mapping(address => mapping(bytes32 => uint256)) public approvedHashes;\n\n    uint256 internal _threshold;\n    uint256 public _nonce;\n\n\n    constructor () {\n\n    }\n\n    function setupMultiSig(address[] memory signers, uint256 threshold) internal {\n        require(threshold <= signers.length, \"MS01\");\n        require(threshold >= 1, \"MS02\");\n\n        for (uint256 i = 0; i < signers.length; i++) {\n            address signer = signers[i];\n            require(!existSigner(signer), \"MS03\");\n            require(signer != address(0), \"MS04\");\n            require(signer != address(this), \"MS05\");\n\n            _signers.push(signer);\n        }\n\n        _threshold = threshold;\n        emit setupEvent(_signers, _threshold);\n    }\n\n\n    /// @dev Allows to execute a Safe transaction confirmed by required number of owners and then pays the account that submitted the transaction.\n    ///      Note: The fees are always transferred, even if the user transaction fails.\n    /// @param to Destination address of Safe transaction.\n    /// @param value Ether value of Safe transaction.\n    /// @param data Data payload of Safe transaction.\n    function execTransaction(\n        address to,\n        uint256 value,\n        bytes calldata data\n    ) public payable virtual returns (bool success) {\n        bytes32 txHash;\n        // Use scope here to limit variable lifetime and prevent `stack too deep` errors\n        {\n            bytes memory txHashData =\n            encodeTransactionData(\n            // Transaction info\n                to,\n                value,\n                data,\n                _nonce\n            );\n            // Increase nonce and execute transaction.\n            _nonce++;\n            txHash = keccak256(txHashData);\n            checkSignatures(txHash);\n        }\n        // Use scope here to limit variable lifetime and prevent `stack too deep` errors\n        {\n            // If the gasPrice is 0 we assume that nearly all available gas can be used (it is always more than safeTxGas)\n            // We only substract 2500 (compared to the 3000 before) to ensure that the amount passed is still higher than safeTxGas\n            success = execute(to, value, data);\n            if (success) emit ExecutionSuccess(txHash);\n            else emit ExecutionFailure(txHash);\n        }\n    }\n\n    function getNonce() public view returns (uint256){\n        return _nonce;\n    }\n\n\n    function execute(\n        address to,\n        uint256 value,\n        bytes memory data\n    ) internal returns (bool success) {\n        uint256 gasToCall = gasleft()-2500;\n        emit thresholdEvent(gasToCall);\n        assembly {\n            success := call(gasToCall, to, value, add(data, 0x20), mload(data), 0, 0)\n        }\n    }\n\n    /**\n     * @dev Checks whether the signature provided is valid for the provided data, hash. Will revert otherwise.\n     * @param dataHash Hash of the data (could be either a message hash or transaction hash)\n     */\n    function checkSignatures(bytes32 dataHash) public view {\n        // Load threshold to avoid multiple storage loads\n        uint256 threshold = _threshold;\n        // Check that a threshold is set\n        require(threshold >= 1, \"MS02\");\n        address[] memory alreadySigned = getSignersOfHash(dataHash);\n\n        require(alreadySigned.length >= threshold, \"MS06\");\n        // + threshold + \" but got \" + alreadySigned.length);\n    }\n\n    function getSignersOfHash(bytes32 hash) public view returns (address[] memory) {\n        uint256 j = 0;\n        address[] memory doneSignersTemp = new address[](_signers.length);\n\n        uint256 i;\n        for (i = 0; i < _signers.length; i++) {\n            address currentSigner = _signers[i];\n            if (approvedHashes[currentSigner][hash] == 1) {\n                doneSignersTemp[j] = currentSigner;\n                j++;\n            }\n        }\n        address[] memory doneSigners = new address[](j);\n        for (i=0; i<j; i++){\n            doneSigners[i] = doneSignersTemp[i];\n        }\n        return doneSigners;\n    }\n\n    /**\n     * @dev Marks a hash as approved. This can be used to validate a hash that is used by a signature.\n    /// @param to Destination address.\n    /// @param value Ether value.\n    /// @param data Data payload.\n     */\n    function approveHash(address to,\n        uint256 value,\n        bytes calldata data) public {\n        require(existSigner(msg.sender), \"MS07\");\n        bytes32 hashToApprove = getTransactionHash(to, value, data, _nonce);\n\n        approvedHashes[msg.sender][hashToApprove] = 1;\n        emit ApproveHash(hashToApprove, msg.sender);\n    }\n\n\n\n    /// @dev Returns the bytes that are hashed to be signed by owners.\n    /// @param to Destination address.\n    /// @param value Ether value.\n    /// @param data Data payload.\n    /// @param nonce Transaction nonce.\n    function encodeTransactionData(\n        address to,\n        uint256 value,\n        bytes calldata data,\n        uint256 nonce\n    ) public pure returns (bytes memory) {\n        bytes32 safeTxHash =\n        keccak256(\n            abi.encode(\n                to,\n                value,\n                keccak256(data),\n                nonce\n            )\n        );\n        return abi.encodePacked(bytes1(0x19), bytes1(0x01), safeTxHash);\n    }\n\n    /// @dev Returns hash to be signed by owners.\n    /// @param to Destination address.\n    /// @param value Ether value.\n    /// @param data Data payload.\n    function getTransactionHash(\n        address to,\n        uint256 value,\n        bytes calldata data,\n        uint256 nonce\n    ) public pure returns (bytes32) {\n        return keccak256(encodeTransactionData(to, value, data, nonce));\n    }\n\n    function existSigner(address signer) public view returns (bool) {\n        for (uint256 i = 0; i < _signers.length; i++) {\n            address signerI = _signers[i];\n            if (signerI == signer) {\n                return true;\n            }\n        }\n        return false;\n    }\n\n    function getSigners() public view returns (address[] memory ) {\n        address[] memory ret = new address[](_signers.length) ;\n        for (uint256 i = 0; i < _signers.length; i++) {\n            ret[i] = _signers[i];\n        }\n        return ret;\n    }\n\n    function setThreshold(uint256 threshold) public {\n        require(msg.sender == address(this), \"MS08\");\n        require(threshold <= _signers.length, \"MS01\");\n        require(_threshold >= 1, \"MS02!\");\n        _threshold = threshold;\n        emit thresholdEvent(threshold);\n    }\n\n    function addSigner(address signer, uint256 threshold) public {\n        require(msg.sender == address(this), \"MS08\");\n        require(!existSigner(signer), \"MS03\");\n        require(signer != address(0), \"MS04\");\n        require(signer != address(this), \"MS05\");\n        _signers.push(signer);\n        emit signerAddEvent(signer);\n        setThreshold(threshold);\n    }\n\n    function removeSigner(address signer, uint256 threshold) public {\n        require(msg.sender == address(this), \"MS08\");\n        require(existSigner(signer), \"MS07\");\n        require(_signers.length - 1 >= 1, \"MS09\");\n        require(_signers.length - 1 >= threshold, \"MS10\");\n        require(signer != address(0), \"MS04\");\n\n\n        uint256 i = 0;\n        for (; i < _signers.length; i++) {\n            if (_signers[i] == signer) {\n                break;\n            }\n        }\n        for (; i < _signers.length-1; i++) {\n            _signers[i] = _signers[i+1];\n        }\n        _signers.pop();\n        emit signerRemoveEvent(signer);\n        setThreshold(threshold);\n    }\n\n    function changeSigner(address oldSigner, address newSigner) public {\n        require(msg.sender == address(this), \"MS08\");\n        require(existSigner(oldSigner), \"MS07\");\n        require(!existSigner(newSigner), \"MS03\");\n        require(newSigner != address(0), \"MS04\");\n        require(newSigner != address(this), \"MS05\");\n        uint256 i = 0;\n        for (; i < _signers.length; i++) {\n            if (_signers[i] == oldSigner) {\n                _signers[i] = newSigner;\n                break;\n            }\n        }\n\n        emit signerChangedEvent(oldSigner, newSigner);\n    }\n\n}",
  "sourcePath": "E:\\projects\\amas\\vesting\\vesting-contract\\contracts\\MultiSig.sol",
  "compiler": {
    "name": "solc",
    "version": "0.8.0+commit.c7dfd78e.Emscripten.clang"
  },
  "schemaVersion": "3.4.1",
  "updatedAt": "2021-08-03T01:23:56.097Z",
  "networkType": "ethereum",
  "devdoc": {
    "kind": "dev",
    "methods": {
      "approveHash(address,uint256,bytes)": {
        "details": "Marks a hash as approved. This can be used to validate a hash that is used by a signature.",
        "params": {
          "data": "Data payload.",
          "to": "Destination address.",
          "value": "Ether value."
        }
      },
      "checkSignatures(bytes32)": {
        "details": "Checks whether the signature provided is valid for the provided data, hash. Will revert otherwise.",
        "params": {
          "dataHash": "Hash of the data (could be either a message hash or transaction hash)"
        }
      },
      "encodeTransactionData(address,uint256,bytes,uint256)": {
        "details": "Returns the bytes that are hashed to be signed by owners.",
        "params": {
          "data": "Data payload.",
          "nonce": "Transaction nonce.",
          "to": "Destination address.",
          "value": "Ether value."
        }
      },
      "execTransaction(address,uint256,bytes)": {
        "details": "Allows to execute a Safe transaction confirmed by required number of owners and then pays the account that submitted the transaction.      Note: The fees are always transferred, even if the user transaction fails.",
        "params": {
          "data": "Data payload of Safe transaction.",
          "to": "Destination address of Safe transaction.",
          "value": "Ether value of Safe transaction."
        }
      },
      "getTransactionHash(address,uint256,bytes,uint256)": {
        "details": "Returns hash to be signed by owners.",
        "params": {
          "data": "Data payload.",
          "to": "Destination address.",
          "value": "Ether value."
        }
      }
    },
    "version": 1
  },
  "userdoc": {
    "kind": "user",
    "methods": {},
    "version": 1
  }
}