{
  "contractName": "Ownable",
  "abi": [
    {
      "inputs": [],
      "stateMutability": "nonpayable",
      "type": "constructor"
    },
    {
      "anonymous": false,
      "inputs": [
        {
          "indexed": true,
          "internalType": "address",
          "name": "previousOwner",
          "type": "address"
        },
        {
          "indexed": true,
          "internalType": "address",
          "name": "newOwner",
          "type": "address"
        }
      ],
      "name": "OwnershipTransferred",
      "type": "event"
    },
    {
      "inputs": [],
      "name": "owner",
      "outputs": [
        {
          "internalType": "address",
          "name": "",
          "type": "address"
        }
      ],
      "stateMutability": "view",
      "type": "function"
    },
    {
      "inputs": [],
      "name": "pendingOwner",
      "outputs": [
        {
          "internalType": "address",
          "name": "",
          "type": "address"
        }
      ],
      "stateMutability": "view",
      "type": "function"
    },
    {
      "inputs": [
        {
          "internalType": "address",
          "name": "newOwner",
          "type": "address"
        }
      ],
      "name": "transferOwnership",
      "outputs": [],
      "stateMutability": "nonpayable",
      "type": "function"
    },
    {
      "inputs": [],
      "name": "claimOwnership",
      "outputs": [],
      "stateMutability": "nonpayable",
      "type": "function"
    }
  ],
  "bytecode": "0x608060405234801561001057600080fd5b50600080546001600160a01b0319163317905561025a806100326000396000f3fe608060405234801561001057600080fd5b506004361061004c5760003560e01c80634e71e0c8146100515780638da5cb5b1461005b578063e30c397814610079578063f2fde38b14610081575b600080fd5b610059610094565b005b61006361012b565b60405161007091906101c3565b60405180910390f35b61006361013a565b61005961008f366004610195565b610149565b6001546001600160a01b031633146100c75760405162461bcd60e51b81526004016100be906101d7565b60405180910390fd5b600154600080546040516001600160a01b0393841693909116917f8be0079c531659141344cd1fd0a4f28419497f9722a3daafe3b4186f6b6457e091a360018054600080546001600160a01b03199081166001600160a01b03841617909155169055565b6000546001600160a01b031690565b6001546001600160a01b031690565b6000546001600160a01b031633146101735760405162461bcd60e51b81526004016100be90610201565b600180546001600160a01b0319166001600160a01b0392909216919091179055565b6000602082840312156101a6578081fd5b81356001600160a01b03811681146101bc578182fd5b9392505050565b6001600160a01b0391909116815260200190565b60208082526010908201526f37b7363ca832b73234b733a7bbb732b960811b604082015260600190565b60208082526009908201526837b7363ca7bbb732b960b91b60408201526060019056fea2646970667358221220d03990179419e7b7efc1092ae756e7bdb18e07779e773876ccfce134460009e964736f6c63430008000033",
  "immutableReferences": {},
  "source": "// SPDX-License-Identifier: MIT\n\npragma solidity ^0.8.0;\n\n\n\nimport \"./MultiSig.sol\";\nimport \"@openzeppelin/contracts/token/ERC20/IERC20.sol\";\nimport \"@openzeppelin/contracts/token/ERC20/utils/SafeERC20.sol\";\nimport \"./BokkyPooBahsDateTimeLibrary.sol\";\n\n/**\n * @title Ownable\n * @dev The Ownable contract has an owner address, and provides basic authorization control\n * functions, this simplifies the implementation of \"user permissions\".\n */\ncontract Ownable {\n    address private _owner;\n    address private _pendingOwner;\n\n    event OwnershipTransferred(\n        address indexed previousOwner,\n        address indexed newOwner\n    );\n\n    /**\n     * @dev The Ownable constructor sets the original `owner` of the contract to the sender\n     * account.\n     */\n    constructor() {\n        _owner = msg.sender;\n    }\n\n    /**\n     * @dev Throws if called by any account other than the owner.\n     */\n    modifier onlyOwner() {\n        require(msg.sender == _owner, \"onlyOwner\");\n        _;\n    }\n\n    /**\n    * @dev Returns the address of the current owner.\n    */\n    function owner() public view returns (address) {\n        return _owner;\n    }\n\n    /**\n    * @dev Returns the address of the pending owner.\n    */\n    function pendingOwner() public view returns (address) {\n        return _pendingOwner;\n    }\n\n    /**\n     * @dev Allows the current owner to set the pendingOwner address.\n     * @param newOwner The address to transfer ownership to.\n     */\n    function transferOwnership(address newOwner) public onlyOwner {\n        _pendingOwner = newOwner;\n    }\n\n    /**\n     * @dev Allows the pendingOwner address to finalize the transfer.\n     */\n    function claimOwnership() public {\n        require(msg.sender == _pendingOwner, \"onlyPendingOwner\");\n        emit OwnershipTransferred(_owner, _pendingOwner);\n        _owner = _pendingOwner;\n        _pendingOwner = address(0);\n    }\n}\n\ncontract TokenVestingFactory is Ownable, MultiSig {\n\n\n    /**\n     * @dev Throws if called by any account other than the owner.\n     */\n    modifier onlyMultiSig() {\n        require(msg.sender == address(this), \"Only Multisig contract can run this method\");\n        _;\n    }\n\n    event TokenVestingCreated(address tokenVesting);\n\n    // enum VestingType { SeedInvestors, StrategicInvestors, Advisors, Team, All }\n\n    struct BeneficiaryIndex {\n        address tokenVesting;\n        uint256 vestingType;\n        bool isExist;\n        // uint256 index;\n    }\n\n    mapping(address => BeneficiaryIndex) private _beneficiaryIndex;\n    address[] private _beneficiaries;\n    address private _tokenAddr;\n    uint256 private _decimal;\n\n    constructor (address tokenAddr, uint256 decimal, address[] memory owners, uint256 threshold) {\n        require(tokenAddr != address(0), \"TokenVestingFactory: token address must not be zero\");\n\n        _tokenAddr = tokenAddr;\n        _decimal = decimal;\n        setupMultiSig(owners, threshold);\n    }\n\n    function create(address beneficiary, uint256 start, uint256 cliff, uint256 initialShare, uint256 periodicShare, bool revocable, uint256 vestingType) onlyOwner public {\n        require(!_beneficiaryIndex[beneficiary].isExist, \"TokenVestingFactory: benficiery exists\");\n        require(vestingType != 0, \"TokenVestingFactory: vestingType 0 is reserved\");\n\n        address tokenVesting = address(new TokenVesting(_tokenAddr, beneficiary, start, cliff, initialShare, periodicShare, _decimal, revocable));\n\n        _beneficiaries.push(beneficiary);\n        _beneficiaryIndex[beneficiary].tokenVesting = tokenVesting;\n        _beneficiaryIndex[beneficiary].vestingType = vestingType;\n        _beneficiaryIndex[beneficiary].isExist = true;\n\n        emit TokenVestingCreated(tokenVesting);\n    }\n\n    function initialize(address tokenVesting, address from, uint256 amount) public onlyOwner {\n        TokenVesting(tokenVesting).initialize(from, amount);\n    }\n\n    function update(address tokenVesting, uint256 start, uint256 cliff, uint256 initialShare, uint256 periodicShare, bool revocable) public onlyOwner {\n        TokenVesting(tokenVesting).update(start, cliff, initialShare, periodicShare, revocable);\n    }\n\n\n    function getBeneficiaries(uint256 vestingType) public view returns (address[] memory) {\n        uint256 j = 0;\n        address[] memory beneficiaries = new address[](_beneficiaries.length);\n\n        for (uint256 i = 0; i < _beneficiaries.length; i++) {\n            address beneficiary = _beneficiaries[i];\n            if (_beneficiaryIndex[beneficiary].vestingType == vestingType || vestingType == 0) {\n                beneficiaries[j] = beneficiary;\n                j++;\n            }\n        }\n        return beneficiaries;\n    }\n\n    function getVestingType(address beneficiary) public view returns (uint256) {\n        require(_beneficiaryIndex[beneficiary].isExist, \"TokenVestingFactory: benficiery does not exist\");\n        return _beneficiaryIndex[beneficiary].vestingType;\n    }\n\n    function getTokenVesting(address beneficiary) public view returns (address) {\n        require(_beneficiaryIndex[beneficiary].isExist, \"TokenVestingFactory: benficiery does not exist\");\n        return _beneficiaryIndex[beneficiary].tokenVesting;\n    }\n\n    function getTokenAddress() public view returns (address) {\n        return _tokenAddr;\n    }\n\n    function getDecimal() public view returns (uint256) {\n        return _decimal;\n    }\n\n    function revoke(address tokenVesting) public onlyMultiSig{\n        TokenVesting(tokenVesting).revoke(owner());\n    }\n\n}\n\n/**\n * @title TokenVesting\n * @dev A token holder contract that can release its token balance gradually like a\n * typical vesting scheme, with a cliff. Optionally revocable by the\n * owner.\n */\ncontract TokenVesting is Ownable {    \n    using SafeERC20 for IERC20;\n\n    event TokenVestingUpdated(uint256 start, uint256 cliff, uint256 initialShare, uint256 periodicShare, bool revocable);\n    event TokensReleased(address beneficiary, uint256 amount);\n    event TokenVestingRevoked(address refundAddress, uint256 amount);\n    event TokenVestingInitialized(address from, uint256 amount);\n\n    enum Status {NotInitialized, Initialized, Revoked}\n\n    // beneficiary of tokens after they are released\n    address private _beneficiary;\n\n    uint256 private _cliff;\n    uint256 private _start;\n    address private _tokenAddr;\n    uint256 private _initialShare;\n    uint256 private _periodicShare;\n    uint256 private _decimal;\n    uint256 private _released;\n\n    bool private _revocable;\n    Status private _status;\n\n    /**\n     * @dev Creates a vesting contract that vests its balance of any ERC20 token to the\n     * beneficiary, gradually in a linear fashion. By then all\n     * of the balance will have vested.\n     * @param beneficiary address of the beneficiary to whom vested tokens are transferred\n     * @param cliff duration in seconds of the cliff in which tokens will begin to vest\n     * @param start the time (as Unix time) at which point vesting starts\n     * @param revocable whether the vesting is revocable or not\n     */\n    constructor(\n        address tokenAddr,\n        address beneficiary,\n        uint256 start,\n        uint256 cliff,\n        uint256 initialShare,\n        uint256 periodicShare,\n        uint256 decimal,\n        bool revocable\n    )\n\n    {\n        require(beneficiary != address(0), \"TokenVesting: beneficiary address must not be zero\");\n\n        _tokenAddr = tokenAddr;\n        _beneficiary = beneficiary;\n        _revocable = revocable;\n        _cliff = start + cliff;\n        _start = start;\n        _initialShare = initialShare;\n        _periodicShare = periodicShare;\n        _decimal = decimal;\n        _status = Status.NotInitialized;\n\n    }\n\n    /**\n    * @return TokenVesting details.\n    */\n    function getDetails() public view returns (address, uint256, uint256, uint256, uint256, uint256, uint256, uint256, uint256, bool, uint256) {\n        uint256 _total = IERC20(_tokenAddr).balanceOf(address(this)) + _released;\n        uint256 _vested = _vestedAmount();\n        uint256 _releasable = _vestedAmount() - _released;\n        return (_beneficiary, _initialShare, _periodicShare, _start, _cliff, _total, _vested, _released, _releasable, _revocable, uint256(_status));\n    }\n\n\n    /**\n     * @return the initial share of the beneficiary.\n     */\n    function getInitialShare() public view returns (uint256) {\n        return _initialShare;\n    }\n\n\n    /**\n     * @return the periodic share of the beneficiary.\n     */\n    function getPeriodicShare() public view returns (uint256) {\n        return _periodicShare;\n    }\n\n\n    /**\n     * @return the beneficiary of the tokens.\n     */\n    function getBeneficiary() public view returns (address) {\n        return _beneficiary;\n    }\n\n    /**\n     * @return the start time of the token vesting.\n     */\n    function getStart() public view returns (uint256) {\n        return _start;\n    }\n\n    /**\n     * @return the cliff time of the token vesting.\n     */\n    function getCliff() public view returns (uint256) {\n        return _cliff;\n    }\n\n    /**\n     * @return the total amount of the token.\n     */\n    function getTotal() public view returns (uint256) {\n        return IERC20(_tokenAddr).balanceOf(address(this)) + _released;\n    }\n\n    /**\n     * @return the amount of the vested token.\n     */\n    function getVested() public view returns (uint256) {\n        return _vestedAmount();\n    }\n\n    /**\n     * @return the amount of the token released.\n     */\n    function getReleased() public view returns (uint256) {\n        return _released;\n    }\n\n    /**\n     * @return the amount that has already vested but hasn't been released yet.\n     */\n    function getReleasable() public view returns (uint256) {\n        return _vestedAmount() - _released;\n    }\n\n    /**\n     * @return true if the vesting is revocable.\n     */\n    function isRevocable() public view returns (bool) {\n        return _revocable;\n    }\n\n    /**\n     * @return true if the token is revoked.\n     */\n    function isRevoked() public view returns (bool) {\n        if (_status == Status.Revoked) {\n            return true;\n        } else {\n            return false;\n        }\n    }\n\n    /**\n    * @return status.\n    */\n    function getStatus() public view returns (uint256) {\n        return uint256(_status);\n    }\n\n    /**\n     * @notice change status to initialized.\n     */\n    function initialize(address from, uint256 amount) public onlyOwner {\n\n        require(_status == Status.NotInitialized, \"TokenVesting: status must be NotInitialized\");\n\n        _status = Status.Initialized;\n\n        emit TokenVestingInitialized(address(from), amount);\n\n        IERC20(_tokenAddr).safeTransferFrom(from, address(this), amount);\n\n    }\n\n    /**\n    * @notice update token vesting contract.\n    */\n    function update(\n        uint256 start,\n        uint256 cliff,\n        uint256 initialShare,\n        uint256 periodicShare,\n        bool revocable\n\n    ) public onlyOwner {\n\n        require(_status == Status.NotInitialized, \"TokenVesting: status must be NotInitialized\");\n\n        _start = start;\n        _cliff = start + cliff;\n        _initialShare = initialShare;\n        _periodicShare = periodicShare;\n        _revocable = revocable;\n\n        emit TokenVestingUpdated(_start, _cliff, _initialShare, _periodicShare, _revocable);\n\n    }\n\n    /**\n     * @notice Transfers vested tokens to beneficiary.\n     */\n    function release() public {\n        require(_status != Status.NotInitialized, \"TokenVesting: status is NotInitialized\");\n        uint256 unreleased = getReleasable();\n\n        require(unreleased > 0, \"TokenVesting: releasable amount is zero\");\n\n        _released = _released + unreleased;\n\n        emit TokensReleased(address(_beneficiary), unreleased);\n\n        IERC20(_tokenAddr).safeTransfer(_beneficiary, unreleased);\n    }\n\n    /**\n     * @notice Allows the owner to revoke the vesting. Tokens already vested\n     * remain in the contract, the rest are returned to the owner.\n     */\n    function revoke(address refundAddress) public onlyOwner {\n        require(_revocable, \"TokenVesting: contract is not revocable\");\n        require(_status != Status.Revoked, \"TokenVesting: status is Revoked\");\n\n        uint256 balance = IERC20(_tokenAddr).balanceOf(address(this));\n\n        uint256 unreleased = getReleasable();\n        uint256 refund = balance - unreleased;\n\n        _status = Status.Revoked;\n\n        emit TokenVestingRevoked(address(refundAddress), refund);\n        \n        IERC20(_tokenAddr).safeTransfer(refundAddress, refund);\n\n    }\n\n\n    /**\n     * @dev Calculates the amount that has already vested.\n     */\n    function _vestedAmount() private view returns (uint256) {\n        uint256 currentBalance = IERC20(_tokenAddr).balanceOf(address(this));\n        uint256 totalBalance = currentBalance + _released;\n        uint256 initialRelease = (totalBalance * _initialShare) / ((10 ** _decimal) * 100) ;\n\n        if (block.timestamp < _start)\n            return 0;\n\n        if (_status == Status.Revoked)\n            return totalBalance;\n\n        if (block.timestamp < _cliff)\n            return initialRelease;\n\n        uint256 monthlyRelease = (totalBalance * _periodicShare) / ((10 ** _decimal) * 100);\n        uint256 _months = BokkyPooBahsDateTimeLibrary.diffMonths(_cliff, block.timestamp);\n\n        if (initialRelease + (monthlyRelease * (_months + 1)) >= totalBalance) {\n            return totalBalance;\n        } else {\n            return initialRelease + (monthlyRelease * (_months + 1));\n        }\n    }\n}",
  "sourcePath": "E:/projects/amas/vesting/vesting-contract/contracts/TokenVesting.sol",
  "compiler": {
    "name": "solc",
    "version": "0.8.0+commit.c7dfd78e.Emscripten.clang"
  },
  "schemaVersion": "3.4.1",
  "updatedAt": "2021-08-03T01:23:51.784Z",
  "devdoc": {
    "details": "The Ownable contract has an owner address, and provides basic authorization control functions, this simplifies the implementation of \"user permissions\".",
    "kind": "dev",
    "methods": {
      "claimOwnership()": {
        "details": "Allows the pendingOwner address to finalize the transfer."
      },
      "constructor": {
        "details": "The Ownable constructor sets the original `owner` of the contract to the sender account."
      },
      "owner()": {
        "details": "Returns the address of the current owner."
      },
      "pendingOwner()": {
        "details": "Returns the address of the pending owner."
      },
      "transferOwnership(address)": {
        "details": "Allows the current owner to set the pendingOwner address.",
        "params": {
          "newOwner": "The address to transfer ownership to."
        }
      }
    },
    "title": "Ownable",
    "version": 1
  },
  "userdoc": {
    "kind": "user",
    "methods": {},
    "version": 1
  }
}