{
  "contractName": "Ownable",
  "abi": [
    {
      "inputs": [],
      "stateMutability": "nonpayable",
      "type": "constructor"
    },
    {
      "anonymous": false,
      "inputs": [
        {
          "indexed": true,
          "internalType": "address",
          "name": "previousOwner",
          "type": "address"
        },
        {
          "indexed": true,
          "internalType": "address",
          "name": "newOwner",
          "type": "address"
        }
      ],
      "name": "OwnershipTransferred",
      "type": "event"
    },
    {
      "inputs": [],
      "name": "owner",
      "outputs": [
        {
          "internalType": "address",
          "name": "",
          "type": "address"
        }
      ],
      "stateMutability": "view",
      "type": "function"
    },
    {
      "inputs": [],
      "name": "pendingOwner",
      "outputs": [
        {
          "internalType": "address",
          "name": "",
          "type": "address"
        }
      ],
      "stateMutability": "view",
      "type": "function"
    },
    {
      "inputs": [
        {
          "internalType": "address",
          "name": "newOwner",
          "type": "address"
        }
      ],
      "name": "transferOwnership",
      "outputs": [],
      "stateMutability": "nonpayable",
      "type": "function"
    },
    {
      "inputs": [],
      "name": "claimOwnership",
      "outputs": [],
      "stateMutability": "nonpayable",
      "type": "function"
    }
  ],
  "bytecode": "0x608060405234801561001057600080fd5b50336000806101000a81548173ffffffffffffffffffffffffffffffffffffffff021916908373ffffffffffffffffffffffffffffffffffffffff16021790555061057f806100606000396000f3fe608060405234801561001057600080fd5b5060043610610069576000357c0100000000000000000000000000000000000000000000000000000000900480634e71e0c81461006e5780638da5cb5b14610078578063e30c397814610096578063f2fde38b146100b4575b600080fd5b6100766100d0565b005b6100806102a2565b60405161008d9190610494565b60405180910390f35b61009e6102cb565b6040516100ab9190610494565b60405180910390f35b6100ce60048036038101906100c991906103dc565b6102f5565b005b600160009054906101000a900473ffffffffffffffffffffffffffffffffffffffff1673ffffffffffffffffffffffffffffffffffffffff163373ffffffffffffffffffffffffffffffffffffffff1614610160576040517f08c379a0000000000000000000000000000000000000000000000000000000008152600401610157906104af565b60405180910390fd5b600160009054906101000a900473ffffffffffffffffffffffffffffffffffffffff1673ffffffffffffffffffffffffffffffffffffffff1660008054906101000a900473ffffffffffffffffffffffffffffffffffffffff1673ffffffffffffffffffffffffffffffffffffffff167f8be0079c531659141344cd1fd0a4f28419497f9722a3daafe3b4186f6b6457e060405160405180910390a3600160009054906101000a900473ffffffffffffffffffffffffffffffffffffffff166000806101000a81548173ffffffffffffffffffffffffffffffffffffffff021916908373ffffffffffffffffffffffffffffffffffffffff1602179055506000600160006101000a81548173ffffffffffffffffffffffffffffffffffffffff021916908373ffffffffffffffffffffffffffffffffffffffff160217905550565b60008060009054906101000a900473ffffffffffffffffffffffffffffffffffffffff16905090565b6000600160009054906101000a900473ffffffffffffffffffffffffffffffffffffffff16905090565b60008054906101000a900473ffffffffffffffffffffffffffffffffffffffff1673ffffffffffffffffffffffffffffffffffffffff163373ffffffffffffffffffffffffffffffffffffffff1614610383576040517f08c379a000000000000000000000000000000000000000000000000000000000815260040161037a906104cf565b60405180910390fd5b80600160006101000a81548173ffffffffffffffffffffffffffffffffffffffff021916908373ffffffffffffffffffffffffffffffffffffffff16021790555050565b6000813590506103d681610532565b92915050565b6000602082840312156103ee57600080fd5b60006103fc848285016103c7565b91505092915050565b61040e81610500565b82525050565b60006104216010836104ef565b91507f6f6e6c7950656e64696e674f776e6572000000000000000000000000000000006000830152602082019050919050565b60006104616009836104ef565b91507f6f6e6c794f776e657200000000000000000000000000000000000000000000006000830152602082019050919050565b60006020820190506104a96000830184610405565b92915050565b600060208201905081810360008301526104c881610414565b9050919050565b600060208201905081810360008301526104e881610454565b9050919050565b600082825260208201905092915050565b600061050b82610512565b9050919050565b600073ffffffffffffffffffffffffffffffffffffffff82169050919050565b61053b81610500565b811461054657600080fd5b5056fea26469706673582212204782deeafc2ed3ceb602ccfe95ed23b6be3f3d3e2f05058fe5efbe03b50b19ae64736f6c63430008000033",
  "immutableReferences": {},
  "source": "// SPDX-License-Identifier: MIT\n\npragma solidity ^0.8.0;\n\nimport \"@openzeppelin/contracts/token/ERC20/utils/SafeERC20.sol\";\nimport \"@openzeppelin/contracts/token/ERC20/IERC20.sol\";\nimport \"@openzeppelin/contracts/utils/math/SafeMath.sol\";\nimport \"./BokkyPooBahsDateTimeLibrary.sol\";\n\n\n/**\n * @title Ownable\n * @dev The Ownable contract has an owner address, and provides basic authorization control\n * functions, this simplifies the implementation of \"user permissions\".\n */\ncontract Ownable {\n    address private _owner;\n    address private _pendingOwner;\n\n    event OwnershipTransferred(\n        address indexed previousOwner,\n        address indexed newOwner\n    );\n\n    /**\n     * @dev The Ownable constructor sets the original `owner` of the contract to the sender\n     * account.\n     */\n    constructor() {\n        _owner = msg.sender;\n    }\n\n    /**\n     * @dev Throws if called by any account other than the owner.\n     */\n    modifier onlyOwner() {\n        require(msg.sender == _owner, \"onlyOwner\");\n        _;\n    }\n    \n    /**\n    * @dev Returns the address of the current owner.\n    */\n    function owner() public view returns (address) {\n        return _owner;\n    }\n    \n    /**\n    * @dev Returns the address of the pending owner.\n    */\n    function pendingOwner() public view returns (address) {\n        return _pendingOwner;\n    }\n\n    /**\n     * @dev Allows the current owner to set the pendingOwner address.\n     * @param newOwner The address to transfer ownership to.\n     */\n    function transferOwnership(address newOwner) public onlyOwner {\n        _pendingOwner = newOwner;\n    }\n\n    /**\n     * @dev Allows the pendingOwner address to finalize the transfer.\n     */\n    function claimOwnership() public {\n        require(msg.sender == _pendingOwner, \"onlyPendingOwner\");\n        emit OwnershipTransferred(_owner, _pendingOwner);\n        _owner = _pendingOwner;\n        _pendingOwner = address(0);\n    }\n}\n\ncontract TokenVestingFactory is Ownable {\n\n    event TokenVestingCreated(address tokenVesting);\n\n    // enum VestingType { SeedInvestors, StrategicInvestors, Advisors, Team, All }\n\n    struct BeneficiaryIndex {\n        address tokenVesting;\n        uint256 vestingType;\n        bool isExist;\n        // uint256 index;\n    }\n    mapping(address => BeneficiaryIndex) private _beneficiaryIndex;\n    address[] private _beneficiaries;\n    address private _tokenAddr;\n    uint256 private _decimal;\n    \n    constructor (address tokenAddr, uint256 decimal) {\n      require(tokenAddr != address(0), \"TokenVestingFactory: token address must not be zero\");\n\n      _tokenAddr = tokenAddr;\n      _decimal = decimal;\n    }    \n    \n    function create(address beneficiary, uint256 start, uint256 cliff, uint256 initialShare, uint256 periodicShare, bool revocable, uint256 vestingType) onlyOwner public {\n        require(!_beneficiaryIndex[beneficiary].isExist, \"TokenVestingFactory: benficiery exists\");\n        require(vestingType != 0, \"TokenVestingFactory: vestingType 0 is reserved\");\n        \n        address tokenVesting = address(new TokenVesting(_tokenAddr, beneficiary, start, cliff, initialShare, periodicShare, _decimal, revocable));\n\n        _beneficiaries.push(beneficiary);\n        _beneficiaryIndex[beneficiary].tokenVesting = tokenVesting;\n        _beneficiaryIndex[beneficiary].vestingType = vestingType;\n        _beneficiaryIndex[beneficiary].isExist = true;\n        \n        emit TokenVestingCreated(tokenVesting);\n    }\n    \n    function initialize(address tokenVesting, address from, uint256 amount) public onlyOwner {\n        TokenVesting(tokenVesting).initialize(from, amount);\n    }\n  \n    function update(address tokenVesting, uint256 start, uint256 cliff, uint256 initialShare, uint256 periodicShare, bool revocable) public onlyOwner {\n        TokenVesting(tokenVesting).update(start, cliff, initialShare, periodicShare, revocable);\n    }\n    \n    function revoke(address tokenVesting) public onlyOwner {\n        TokenVesting(tokenVesting).revoke(owner());\n    }\n\n    function getBeneficiaries(uint256 vestingType) public view returns(address[] memory) {\n        uint256 j = 0;\n        address[] memory beneficiaries = new address[](_beneficiaries.length);\n        \n        for (uint256 i = 0; i < _beneficiaries.length; i++) {\n            address beneficiary = _beneficiaries[i];\n            if ( _beneficiaryIndex[beneficiary].vestingType == vestingType || vestingType == 0 ) {\n                beneficiaries[j] = beneficiary;\n                j++;\n            }\n        }\n        return beneficiaries;\n    }\n    \n    function getVestingType(address beneficiary) public view returns(uint256) {\n        require(_beneficiaryIndex[beneficiary].isExist, \"TokenVestingFactory: benficiery does not exist\");\n        return _beneficiaryIndex[beneficiary].vestingType;\n    }\n\n    function getTokenVesting(address beneficiary) public view returns(address) {\n        require(_beneficiaryIndex[beneficiary].isExist, \"TokenVestingFactory: benficiery does not exist\");\n        return _beneficiaryIndex[beneficiary].tokenVesting;\n    }\n    \n    function getTokenAddress() public view returns(address) {\n        return _tokenAddr;\n    }\n\n    function getDecimal() public view returns(uint256) {\n      return _decimal;\n    }\n    \n}\n\n/**\n * @title TokenVesting\n * @dev A token holder contract that can release its token balance gradually like a\n * typical vesting scheme, with a cliff. Optionally revocable by the\n * owner.\n */\ncontract TokenVesting is Ownable {\n  using SafeMath for uint256;\n  using SafeERC20 for IERC20;\n\n  event TokensReleased(address beneficiary, uint256 amount);\n  event TokenVestingRevoked(address refundAddress, uint256 amount);\n  event TokenVestingInitialized(address from, uint256 amount);\n\n  enum Status { NotInitialized, Initialized, Revoked }\n\n  // beneficiary of tokens after they are released\n  address private _beneficiary;\n\n  uint256 private _cliff;\n  uint256 private _start;\n  address private _tokenAddr;\n  uint256 private _initialShare;\n  uint256 private _periodicShare;\n  uint256 private _decimal;\n  uint256 private _released;\n\n  bool private _revocable;\n  Status private _status;\n\n  /**\n   * @dev Creates a vesting contract that vests its balance of any ERC20 token to the\n   * beneficiary, gradually in a linear fashion. By then all\n   * of the balance will have vested.\n   * @param beneficiary address of the beneficiary to whom vested tokens are transferred\n   * @param cliff duration in seconds of the cliff in which tokens will begin to vest\n   * @param start the time (as Unix time) at which point vesting starts\n   * @param revocable whether the vesting is revocable or not\n   */\n  constructor(\n    address tokenAddr,\n    address beneficiary,\n    uint256 start,\n    uint256 cliff,\n    uint256 initialShare,\n    uint256 periodicShare,\n    uint256 decimal,\n    bool revocable\n    )\n    \n  {\n    require(beneficiary != address(0), \"TokenVesting: beneficiary address must not be zero\");\n    \n    _tokenAddr = tokenAddr;\n    _beneficiary = beneficiary;\n    _revocable = revocable;\n    _cliff = start.add(cliff);\n    _start = start;\n    _initialShare = initialShare;\n    _periodicShare = periodicShare;\n    _decimal = decimal;\n    _status = Status.NotInitialized;\n    \n  }\n  \n   /**\n   * @return TokenVesting details.\n   */\n  function getDetails() public view returns(address, uint256, uint256, uint256, uint256, uint256, uint256, uint256, uint256, bool, uint256) {\n    uint256 _total = IERC20(_tokenAddr).balanceOf(address(this)).add(_released);\n    uint256 _vested = _vestedAmount();\n    uint256 _releasable = _vestedAmount().sub(_released);\n    return (_beneficiary, _initialShare, _periodicShare, _start, _cliff, _total, _vested, _released, _releasable, _revocable, uint256(_status));\n  }\n\n  \n  /**\n   * @return the initial share of the beneficiary.\n   */\n  function getInitialShare() public view returns(uint256) {\n    return _initialShare;\n  }\n  \n  \n  /**\n   * @return the periodic share of the beneficiary.\n   */\n  function getPeriodicShare() public view returns(uint256) {\n    return _periodicShare;\n  }\n  \n  \n  /**\n   * @return the beneficiary of the tokens.\n   */\n  function getBeneficiary() public view returns(address) {\n    return _beneficiary;\n  }\n\n  /**\n   * @return the start time of the token vesting.\n   */\n  function getStart() public view returns(uint256) {\n    return _start;\n  }\n\n  /**\n   * @return the cliff time of the token vesting.\n   */\n  function getCliff() public view returns(uint256) {\n    return _cliff;\n  }\n\n  /**\n   * @return the total amount of the token.\n   */\n  function getTotal() public view returns(uint256) {\n    return IERC20(_tokenAddr).balanceOf(address(this)).add(_released);\n  }\n\n  /**\n   * @return the amount of the vested token.\n   */\n  function getVested() public view returns(uint256) {\n    return _vestedAmount();\n  }\n\n  /**\n   * @return the amount of the token released.\n   */\n  function getReleased() public view returns(uint256) {\n    return _released;\n  }\n\n  /**\n   * @return the amount that has already vested but hasn't been released yet.\n   */\n  function getReleasable() public view returns(uint256) {\n    return _vestedAmount().sub(_released);\n  }\n\n  /**\n   * @return true if the vesting is revocable.\n   */\n  function isRevocable() public view returns(bool) {\n    return _revocable;\n  }\n  \n  /**\n   * @return true if the token is revoked.\n   */\n  function isRevoked() public view returns(bool) {\n    if (_status == Status.Revoked) {\n      return true;\n    } else {\n      return false;\n    }\n  }\n\n   /**\n   * @return status.\n   */\n  function getStatus() public view returns(uint256) {\n    return uint256(_status);\n  }\n\n  /**\n   * @notice change status to initialized.\n   */\n  function initialize(address from, uint256 amount) public onlyOwner {\n\n    require(_status == Status.NotInitialized, \"TokenVesting: status must be NotInitialized\");\n\n      _status = Status.Initialized;\n      IERC20(_tokenAddr).safeTransferFrom(from, address(this), amount);\n      emit TokenVestingInitialized(address(from), amount);\n    \n  }\n\n   /**\n   * @notice update token vesting contract.\n   */\n  function update(\n    uint256 start,\n    uint256 cliff,\n    uint256 initialShare,\n    uint256 periodicShare,\n    bool revocable\n\n  ) public onlyOwner {\n\n    require(_status == Status.NotInitialized, \"TokenVesting: status must be NotInitialized\");\n    \n    _start = start;\n    _cliff = start.add(cliff);\n    _initialShare = initialShare;\n    _periodicShare = periodicShare;\n    _revocable = revocable;\n\n  }\n\n  /**\n   * @notice Transfers vested tokens to beneficiary.\n   */\n  function release() public {\n    require(_status != Status.NotInitialized, \"TokenVesting: status is NotInitialized\");\n    uint256 unreleased = getReleasable();\n\n    require(unreleased > 0, \"TokenVesting: releasable amount is zero\");\n\n    _released = _released.add(unreleased);\n\n    IERC20(_tokenAddr).safeTransfer(_beneficiary, unreleased);\n\n    emit TokensReleased(address(_beneficiary), unreleased);\n  }\n\n  /**\n   * @notice Allows the owner to revoke the vesting. Tokens already vested\n   * remain in the contract, the rest are returned to the owner.\n   */\n  function revoke(address refundAddress) public onlyOwner {\n    require(_revocable, \"TokenVesting: contract is not revocable\");\n    require(_status != Status.Revoked, \"TokenVesting: status is Revoked\");\n\n    uint256 balance = IERC20(_tokenAddr).balanceOf(address(this));\n\n    uint256 unreleased = getReleasable();\n    uint256 refund = balance.sub(unreleased);\n\n    _status = Status.Revoked;\n\n    IERC20(_tokenAddr).safeTransfer(refundAddress, refund);\n\n    emit TokenVestingRevoked(address(refundAddress), refund);\n  }\n\n\n  /**\n   * @dev Calculates the amount that has already vested.\n   */\n  function _vestedAmount() private view returns (uint256) {\n    uint256 currentBalance = IERC20(_tokenAddr).balanceOf(address(this));\n    uint256 totalBalance = currentBalance.add(_released);\n    uint256 initialRelease = totalBalance.mul(_initialShare).div(10**_decimal).div(100);\n\n    if (block.timestamp < _start)\n      return 0;\n\t\n\tif (_status == Status.Revoked)\n\t\treturn totalBalance;\n\t\t\n    if (block.timestamp < _cliff)\n      return initialRelease;\n\n\tuint256 monthlyRelease = totalBalance.mul(_periodicShare).div(10**_decimal).div(100);\n\tuint256 _months = BokkyPooBahsDateTimeLibrary.diffMonths(_cliff, block.timestamp);\n\t\n\tif (initialRelease.add(monthlyRelease.mul(_months + 1)) >= totalBalance) {\n\t\treturn totalBalance;\n\t} else {\n\t\treturn initialRelease.add(monthlyRelease.mul(_months + 1));\n\t}\n  }\n}",
  "sourcePath": "E:/projects/amas/vesting/vesting-contract/contracts/TokenVesting.sol",
  "compiler": {
    "name": "solc",
    "version": "0.8.0+commit.c7dfd78e.Emscripten.clang"
  },
  "schemaVersion": "3.4.1",
  "updatedAt": "2021-06-08T17:45:02.454Z",
  "devdoc": {
    "details": "The Ownable contract has an owner address, and provides basic authorization control functions, this simplifies the implementation of \"user permissions\".",
    "kind": "dev",
    "methods": {
      "claimOwnership()": {
        "details": "Allows the pendingOwner address to finalize the transfer."
      },
      "constructor": {
        "details": "The Ownable constructor sets the original `owner` of the contract to the sender account."
      },
      "owner()": {
        "details": "Returns the address of the current owner."
      },
      "pendingOwner()": {
        "details": "Returns the address of the pending owner."
      },
      "transferOwnership(address)": {
        "details": "Allows the current owner to set the pendingOwner address.",
        "params": {
          "newOwner": "The address to transfer ownership to."
        }
      }
    },
    "title": "Ownable",
    "version": 1
  },
  "userdoc": {
    "kind": "user",
    "methods": {},
    "version": 1
  }
}