{
  "contractName": "TokenVestingFactory",
  "abi": [
    {
      "inputs": [
        {
          "internalType": "address",
          "name": "tokenAddr",
          "type": "address"
        },
        {
          "internalType": "uint256",
          "name": "decimal",
          "type": "uint256"
        }
      ],
      "stateMutability": "nonpayable",
      "type": "constructor"
    },
    {
      "anonymous": false,
      "inputs": [
        {
          "indexed": false,
          "internalType": "address",
          "name": "tokenVesting",
          "type": "address"
        }
      ],
      "name": "CreateTokenVesting",
      "type": "event"
    },
    {
      "anonymous": false,
      "inputs": [
        {
          "indexed": true,
          "internalType": "address",
          "name": "previousOwner",
          "type": "address"
        },
        {
          "indexed": true,
          "internalType": "address",
          "name": "newOwner",
          "type": "address"
        }
      ],
      "name": "OwnershipTransferred",
      "type": "event"
    },
    {
      "inputs": [],
      "name": "claimOwnership",
      "outputs": [],
      "stateMutability": "nonpayable",
      "type": "function"
    },
    {
      "inputs": [],
      "name": "owner",
      "outputs": [
        {
          "internalType": "address",
          "name": "",
          "type": "address"
        }
      ],
      "stateMutability": "view",
      "type": "function",
      "constant": true
    },
    {
      "inputs": [],
      "name": "pendingOwner",
      "outputs": [
        {
          "internalType": "address",
          "name": "",
          "type": "address"
        }
      ],
      "stateMutability": "view",
      "type": "function",
      "constant": true
    },
    {
      "inputs": [
        {
          "internalType": "address",
          "name": "newOwner",
          "type": "address"
        }
      ],
      "name": "transferOwnership",
      "outputs": [],
      "stateMutability": "nonpayable",
      "type": "function"
    },
    {
      "inputs": [
        {
          "internalType": "address",
          "name": "beneficiary",
          "type": "address"
        },
        {
          "internalType": "uint256",
          "name": "start",
          "type": "uint256"
        },
        {
          "internalType": "uint256",
          "name": "cliff",
          "type": "uint256"
        },
        {
          "internalType": "uint256",
          "name": "initialShare",
          "type": "uint256"
        },
        {
          "internalType": "uint256",
          "name": "periodicShare",
          "type": "uint256"
        },
        {
          "internalType": "bool",
          "name": "revocable",
          "type": "bool"
        },
        {
          "internalType": "uint256",
          "name": "vestingType",
          "type": "uint256"
        }
      ],
      "name": "create",
      "outputs": [],
      "stateMutability": "nonpayable",
      "type": "function"
    },
    {
      "inputs": [
        {
          "internalType": "address",
          "name": "tokenVesting",
          "type": "address"
        },
        {
          "internalType": "address",
          "name": "from",
          "type": "address"
        },
        {
          "internalType": "uint256",
          "name": "amount",
          "type": "uint256"
        }
      ],
      "name": "initialize",
      "outputs": [],
      "stateMutability": "nonpayable",
      "type": "function"
    },
    {
      "inputs": [
        {
          "internalType": "address",
          "name": "tokenVesting",
          "type": "address"
        },
        {
          "internalType": "uint256",
          "name": "start",
          "type": "uint256"
        },
        {
          "internalType": "uint256",
          "name": "cliff",
          "type": "uint256"
        },
        {
          "internalType": "uint256",
          "name": "initialShare",
          "type": "uint256"
        },
        {
          "internalType": "uint256",
          "name": "periodicShare",
          "type": "uint256"
        },
        {
          "internalType": "bool",
          "name": "revocable",
          "type": "bool"
        }
      ],
      "name": "update",
      "outputs": [],
      "stateMutability": "nonpayable",
      "type": "function"
    },
    {
      "inputs": [
        {
          "internalType": "address",
          "name": "tokenVesting",
          "type": "address"
        }
      ],
      "name": "revoke",
      "outputs": [],
      "stateMutability": "nonpayable",
      "type": "function"
    },
    {
      "inputs": [
        {
          "internalType": "uint256",
          "name": "vestingType",
          "type": "uint256"
        }
      ],
      "name": "getBeneficiaries",
      "outputs": [
        {
          "internalType": "address[]",
          "name": "",
          "type": "address[]"
        }
      ],
      "stateMutability": "view",
      "type": "function",
      "constant": true
    },
    {
      "inputs": [
        {
          "internalType": "address",
          "name": "beneficiary",
          "type": "address"
        }
      ],
      "name": "getVestingType",
      "outputs": [
        {
          "internalType": "uint256",
          "name": "",
          "type": "uint256"
        }
      ],
      "stateMutability": "view",
      "type": "function",
      "constant": true
    },
    {
      "inputs": [
        {
          "internalType": "address",
          "name": "beneficiary",
          "type": "address"
        }
      ],
      "name": "getTokenVesting",
      "outputs": [
        {
          "internalType": "address",
          "name": "",
          "type": "address"
        }
      ],
      "stateMutability": "view",
      "type": "function",
      "constant": true
    },
    {
      "inputs": [],
      "name": "getTokenAddress",
      "outputs": [
        {
          "internalType": "address",
          "name": "",
          "type": "address"
        }
      ],
      "stateMutability": "view",
      "type": "function",
      "constant": true
    },
    {
      "inputs": [],
      "name": "getDecimal",
      "outputs": [
        {
          "internalType": "uint256",
          "name": "",
          "type": "uint256"
        }
      ],
      "stateMutability": "view",
      "type": "function",
      "constant": true
    }
  ],
  "bytecode": "0x60806040523480156200001157600080fd5b5060405162004c1138038062004c118339818101604052810190620000379190620000f5565b336000806101000a81548173ffffffffffffffffffffffffffffffffffffffff021916908373ffffffffffffffffffffffffffffffffffffffff16021790555081600460006101000a81548173ffffffffffffffffffffffffffffffffffffffff021916908373ffffffffffffffffffffffffffffffffffffffff160217905550806005819055505050620001a8565b600081519050620000d88162000174565b92915050565b600081519050620000ef816200018e565b92915050565b600080604083850312156200010957600080fd5b60006200011985828601620000c7565b92505060206200012c85828601620000de565b9150509250929050565b600062000143826200014a565b9050919050565b600073ffffffffffffffffffffffffffffffffffffffff82169050919050565b6000819050919050565b6200017f8162000136565b81146200018b57600080fd5b50565b62000199816200016a565b8114620001a557600080fd5b50565b614a5980620001b86000396000f3fe60806040523480156200001157600080fd5b5060043610620000ff576000357c0100000000000000000000000000000000000000000000000000000000900480638da5cb5b11620000b6578063d4f77ab1116200008c578063d4f77ab11462000242578063e30c39781462000262578063ee85f5fe1462000284578063f2fde38b14620002ba57620000ff565b80638da5cb5b14620001ca578063926b4edf14620001ec578063b7b2c0d7146200020c57620000ff565b806310fe9ae814620001045780631794bb3c146200012657806334ce10c414620001465780634e71e0c8146200016857806374a8f1031462000174578063783804d91462000194575b600080fd5b6200010e620002da565b6040516200011d9190620015aa565b60405180910390f35b6200014460048036038101906200013e919062001161565b62000304565b005b6200015062000427565b6040516200015f919062001750565b60405180910390f35b6200017262000431565b005b6200019260048036038101906200018c919062001135565b62000606565b005b620001b26004803603810190620001ac9190620012fa565b62000718565b604051620001c1919062001682565b60405180910390f35b620001d46200090f565b604051620001e39190620015aa565b60405180910390f35b6200020a60048036038101906200020491906200124d565b62000938565b005b6200022a600480360381019062000224919062001135565b62000cdb565b604051620002399190620015aa565b60405180910390f35b6200026060048036038101906200025a9190620011b7565b62000dd9565b005b6200026c62000f05565b6040516200027b9190620015aa565b60405180910390f35b620002a260048036038101906200029c919062001135565b62000f2f565b604051620002b1919062001750565b60405180910390f35b620002d86004803603810190620002d2919062001135565b6200100d565b005b6000600460009054906101000a900473ffffffffffffffffffffffffffffffffffffffff16905090565b60008054906101000a900473ffffffffffffffffffffffffffffffffffffffff1673ffffffffffffffffffffffffffffffffffffffff163373ffffffffffffffffffffffffffffffffffffffff161462000395576040517f08c379a00000000000000000000000000000000000000000000000000000000081526004016200038c906200172e565b60405180910390fd5b8273ffffffffffffffffffffffffffffffffffffffff1663cd6dc68783836040518363ffffffff167c0100000000000000000000000000000000000000000000000000000000028152600401620003ee92919062001655565b600060405180830381600087803b1580156200040957600080fd5b505af11580156200041e573d6000803e3d6000fd5b50505050505050565b6000600554905090565b600160009054906101000a900473ffffffffffffffffffffffffffffffffffffffff1673ffffffffffffffffffffffffffffffffffffffff163373ffffffffffffffffffffffffffffffffffffffff1614620004c4576040517f08c379a0000000000000000000000000000000000000000000000000000000008152600401620004bb90620016ea565b60405180910390fd5b600160009054906101000a900473ffffffffffffffffffffffffffffffffffffffff1673ffffffffffffffffffffffffffffffffffffffff1660008054906101000a900473ffffffffffffffffffffffffffffffffffffffff1673ffffffffffffffffffffffffffffffffffffffff167f8be0079c531659141344cd1fd0a4f28419497f9722a3daafe3b4186f6b6457e060405160405180910390a3600160009054906101000a900473ffffffffffffffffffffffffffffffffffffffff166000806101000a81548173ffffffffffffffffffffffffffffffffffffffff021916908373ffffffffffffffffffffffffffffffffffffffff1602179055506000600160006101000a81548173ffffffffffffffffffffffffffffffffffffffff021916908373ffffffffffffffffffffffffffffffffffffffff160217905550565b60008054906101000a900473ffffffffffffffffffffffffffffffffffffffff1673ffffffffffffffffffffffffffffffffffffffff163373ffffffffffffffffffffffffffffffffffffffff161462000697576040517f08c379a00000000000000000000000000000000000000000000000000000000081526004016200068e906200172e565b60405180910390fd5b8073ffffffffffffffffffffffffffffffffffffffff1663b6549f756040518163ffffffff167c0100000000000000000000000000000000000000000000000000000000028152600401600060405180830381600087803b158015620006fc57600080fd5b505af115801562000711573d6000803e3d6000fd5b5050505050565b606060008060038054905067ffffffffffffffff81111562000763577f4e487b7100000000000000000000000000000000000000000000000000000000600052604160045260246000fd5b604051908082528060200260200182016040528015620007925781602001602082028036833780820191505090505b50905060005b6003805490508110156200090457600060038281548110620007e3577f4e487b7100000000000000000000000000000000000000000000000000000000600052603260045260246000fd5b9060005260206000200160009054906101000a900473ffffffffffffffffffffffffffffffffffffffff16905085600260008373ffffffffffffffffffffffffffffffffffffffff1673ffffffffffffffffffffffffffffffffffffffff168152602001908152602001600020600101541480620008615750600086145b15620008ed5780838581518110620008a2577f4e487b7100000000000000000000000000000000000000000000000000000000600052603260045260246000fd5b602002602001019073ffffffffffffffffffffffffffffffffffffffff16908173ffffffffffffffffffffffffffffffffffffffff16815250508380620008e9906200185e565b9450505b508080620008fb906200185e565b91505062000798565b508092505050919050565b60008060009054906101000a900473ffffffffffffffffffffffffffffffffffffffff16905090565b60008054906101000a900473ffffffffffffffffffffffffffffffffffffffff1673ffffffffffffffffffffffffffffffffffffffff163373ffffffffffffffffffffffffffffffffffffffff1614620009c9576040517f08c379a0000000000000000000000000000000000000000000000000000000008152600401620009c0906200172e565b60405180910390fd5b600260008873ffffffffffffffffffffffffffffffffffffffff1673ffffffffffffffffffffffffffffffffffffffff16815260200190815260200160002060020160009054906101000a900460ff161562000a5c576040517f08c379a000000000000000000000000000000000000000000000000000000000815260040162000a53906200170c565b60405180910390fd5b600081141562000aa3576040517f08c379a000000000000000000000000000000000000000000000000000000000815260040162000a9a90620016c8565b60405180910390fd5b6000600460009054906101000a900473ffffffffffffffffffffffffffffffffffffffff1688888888886005548960405162000adf90620010e2565b62000af2989796959493929190620015c7565b604051809103906000f08015801562000b0f573d6000803e3d6000fd5b5090506003889080600181540180825580915050600190039060005260206000200160009091909190916101000a81548173ffffffffffffffffffffffffffffffffffffffff021916908373ffffffffffffffffffffffffffffffffffffffff16021790555080600260008a73ffffffffffffffffffffffffffffffffffffffff1673ffffffffffffffffffffffffffffffffffffffff16815260200190815260200160002060000160006101000a81548173ffffffffffffffffffffffffffffffffffffffff021916908373ffffffffffffffffffffffffffffffffffffffff16021790555081600260008a73ffffffffffffffffffffffffffffffffffffffff1673ffffffffffffffffffffffffffffffffffffffff168152602001908152602001600020600101819055506001600260008a73ffffffffffffffffffffffffffffffffffffffff1673ffffffffffffffffffffffffffffffffffffffff16815260200190815260200160002060020160006101000a81548160ff0219169083151502179055507fd4ff12e1f726c732d10a3133e5dbe063732c7c96da5718cc766a873f2f79fb078160405162000cc99190620015aa565b60405180910390a15050505050505050565b6000600260008373ffffffffffffffffffffffffffffffffffffffff1673ffffffffffffffffffffffffffffffffffffffff16815260200190815260200160002060020160009054906101000a900460ff1662000d6f576040517f08c379a000000000000000000000000000000000000000000000000000000000815260040162000d6690620016a6565b60405180910390fd5b600260008373ffffffffffffffffffffffffffffffffffffffff1673ffffffffffffffffffffffffffffffffffffffff16815260200190815260200160002060000160009054906101000a900473ffffffffffffffffffffffffffffffffffffffff169050919050565b60008054906101000a900473ffffffffffffffffffffffffffffffffffffffff1673ffffffffffffffffffffffffffffffffffffffff163373ffffffffffffffffffffffffffffffffffffffff161462000e6a576040517f08c379a000000000000000000000000000000000000000000000000000000000815260040162000e61906200172e565b60405180910390fd5b8573ffffffffffffffffffffffffffffffffffffffff1663ab68098086868686866040518663ffffffff167c010000000000000000000000000000000000000000000000000000000002815260040162000ec99594939291906200176d565b600060405180830381600087803b15801562000ee457600080fd5b505af115801562000ef9573d6000803e3d6000fd5b50505050505050505050565b6000600160009054906101000a900473ffffffffffffffffffffffffffffffffffffffff16905090565b6000600260008373ffffffffffffffffffffffffffffffffffffffff1673ffffffffffffffffffffffffffffffffffffffff16815260200190815260200160002060020160009054906101000a900460ff1662000fc3576040517f08c379a000000000000000000000000000000000000000000000000000000000815260040162000fba90620016a6565b60405180910390fd5b600260008373ffffffffffffffffffffffffffffffffffffffff1673ffffffffffffffffffffffffffffffffffffffff168152602001908152602001600020600101549050919050565b60008054906101000a900473ffffffffffffffffffffffffffffffffffffffff1673ffffffffffffffffffffffffffffffffffffffff163373ffffffffffffffffffffffffffffffffffffffff16146200109e576040517f08c379a000000000000000000000000000000000000000000000000000000000815260040162001095906200172e565b60405180910390fd5b80600160006101000a81548173ffffffffffffffffffffffffffffffffffffffff021916908373ffffffffffffffffffffffffffffffffffffffff16021790555050565b6130fa806200192a83390190565b6000813590506200110181620018db565b92915050565b6000813590506200111881620018f5565b92915050565b6000813590506200112f816200190f565b92915050565b6000602082840312156200114857600080fd5b60006200115884828501620010f0565b91505092915050565b6000806000606084860312156200117757600080fd5b60006200118786828701620010f0565b93505060206200119a86828701620010f0565b9250506040620011ad868287016200111e565b9150509250925092565b60008060008060008060c08789031215620011d157600080fd5b6000620011e189828a01620010f0565b9650506020620011f489828a016200111e565b95505060406200120789828a016200111e565b94505060606200121a89828a016200111e565b93505060806200122d89828a016200111e565b92505060a06200124089828a0162001107565b9150509295509295509295565b600080600080600080600060e0888a0312156200126957600080fd5b6000620012798a828b01620010f0565b97505060206200128c8a828b016200111e565b96505060406200129f8a828b016200111e565b9550506060620012b28a828b016200111e565b9450506080620012c58a828b016200111e565b93505060a0620012d88a828b0162001107565b92505060c0620012eb8a828b016200111e565b91505092959891949750929550565b6000602082840312156200130d57600080fd5b60006200131d848285016200111e565b91505092915050565b600062001334838362001340565b60208301905092915050565b6200134b8162001814565b82525050565b6200135c8162001814565b82525050565b60006200136f82620017da565b6200137b8185620017f2565b93506200138883620017ca565b8060005b83811015620013bf578151620013a3888262001326565b9750620013b083620017e5565b9250506001810190506200138c565b5085935050505092915050565b620013d78162001828565b82525050565b6000620013ec602e8362001803565b91507f546f6b656e56657374696e67466163746f72793a2062656e666963696572792060008301527f646f6573206e6f742065786973740000000000000000000000000000000000006020830152604082019050919050565b600062001454602e8362001803565b91507f546f6b656e56657374696e67466163746f72793a2076657374696e675479706560008301527f20302069732072657365727665640000000000000000000000000000000000006020830152604082019050919050565b6000620014bc60108362001803565b91507f6f6e6c7950656e64696e674f776e6572000000000000000000000000000000006000830152602082019050919050565b6000620014fe60268362001803565b91507f546f6b656e56657374696e67466163746f72793a2062656e666963696572792060008301527f65786973747300000000000000000000000000000000000000000000000000006020830152604082019050919050565b60006200156660098362001803565b91507f6f6e6c794f776e657200000000000000000000000000000000000000000000006000830152602082019050919050565b620015a48162001854565b82525050565b6000602082019050620015c1600083018462001351565b92915050565b600061010082019050620015df600083018b62001351565b620015ee602083018a62001351565b620015fd604083018962001599565b6200160c606083018862001599565b6200161b608083018762001599565b6200162a60a083018662001599565b6200163960c083018562001599565b6200164860e0830184620013cc565b9998505050505050505050565b60006040820190506200166c600083018562001351565b6200167b602083018462001599565b9392505050565b600060208201905081810360008301526200169e818462001362565b905092915050565b60006020820190508181036000830152620016c181620013dd565b9050919050565b60006020820190508181036000830152620016e38162001445565b9050919050565b600060208201905081810360008301526200170581620014ad565b9050919050565b600060208201905081810360008301526200172781620014ef565b9050919050565b60006020820190508181036000830152620017498162001557565b9050919050565b600060208201905062001767600083018462001599565b92915050565b600060a08201905062001784600083018862001599565b62001793602083018762001599565b620017a2604083018662001599565b620017b1606083018562001599565b620017c06080830184620013cc565b9695505050505050565b6000819050602082019050919050565b600081519050919050565b6000602082019050919050565b600082825260208201905092915050565b600082825260208201905092915050565b6000620018218262001834565b9050919050565b60008115159050919050565b600073ffffffffffffffffffffffffffffffffffffffff82169050919050565b6000819050919050565b60006200186b8262001854565b91507fffffffffffffffffffffffffffffffffffffffffffffffffffffffffffffffff821415620018a157620018a0620018ac565b5b600182019050919050565b7f4e487b7100000000000000000000000000000000000000000000000000000000600052601160045260246000fd5b620018e68162001814565b8114620018f257600080fd5b50565b620019008162001828565b81146200190c57600080fd5b50565b6200191a8162001854565b81146200192657600080fd5b5056fe60806040523480156200001157600080fd5b50604051620030fa380380620030fa833981810160405281019062000037919062000288565b336000806101000a81548173ffffffffffffffffffffffffffffffffffffffff021916908373ffffffffffffffffffffffffffffffffffffffff160217905550600073ffffffffffffffffffffffffffffffffffffffff168773ffffffffffffffffffffffffffffffffffffffff161415620000ea576040517f08c379a0000000000000000000000000000000000000000000000000000000008152600401620000e190620003b3565b60405180910390fd5b87600560006101000a81548173ffffffffffffffffffffffffffffffffffffffff021916908373ffffffffffffffffffffffffffffffffffffffff16021790555086600260006101000a81548173ffffffffffffffffffffffffffffffffffffffff021916908373ffffffffffffffffffffffffffffffffffffffff16021790555080600a60006101000a81548160ff021916908315150217905550620001a985876200022b6401000000000262001393179091906401000000009004565b600381905550856004819055508360068190555082600781905550816008819055506000600a60016101000a81548160ff0219169083600281111562000218577f4e487b7100000000000000000000000000000000000000000000000000000000600052602160045260246000fd5b021790555050505050505050506200050a565b600081836200023b9190620003e6565b905092915050565b6000815190506200025481620004bc565b92915050565b6000815190506200026b81620004d6565b92915050565b6000815190506200028281620004f0565b92915050565b600080600080600080600080610100898b031215620002a657600080fd5b6000620002b68b828c0162000243565b9850506020620002c98b828c0162000243565b9750506040620002dc8b828c0162000271565b9650506060620002ef8b828c0162000271565b9550506080620003028b828c0162000271565b94505060a0620003158b828c0162000271565b93505060c0620003288b828c0162000271565b92505060e06200033b8b828c016200025a565b9150509295985092959890939650565b60006200035a603283620003d5565b91507f546f6b656e56657374696e673a2062656e65666963696172792061646472657360008301527f73206d757374206e6f74206265207a65726f00000000000000000000000000006020830152604082019050919050565b60006020820190508181036000830152620003ce816200034b565b9050919050565b600082825260208201905092915050565b6000620003f38262000483565b9150620004008362000483565b9250827fffffffffffffffffffffffffffffffffffffffffffffffffffffffffffffffff038211156200043857620004376200048d565b5b828201905092915050565b6000620004508262000463565b9050919050565b60008115159050919050565b600073ffffffffffffffffffffffffffffffffffffffff82169050919050565b6000819050919050565b7f4e487b7100000000000000000000000000000000000000000000000000000000600052601160045260246000fd5b620004c78162000443565b8114620004d357600080fd5b50565b620004e18162000457565b8114620004ed57600080fd5b50565b620004fb8162000483565b81146200050757600080fd5b50565b612be0806200051a6000396000f3fe608060405234801561001057600080fd5b5060043610610154576000357c0100000000000000000000000000000000000000000000000000000000900480637a140b8b116100d5578063c5292c6711610099578063c5292c67146102dd578063cd6dc687146102fb578063e30c397814610317578063f2fde38b14610335578063f47a6e8414610351578063fbbf93a01461036f57610154565b80637a140b8b1461027157806386d1a69f1461028f5780638da5cb5b14610299578063ab680980146102b7578063b6549f75146102d357610154565b80634e71e0c81161011c5780634e71e0c8146101ef578063565a2e2c146101f95780635ffd1bad1461021757806363260e3614610235578063775a25e31461025357610154565b80630bfdc519146101595780630d60e5531461017757806321617565146101955780632bc9ed02146101b35780634e69d560146101d1575b600080fd5b610161610396565b60405161016e91906124e8565b60405180910390f35b61017f6103a0565b60405161018c91906124e8565b60405180910390f35b61019d6103af565b6040516101aa91906124e8565b60405180910390f35b6101bb6103d2565b6040516101c8919061236b565b60405180910390f35b6101d961046c565b6040516101e691906124e8565b60405180910390f35b6101f76104bb565b005b61020161068d565b60405161020e9190612254565b60405180910390f35b61021f6106b7565b60405161022c919061236b565b60405180910390f35b61023d6106ce565b60405161024a91906124e8565b60405180910390f35b61025b6106d8565b60405161026891906124e8565b60405180910390f35b6102796107ba565b60405161028691906124e8565b60405180910390f35b6102976107c4565b005b6102a161099c565b6040516102ae9190612254565b60405180910390f35b6102d160048036038101906102cc9190611dcb565b6109c5565b005b6102db610b64565b005b6102e5610ed4565b6040516102f291906124e8565b60405180910390f35b61031560048036038101906103109190611d3d565b610ede565b005b61031f61110b565b60405161032c9190612254565b60405180910390f35b61034f600480360381019061034a9190611d14565b611135565b005b610359611207565b60405161036691906124e8565b60405180910390f35b610377611211565b60405161038d9a999897969594939291906122cf565b60405180910390f35b6000600654905090565b60006103aa6113a9565b905090565b60006103cd6009546103bf6113a9565b61166c90919063ffffffff16565b905090565b600060028081111561040d577f4e487b7100000000000000000000000000000000000000000000000000000000600052602160045260246000fd5b600a60019054906101000a900460ff166002811115610455577f4e487b7100000000000000000000000000000000000000000000000000000000600052602160045260246000fd5b14156104645760019050610469565b600090505b90565b6000600a60019054906101000a900460ff1660028111156104b6577f4e487b7100000000000000000000000000000000000000000000000000000000600052602160045260246000fd5b905090565b600160009054906101000a900473ffffffffffffffffffffffffffffffffffffffff1673ffffffffffffffffffffffffffffffffffffffff163373ffffffffffffffffffffffffffffffffffffffff161461054b576040517f08c379a000000000000000000000000000000000000000000000000000000000815260040161054290612428565b60405180910390fd5b600160009054906101000a900473ffffffffffffffffffffffffffffffffffffffff1673ffffffffffffffffffffffffffffffffffffffff1660008054906101000a900473ffffffffffffffffffffffffffffffffffffffff1673ffffffffffffffffffffffffffffffffffffffff167f8be0079c531659141344cd1fd0a4f28419497f9722a3daafe3b4186f6b6457e060405160405180910390a3600160009054906101000a900473ffffffffffffffffffffffffffffffffffffffff166000806101000a81548173ffffffffffffffffffffffffffffffffffffffff021916908373ffffffffffffffffffffffffffffffffffffffff1602179055506000600160006101000a81548173ffffffffffffffffffffffffffffffffffffffff021916908373ffffffffffffffffffffffffffffffffffffffff160217905550565b6000600260009054906101000a900473ffffffffffffffffffffffffffffffffffffffff16905090565b6000600a60009054906101000a900460ff16905090565b6000600354905090565b60006107b5600954600560009054906101000a900473ffffffffffffffffffffffffffffffffffffffff1673ffffffffffffffffffffffffffffffffffffffff166370a08231306040518263ffffffff167c01000000000000000000000000000000000000000000000000000000000281526004016107579190612254565b60206040518083038186803b15801561076f57600080fd5b505afa158015610783573d6000803e3d6000fd5b505050506040513d601f19601f820116820180604052508101906107a79190611da2565b61139390919063ffffffff16565b905090565b6000600754905090565b600060028111156107fe577f4e487b7100000000000000000000000000000000000000000000000000000000600052602160045260246000fd5b600a60019054906101000a900460ff166002811115610846577f4e487b7100000000000000000000000000000000000000000000000000000000600052602160045260246000fd5b1415610887576040517f08c379a000000000000000000000000000000000000000000000000000000000815260040161087e906124a8565b60405180910390fd5b60006108916103af565b9050600081116108d6576040517f08c379a00000000000000000000000000000000000000000000000000000000081526004016108cd90612448565b60405180910390fd5b6108eb8160095461139390919063ffffffff16565b600981905550610960600260009054906101000a900473ffffffffffffffffffffffffffffffffffffffff1682600560009054906101000a900473ffffffffffffffffffffffffffffffffffffffff1673ffffffffffffffffffffffffffffffffffffffff166116829092919063ffffffff16565b7fc7798891864187665ac6dd119286e44ec13f014527aeeb2b8eb3fd413df9317930826040516109919291906122a6565b60405180910390a150565b60008060009054906101000a900473ffffffffffffffffffffffffffffffffffffffff16905090565b60008054906101000a900473ffffffffffffffffffffffffffffffffffffffff1673ffffffffffffffffffffffffffffffffffffffff163373ffffffffffffffffffffffffffffffffffffffff1614610a53576040517f08c379a0000000000000000000000000000000000000000000000000000000008152600401610a4a906124c8565b60405180910390fd5b60006002811115610a8d577f4e487b7100000000000000000000000000000000000000000000000000000000600052602160045260246000fd5b600a60019054906101000a900460ff166002811115610ad5577f4e487b7100000000000000000000000000000000000000000000000000000000600052602160045260246000fd5b14610b15576040517f08c379a0000000000000000000000000000000000000000000000000000000008152600401610b0c90612408565b60405180910390fd5b84600481905550610b2f848661139390919063ffffffff16565b600381905550826006819055508160078190555080600a60006101000a81548160ff0219169083151502179055505050505050565b60008054906101000a900473ffffffffffffffffffffffffffffffffffffffff1673ffffffffffffffffffffffffffffffffffffffff163373ffffffffffffffffffffffffffffffffffffffff1614610bf2576040517f08c379a0000000000000000000000000000000000000000000000000000000008152600401610be9906124c8565b60405180910390fd5b600a60009054906101000a900460ff16610c41576040517f08c379a0000000000000000000000000000000000000000000000000000000008152600401610c38906123a8565b60405180910390fd5b600280811115610c7a577f4e487b7100000000000000000000000000000000000000000000000000000000600052602160045260246000fd5b600a60019054906101000a900460ff166002811115610cc2577f4e487b7100000000000000000000000000000000000000000000000000000000600052602160045260246000fd5b1415610d03576040517f08c379a0000000000000000000000000000000000000000000000000000000008152600401610cfa906123c8565b60405180910390fd5b6000600560009054906101000a900473ffffffffffffffffffffffffffffffffffffffff1673ffffffffffffffffffffffffffffffffffffffff166370a08231306040518263ffffffff167c0100000000000000000000000000000000000000000000000000000000028152600401610d7c9190612254565b60206040518083038186803b158015610d9457600080fd5b505afa158015610da8573d6000803e3d6000fd5b505050506040513d601f19601f82011682018060405250810190610dcc9190611da2565b90506000610dd86103af565b90506000610def828461166c90919063ffffffff16565b90506002600a60016101000a81548160ff02191690836002811115610e3d577f4e487b7100000000000000000000000000000000000000000000000000000000600052602160045260246000fd5b0217905550610e96610e4d61099c565b82600560009054906101000a900473ffffffffffffffffffffffffffffffffffffffff1673ffffffffffffffffffffffffffffffffffffffff166116829092919063ffffffff16565b7f8c82cd5dc1ce07aad22dcf75d3642f20cad51b7d13b907e638e5444bdad41d9d3082604051610ec79291906122a6565b60405180910390a1505050565b6000600454905090565b60008054906101000a900473ffffffffffffffffffffffffffffffffffffffff1673ffffffffffffffffffffffffffffffffffffffff163373ffffffffffffffffffffffffffffffffffffffff1614610f6c576040517f08c379a0000000000000000000000000000000000000000000000000000000008152600401610f63906124c8565b60405180910390fd5b60006002811115610fa6577f4e487b7100000000000000000000000000000000000000000000000000000000600052602160045260246000fd5b600a60019054906101000a900460ff166002811115610fee577f4e487b7100000000000000000000000000000000000000000000000000000000600052602160045260246000fd5b1461102e576040517f08c379a000000000000000000000000000000000000000000000000000000000815260040161102590612408565b60405180910390fd5b6001600a60016101000a81548160ff0219169083600281111561107a577f4e487b7100000000000000000000000000000000000000000000000000000000600052602160045260246000fd5b02179055506110ce823083600560009054906101000a900473ffffffffffffffffffffffffffffffffffffffff1673ffffffffffffffffffffffffffffffffffffffff16611724909392919063ffffffff16565b7f3b9c044a0268e30cb1d82d3baf306abfeee1d6e5cf84911b9b78af45da3384ae30426040516110ff9291906122a6565b60405180910390a15050565b6000600160009054906101000a900473ffffffffffffffffffffffffffffffffffffffff16905090565b60008054906101000a900473ffffffffffffffffffffffffffffffffffffffff1673ffffffffffffffffffffffffffffffffffffffff163373ffffffffffffffffffffffffffffffffffffffff16146111c3576040517f08c379a00000000000000000000000000000000000000000000000000000000081526004016111ba906124c8565b60405180910390fd5b80600160006101000a81548173ffffffffffffffffffffffffffffffffffffffff021916908373ffffffffffffffffffffffffffffffffffffffff16021790555050565b6000600954905090565b60008060008060008060008060008060006112fd600954600560009054906101000a900473ffffffffffffffffffffffffffffffffffffffff1673ffffffffffffffffffffffffffffffffffffffff166370a08231306040518263ffffffff167c010000000000000000000000000000000000000000000000000000000002815260040161129f9190612254565b60206040518083038186803b1580156112b757600080fd5b505afa1580156112cb573d6000803e3d6000fd5b505050506040513d601f19601f820116820180604052508101906112ef9190611da2565b61139390919063ffffffff16565b905060006113096113a9565b9050600061132960095461131b6113a9565b61166c90919063ffffffff16565b9050600260009054906101000a900473ffffffffffffffffffffffffffffffffffffffff16600654600754600454600354878760095488600a60009054906101000a900460ff169c509c509c509c509c509c509c509c509c509c5050505090919293949596979899565b600081836113a191906125c9565b905092915050565b600080600560009054906101000a900473ffffffffffffffffffffffffffffffffffffffff1673ffffffffffffffffffffffffffffffffffffffff166370a08231306040518263ffffffff167c01000000000000000000000000000000000000000000000000000000000281526004016114239190612254565b60206040518083038186803b15801561143b57600080fd5b505afa15801561144f573d6000803e3d6000fd5b505050506040513d601f19601f820116820180604052508101906114739190611da2565b9050600061148c6009548361139390919063ffffffff16565b905060006114d860646114ca600854600a6114a7919061270d565b6114bc600654876117c990919063ffffffff16565b6117df90919063ffffffff16565b6117df90919063ffffffff16565b90506004544210156114f05760009350505050611669565b60035442101561150557809350505050611669565b600061154f6064611541600854600a61151e919061270d565b611533600754886117c990919063ffffffff16565b6117df90919063ffffffff16565b6117df90919063ffffffff16565b9050600061155f600354426117f5565b905060028081111561159a577f4e487b7100000000000000000000000000000000000000000000000000000000600052602160045260246000fd5b600a60019054906101000a900460ff1660028111156115e2577f4e487b7100000000000000000000000000000000000000000000000000000000600052602160045260246000fd5b148061161e57508361161b61160c6001846115fd91906125c9565b856117c990919063ffffffff16565b8561139390919063ffffffff16565b10155b15611630578395505050505050611669565b61166161165260018361164391906125c9565b846117c990919063ffffffff16565b8461139390919063ffffffff16565b955050505050505b90565b6000818361167a9190612a30565b905092915050565b61171f8363a9059cbb7c01000000000000000000000000000000000000000000000000000000000284846040516024016116bd9291906122a6565b604051602081830303815290604052907bffffffffffffffffffffffffffffffffffffffffffffffffffffffff19166020820180517bffffffffffffffffffffffffffffffffffffffffffffffffffffffff8381831617835250505050611888565b505050565b6117c3846323b872dd7c0100000000000000000000000000000000000000000000000000000000028585856040516024016117619392919061226f565b604051602081830303815290604052907bffffffffffffffffffffffffffffffffffffffffffffffffffffffff19166020820180517bffffffffffffffffffffffffffffffffffffffffffffffffffffffff8381831617835250505050611888565b50505050565b600081836117d79190612942565b905092915050565b600081836117ed9190612689565b905092915050565b60008183111561180457600080fd5b60008061181e62015180866118199190612689565b61194f565b509150915060008061183d62015180876118389190612689565b61194f565b509150915082600c856118509190612942565b82600c8561185e9190612942565b61186891906125c9565b6118729190612a30565b61187c9190612a30565b94505050505092915050565b60006118ea826040518060400160405280602081526020017f5361666545524332303a206c6f772d6c6576656c2063616c6c206661696c65648152508573ffffffffffffffffffffffffffffffffffffffff16611aee9092919063ffffffff16565b905060008151111561194a578080602001905181019061190a9190611d79565b611949576040517f08c379a000000000000000000000000000000000000000000000000000000000815260040161194090612488565b60405180910390fd5b5b505050565b600080600080849050600062253d8c62010bd98361196d9190612535565b6119779190612535565b9050600062023ab182600461198c919061282b565b611996919061261f565b9050600460038262023ab16119ab919061282b565b6119b59190612535565b6119bf919061261f565b826119ca919061299c565b9150600062164b096001846119df9190612535565b610fa06119ec919061282b565b6119f6919061261f565b9050601f6004826105b5611a0a919061282b565b611a14919061261f565b84611a1f919061299c565b611a299190612535565b9250600061098f846050611a3d919061282b565b611a47919061261f565b9050600060508261098f611a5b919061282b565b611a65919061261f565b85611a70919061299c565b9050600b82611a7f919061261f565b945084600c611a8e919061282b565b600283611a9b9190612535565b611aa5919061299c565b91508483603186611ab6919061299c565b6064611ac2919061282b565b611acc9190612535565b611ad69190612535565b92508298508197508096505050505050509193909250565b6060611afd8484600085611b06565b90509392505050565b6060823073ffffffffffffffffffffffffffffffffffffffff16311015611b62576040517f08c379a0000000000000000000000000000000000000000000000000000000008152600401611b59906123e8565b60405180910390fd5b611b6b85611c31565b611baa576040517f08c379a0000000000000000000000000000000000000000000000000000000008152600401611ba190612468565b60405180910390fd5b6000808673ffffffffffffffffffffffffffffffffffffffff168587604051611bd3919061223d565b60006040518083038185875af1925050503d8060008114611c10576040519150601f19603f3d011682016040523d82523d6000602084013e611c15565b606091505b5091509150611c25828286611c44565b92505050949350505050565b600080823b905060008111915050919050565b60608315611c5457829050611ca4565b600083511115611c675782518084602001fd5b816040517f08c379a0000000000000000000000000000000000000000000000000000000008152600401611c9b9190612386565b60405180910390fd5b9392505050565b600081359050611cba81612b65565b92915050565b600081359050611ccf81612b7c565b92915050565b600081519050611ce481612b7c565b92915050565b600081359050611cf981612b93565b92915050565b600081519050611d0e81612b93565b92915050565b600060208284031215611d2657600080fd5b6000611d3484828501611cab565b91505092915050565b60008060408385031215611d5057600080fd5b6000611d5e85828601611cab565b9250506020611d6f85828601611cea565b9150509250929050565b600060208284031215611d8b57600080fd5b6000611d9984828501611cd5565b91505092915050565b600060208284031215611db457600080fd5b6000611dc284828501611cff565b91505092915050565b600080600080600060a08688031215611de357600080fd5b6000611df188828901611cea565b9550506020611e0288828901611cea565b9450506040611e1388828901611cea565b9350506060611e2488828901611cea565b9250506080611e3588828901611cc0565b9150509295509295909350565b611e4b81612a64565b82525050565b611e5a81612a76565b82525050565b6000611e6b82612503565b611e758185612519565b9350611e85818560208601612ab6565b80840191505092915050565b6000611e9c8261250e565b611ea68185612524565b9350611eb6818560208601612ab6565b611ebf81612b47565b840191505092915050565b6000611ed7602783612524565b91507f546f6b656e56657374696e673a20636f6e7472616374206973206e6f7420726560008301527f766f6361626c65000000000000000000000000000000000000000000000000006020830152604082019050919050565b6000611f3d601f83612524565b91507f546f6b656e56657374696e673a20737461747573206973205265766f6b6564006000830152602082019050919050565b6000611f7d602683612524565b91507f416464726573733a20696e73756666696369656e742062616c616e636520666f60008301527f722063616c6c00000000000000000000000000000000000000000000000000006020830152604082019050919050565b6000611fe3602a83612524565b91507f546f6b656e56657374696e673a20737461747573206d757374206265204e6f4960008301527f6e697469616c697a6564000000000000000000000000000000000000000000006020830152604082019050919050565b6000612049601083612524565b91507f6f6e6c7950656e64696e674f776e6572000000000000000000000000000000006000830152602082019050919050565b6000612089602783612524565b91507f546f6b656e56657374696e673a2072656c65617361626c6520616d6f756e742060008301527f6973207a65726f000000000000000000000000000000000000000000000000006020830152604082019050919050565b60006120ef601d83612524565b91507f416464726573733a2063616c6c20746f206e6f6e2d636f6e74726163740000006000830152602082019050919050565b600061212f602a83612524565b91507f5361666545524332303a204552433230206f7065726174696f6e20646964206e60008301527f6f742073756363656564000000000000000000000000000000000000000000006020830152604082019050919050565b6000612195602583612524565b91507f546f6b656e56657374696e673a20737461747573206973204e6f496e6974696160008301527f6c697a65640000000000000000000000000000000000000000000000000000006020830152604082019050919050565b60006121fb600983612524565b91507f6f6e6c794f776e657200000000000000000000000000000000000000000000006000830152602082019050919050565b61223781612aac565b82525050565b60006122498284611e60565b915081905092915050565b60006020820190506122696000830184611e42565b92915050565b60006060820190506122846000830186611e42565b6122916020830185611e42565b61229e604083018461222e565b949350505050565b60006040820190506122bb6000830185611e42565b6122c8602083018461222e565b9392505050565b6000610140820190506122e5600083018d611e42565b6122f2602083018c61222e565b6122ff604083018b61222e565b61230c606083018a61222e565b612319608083018961222e565b61232660a083018861222e565b61233360c083018761222e565b61234060e083018661222e565b61234e61010083018561222e565b61235c610120830184611e51565b9b9a5050505050505050505050565b60006020820190506123806000830184611e51565b92915050565b600060208201905081810360008301526123a08184611e91565b905092915050565b600060208201905081810360008301526123c181611eca565b9050919050565b600060208201905081810360008301526123e181611f30565b9050919050565b6000602082019050818103600083015261240181611f70565b9050919050565b6000602082019050818103600083015261242181611fd6565b9050919050565b600060208201905081810360008301526124418161203c565b9050919050565b600060208201905081810360008301526124618161207c565b9050919050565b60006020820190508181036000830152612481816120e2565b9050919050565b600060208201905081810360008301526124a181612122565b9050919050565b600060208201905081810360008301526124c181612188565b9050919050565b600060208201905081810360008301526124e1816121ee565b9050919050565b60006020820190506124fd600083018461222e565b92915050565b600081519050919050565b600081519050919050565b600081905092915050565b600082825260208201905092915050565b600061254082612a82565b915061254b83612a82565b9250817f7fffffffffffffffffffffffffffffffffffffffffffffffffffffffffffffff0383136000831215161561258657612585612ae9565b5b817f80000000000000000000000000000000000000000000000000000000000000000383126000831216156125be576125bd612ae9565b5b828201905092915050565b60006125d482612aac565b91506125df83612aac565b9250827fffffffffffffffffffffffffffffffffffffffffffffffffffffffffffffffff0382111561261457612613612ae9565b5b828201905092915050565b600061262a82612a82565b915061263583612a82565b92508261264557612644612b18565b5b600160000383147f80000000000000000000000000000000000000000000000000000000000000008314161561267e5761267d612ae9565b5b828205905092915050565b600061269482612aac565b915061269f83612aac565b9250826126af576126ae612b18565b5b828204905092915050565b6000808291508390505b6001851115612704578086048111156126e0576126df612ae9565b5b60018516156126ef5780820291505b80810290506126fd85612b58565b94506126c4565b94509492505050565b600061271882612aac565b915061272383612aac565b92506127507fffffffffffffffffffffffffffffffffffffffffffffffffffffffffffffffff8484612758565b905092915050565b6000826127685760019050612824565b816127765760009050612824565b816001811461278c5760028114612796576127c5565b6001915050612824565b60ff8411156127a8576127a7612ae9565b5b8360020a9150848211156127bf576127be612ae9565b5b50612824565b5060208310610133831016604e8410600b84101617156127fa5782820a9050838111156127f5576127f4612ae9565b5b612824565b61280784848460016126ba565b9250905081840481111561281e5761281d612ae9565b5b81810290505b9392505050565b600061283682612a82565b915061284183612a82565b9250827f7fffffffffffffffffffffffffffffffffffffffffffffffffffffffffffffff04821160008413600084131616156128805761287f612ae9565b5b817f800000000000000000000000000000000000000000000000000000000000000005831260008412600084131616156128bd576128bc612ae9565b5b827f800000000000000000000000000000000000000000000000000000000000000005821260008413600084121616156128fa576128f9612ae9565b5b827f7fffffffffffffffffffffffffffffffffffffffffffffffffffffffffffffff058212600084126000841216161561293757612936612ae9565b5b828202905092915050565b600061294d82612aac565b915061295883612aac565b9250817fffffffffffffffffffffffffffffffffffffffffffffffffffffffffffffffff048311821515161561299157612990612ae9565b5b828202905092915050565b60006129a782612a82565b91506129b283612a82565b9250827f8000000000000000000000000000000000000000000000000000000000000000018212600084121516156129ed576129ec612ae9565b5b827f7fffffffffffffffffffffffffffffffffffffffffffffffffffffffffffffff018213600084121615612a2557612a24612ae9565b5b828203905092915050565b6000612a3b82612aac565b9150612a4683612aac565b925082821015612a5957612a58612ae9565b5b828203905092915050565b6000612a6f82612a8c565b9050919050565b60008115159050919050565b6000819050919050565b600073ffffffffffffffffffffffffffffffffffffffff82169050919050565b6000819050919050565b60005b83811015612ad4578082015181840152602081019050612ab9565b83811115612ae3576000848401525b50505050565b7f4e487b7100000000000000000000000000000000000000000000000000000000600052601160045260246000fd5b7f4e487b7100000000000000000000000000000000000000000000000000000000600052601260045260246000fd5b6000601f19601f8301169050919050565b6000600282049050919050565b612b6e81612a64565b8114612b7957600080fd5b50565b612b8581612a76565b8114612b9057600080fd5b50565b612b9c81612aac565b8114612ba757600080fd5b5056fea264697066735822122034643890119e64d6945a051ee775dd80c24c0f2a65f1e09ac997e40f2328097664736f6c63430008000033a26469706673582212201cee1fbe598b1b1fa8ae536cb5ddbdc331cfc932e64ffbb147e4e712fc2b55b364736f6c63430008000033",
  "immutableReferences": {},
  "source": "// SPDX-License-Identifier: MIT\n\npragma solidity ^0.8.0;\n\nimport \"@openzeppelin/contracts/token/ERC20/utils/SafeERC20.sol\";\nimport \"@openzeppelin/contracts/token/ERC20/IERC20.sol\";\nimport \"@openzeppelin/contracts/utils/math/SafeMath.sol\";\nimport \"./BokkyPooBahsDateTimeLibrary.sol\";\n\n\n/**\n * @title Ownable\n * @dev The Ownable contract has an owner address, and provides basic authorization control\n * functions, this simplifies the implementation of \"user permissions\".\n */\ncontract Ownable {\n    address private _owner;\n    address private _pendingOwner;\n\n    event OwnershipTransferred(\n        address indexed previousOwner,\n        address indexed newOwner\n    );\n\n    /**\n     * @dev The Ownable constructor sets the original `owner` of the contract to the sender\n     * account.\n     */\n    constructor() public {\n        _owner = msg.sender;\n    }\n\n    /**\n     * @dev Throws if called by any account other than the owner.\n     */\n    modifier onlyOwner() {\n        require(msg.sender == _owner, \"onlyOwner\");\n        _;\n    }\n    \n    /**\n    * @dev Returns the address of the current owner.\n    */\n    function owner() public view returns (address) {\n        return _owner;\n    }\n    \n    /**\n    * @dev Returns the address of the pending owner.\n    */\n    function pendingOwner() public view returns (address) {\n        return _pendingOwner;\n    }\n\n    /**\n     * @dev Allows the current owner to set the pendingOwner address.\n     * @param newOwner The address to transfer ownership to.\n     */\n    function transferOwnership(address newOwner) public onlyOwner {\n        _pendingOwner = newOwner;\n    }\n\n    /**\n     * @dev Allows the pendingOwner address to finalize the transfer.\n     */\n    function claimOwnership() public {\n        require(msg.sender == _pendingOwner, \"onlyPendingOwner\");\n        emit OwnershipTransferred(_owner, _pendingOwner);\n        _owner = _pendingOwner;\n        _pendingOwner = address(0);\n    }\n}\n\ncontract TokenVestingFactory is Ownable {\n\n    event CreateTokenVesting(address tokenVesting);\n\n    // enum VestingType { SeedInvestors, StrategicInvestors, Advisors, Team, All }\n\n    struct BeneficiaryIndex {\n        address tokenVesting;\n        uint256 vestingType;\n        bool isExist;\n        // uint256 index;\n    }\n    mapping(address => BeneficiaryIndex) private _beneficiaryIndex;\n    address[] private _beneficiaries;\n    address private _tokenAddr;\n    uint256 private _decimal;\n    \n    constructor (address tokenAddr, uint256 decimal) {\n      _tokenAddr = tokenAddr;\n      _decimal = decimal;\n    }    \n    \n    function create(address beneficiary, uint256 start, uint256 cliff, uint256 initialShare, uint256 periodicShare, bool revocable, uint256 vestingType) onlyOwner public {\n        require(!_beneficiaryIndex[beneficiary].isExist, \"TokenVestingFactory: benficiery exists\");\n        require(vestingType != 0, \"TokenVestingFactory: vestingType 0 is reserved\");\n        \n        address tokenVesting = address(new TokenVesting(_tokenAddr, beneficiary, start, cliff, initialShare, periodicShare, _decimal, revocable));\n\n        _beneficiaries.push(beneficiary);\n        _beneficiaryIndex[beneficiary].tokenVesting = tokenVesting;\n        _beneficiaryIndex[beneficiary].vestingType = vestingType;\n        _beneficiaryIndex[beneficiary].isExist = true;\n        \n        emit CreateTokenVesting(tokenVesting);\n    }\n    \n    function initialize(address tokenVesting, address from, uint256 amount) public onlyOwner {\n        TokenVesting(tokenVesting).initialize(from, amount);\n    }\n  \n    function update(address tokenVesting, uint256 start, uint256 cliff, uint256 initialShare, uint256 periodicShare, bool revocable) public onlyOwner {\n        TokenVesting(tokenVesting).update(start, cliff, initialShare, periodicShare, revocable);\n    }\n    \n    function revoke(address tokenVesting) public onlyOwner {\n        TokenVesting(tokenVesting).revoke();\n    }\n\n    function getBeneficiaries(uint256 vestingType) public view returns(address[] memory) {\n        uint256 j = 0;\n        address[] memory beneficiaries = new address[](_beneficiaries.length);\n        \n        for (uint256 i = 0; i < _beneficiaries.length; i++) {\n            address beneficiary = _beneficiaries[i];\n            if ( _beneficiaryIndex[beneficiary].vestingType == vestingType || vestingType == 0 ) {\n                beneficiaries[j] = beneficiary;\n                j++;\n            }\n        }\n        return beneficiaries;\n    }\n    \n    function getVestingType(address beneficiary) public view returns(uint256) {\n        require(_beneficiaryIndex[beneficiary].isExist, \"TokenVestingFactory: benficiery does not exist\");\n        return _beneficiaryIndex[beneficiary].vestingType;\n    }\n\n    function getTokenVesting(address beneficiary) public view returns(address) {\n        require(_beneficiaryIndex[beneficiary].isExist, \"TokenVestingFactory: benficiery does not exist\");\n        return _beneficiaryIndex[beneficiary].tokenVesting;\n    }\n    \n    function getTokenAddress() public view returns(address) {\n        return _tokenAddr;\n    }\n\n    function getDecimal() public view returns(uint256) {\n      return _decimal;\n    }\n    \n}\n\n/**\n * @title TokenVesting\n * @dev A token holder contract that can release its token balance gradually like a\n * typical vesting scheme, with a cliff. Optionally revocable by the\n * owner.\n */\ncontract TokenVesting is Ownable {\n  using SafeMath for uint256;\n  using SafeERC20 for IERC20;\n\n  event TokensReleased(address contractAddr, uint256 amount);\n  event TokenVestingRevoked(address contractAddr, uint256 amount);\n  event TokenVestingInitialized(address contractAddr, uint256 tm);\n\n  enum Status { NoInitialized, Initialized, Revoked }\n\n  // beneficiary of tokens after they are released\n  address private _beneficiary;\n\n  uint256 private _cliff;\n  uint256 private _start;\n  address private _tokenAddr;\n  uint256 private _initialShare;\n  uint256 private _periodicShare;\n  uint256 private _decimal;\n  uint256 private _released;\n\n  bool private _revocable;\n  Status private _status;\n\n  /**\n   * @dev Creates a vesting contract that vests its balance of any ERC20 token to the\n   * beneficiary, gradually in a linear fashion. By then all\n   * of the balance will have vested.\n   * @param beneficiary address of the beneficiary to whom vested tokens are transferred\n   * @param cliff duration in seconds of the cliff in which tokens will begin to vest\n   * @param start the time (as Unix time) at which point vesting starts\n   * @param revocable whether the vesting is revocable or not\n   */\n  constructor(\n    address tokenAddr,\n    address beneficiary,\n    uint256 start,\n    uint256 cliff,\n    uint256 initialShare,\n    uint256 periodicShare,\n    uint256 decimal,\n    bool revocable\n    )\n    \n  {\n    require(beneficiary != address(0), \"TokenVesting: beneficiary address must not be zero\");\n    \n    _tokenAddr = tokenAddr;\n    _beneficiary = beneficiary;\n    _revocable = revocable;\n    _cliff = start.add(cliff);\n    _start = start;\n    _initialShare = initialShare;\n    _periodicShare = periodicShare;\n    _decimal = decimal;\n    _status = Status.NoInitialized;\n    \n  }\n  \n   /**\n   * @return TokenVesting details.\n   */\n  function getDetails() public view returns(address, uint256, uint256, uint256, uint256, uint256, uint256, uint256, uint256, bool) {\n    uint256 _total = IERC20(_tokenAddr).balanceOf(address(this)).add(_released);\n    uint256 _vested = _vestedAmount();\n    uint256 _releasable = _vestedAmount().sub(_released);\n    return (_beneficiary, _initialShare, _periodicShare, _start, _cliff, _total, _vested, _released, _releasable, _revocable);\n  }\n\n  \n  /**\n   * @return the initial share of the beneficiary.\n   */\n  function getInitialShare() public view returns(uint256) {\n    return _initialShare;\n  }\n  \n  \n  /**\n   * @return the periodic share of the beneficiary.\n   */\n  function getPeriodicShare() public view returns(uint256) {\n    return _periodicShare;\n  }\n  \n  \n  /**\n   * @return the beneficiary of the tokens.\n   */\n  function getBeneficiary() public view returns(address) {\n    return _beneficiary;\n  }\n\n  /**\n   * @return the start time of the token vesting.\n   */\n  function getStart() public view returns(uint256) {\n    return _start;\n  }\n\n  /**\n   * @return the cliff time of the token vesting.\n   */\n  function getCliff() public view returns(uint256) {\n    return _cliff;\n  }\n\n  /**\n   * @return the total amount of the token.\n   */\n  function getTotal() public view returns(uint256) {\n    return IERC20(_tokenAddr).balanceOf(address(this)).add(_released);\n  }\n\n  /**\n   * @return the amount of the vested token.\n   */\n  function getVested() public view returns(uint256) {\n    return _vestedAmount();\n  }\n\n  /**\n   * @return the amount of the token released.\n   */\n  function getReleased() public view returns(uint256) {\n    return _released;\n  }\n\n  /**\n   * @return the amount that has already vested but hasn't been released yet.\n   */\n  function getReleasable() public view returns(uint256) {\n    return _vestedAmount().sub(_released);\n  }\n\n  /**\n   * @return true if the vesting is revocable.\n   */\n  function isRevocable() public view returns(bool) {\n    return _revocable;\n  }\n  \n  /**\n   * @return true if the token is revoked.\n   */\n  function isRevoked() public view returns(bool) {\n    if (_status == Status.Revoked) {\n      return true;\n    } else {\n      return false;\n    }\n  }\n\n   /**\n   * @return status.\n   */\n  function getStatus() public view returns(uint256) {\n    return uint256(_status);\n  }\n\n  /**\n   * @notice change status to initialized.\n   */\n  function initialize(address from, uint256 amount) public onlyOwner {\n\n    require(_status == Status.NoInitialized, \"TokenVesting: status must be NoInitialized\");\n\n      _status = Status.Initialized;\n      IERC20(_tokenAddr).safeTransferFrom(from, address(this), amount);\n      emit TokenVestingInitialized(address(this), block.timestamp);\n    \n  }\n\n   /**\n   * @notice update token vesting contract.\n   */\n  function update(\n    uint256 start,\n    uint256 cliff,\n    uint256 initialShare,\n    uint256 periodicShare,\n    bool revocable\n\n  ) public onlyOwner {\n\n    require(_status == Status.NoInitialized, \"TokenVesting: status must be NoInitialized\");\n    \n    _start = start;\n    _cliff = start.add(cliff);\n    _initialShare = initialShare;\n    _periodicShare = periodicShare;\n    _revocable = revocable;\n\n  }\n\n  /**\n   * @notice Transfers vested tokens to beneficiary.\n   */\n  function release() public {\n    require(_status != Status.NoInitialized, \"TokenVesting: status is NoInitialized\");\n    uint256 unreleased = getReleasable();\n\n    require(unreleased > 0, \"TokenVesting: releasable amount is zero\");\n\n    _released = _released.add(unreleased);\n\n    IERC20(_tokenAddr).safeTransfer(_beneficiary, unreleased);\n\n    emit TokensReleased(address(this), unreleased);\n  }\n\n  /**\n   * @notice Allows the owner to revoke the vesting. Tokens already vested\n   * remain in the contract, the rest are returned to the owner.\n   */\n  function revoke() public onlyOwner {\n    require(_revocable, \"TokenVesting: contract is not revocable\");\n    require(_status != Status.Revoked, \"TokenVesting: status is Revoked\");\n\n    uint256 balance = IERC20(_tokenAddr).balanceOf(address(this));\n\n    uint256 unreleased = getReleasable();\n    uint256 refund = balance.sub(unreleased);\n\n    _status = Status.Revoked;\n\n    IERC20(_tokenAddr).safeTransfer(owner(), refund);\n\n    emit TokenVestingRevoked(address(this), refund);\n  }\n\n\n  /**\n   * @dev Calculates the amount that has already vested.\n   */\n  function _vestedAmount() private view returns (uint256) {\n    uint256 currentBalance = IERC20(_tokenAddr).balanceOf(address(this));\n    uint256 totalBalance = currentBalance.add(_released);\n    uint256 initialRelease = totalBalance.mul(_initialShare).div(10**_decimal).div(100);\n\n    if (block.timestamp < _start) {\n      return 0;\n    } else if (block.timestamp < _cliff) {\n      return initialRelease;\n    } else {\n        uint256 monthlyRelease = totalBalance.mul(_periodicShare).div(10**_decimal).div(100);\n        uint256 _months = BokkyPooBahsDateTimeLibrary.diffMonths(_cliff, block.timestamp);\n        \n        if (_status == Status.Revoked || initialRelease.add(monthlyRelease.mul(_months + 1)) >= totalBalance) {\n            return totalBalance;\n        } else {\n            return initialRelease.add(monthlyRelease.mul(_months + 1));\n        }\n    } \n  }\n}",
  "sourcePath": "E:/projects/amas/vesting/vesting-contract-backend/contracts/TokenVesting.sol",
  "compiler": {
    "name": "solc",
    "version": "0.8.0+commit.c7dfd78e.Emscripten.clang"
  },
  "schemaVersion": "3.4.1",
  "updatedAt": "2021-05-20T13:21:20.740Z",
  "networkType": "ethereum",
  "devdoc": {
    "kind": "dev",
    "methods": {
      "claimOwnership()": {
        "details": "Allows the pendingOwner address to finalize the transfer."
      },
      "owner()": {
        "details": "Returns the address of the current owner."
      },
      "pendingOwner()": {
        "details": "Returns the address of the pending owner."
      },
      "transferOwnership(address)": {
        "details": "Allows the current owner to set the pendingOwner address.",
        "params": {
          "newOwner": "The address to transfer ownership to."
        }
      }
    },
    "version": 1
  },
  "userdoc": {
    "kind": "user",
    "methods": {},
    "version": 1
  }
}