{
  "contractName": "TokenVestingFactory",
  "abi": [
    {
      "inputs": [
        {
          "internalType": "address",
          "name": "tokenAddr",
          "type": "address"
        },
        {
          "internalType": "uint256",
          "name": "decimal",
          "type": "uint256"
        },
        {
          "internalType": "address[]",
          "name": "owners",
          "type": "address[]"
        },
        {
          "internalType": "uint256",
          "name": "threshold",
          "type": "uint256"
        }
      ],
      "stateMutability": "nonpayable",
      "type": "constructor"
    },
    {
      "anonymous": false,
      "inputs": [
        {
          "indexed": true,
          "internalType": "bytes32",
          "name": "approvedHash",
          "type": "bytes32"
        },
        {
          "indexed": true,
          "internalType": "address",
          "name": "owner",
          "type": "address"
        }
      ],
      "name": "ApproveHash",
      "type": "event"
    },
    {
      "anonymous": false,
      "inputs": [
        {
          "indexed": false,
          "internalType": "bytes32",
          "name": "txHash",
          "type": "bytes32"
        }
      ],
      "name": "ExecutionFailure",
      "type": "event"
    },
    {
      "anonymous": false,
      "inputs": [
        {
          "indexed": false,
          "internalType": "bytes32",
          "name": "txHash",
          "type": "bytes32"
        }
      ],
      "name": "ExecutionSuccess",
      "type": "event"
    },
    {
      "anonymous": false,
      "inputs": [
        {
          "indexed": true,
          "internalType": "address",
          "name": "previousOwner",
          "type": "address"
        },
        {
          "indexed": true,
          "internalType": "address",
          "name": "newOwner",
          "type": "address"
        }
      ],
      "name": "OwnershipTransferred",
      "type": "event"
    },
    {
      "anonymous": false,
      "inputs": [
        {
          "indexed": false,
          "internalType": "address",
          "name": "tokenVesting",
          "type": "address"
        }
      ],
      "name": "TokenVestingCreated",
      "type": "event"
    },
    {
      "anonymous": false,
      "inputs": [
        {
          "indexed": true,
          "internalType": "address",
          "name": "signed",
          "type": "address"
        }
      ],
      "name": "eventAlreadySigned",
      "type": "event"
    },
    {
      "anonymous": false,
      "inputs": [
        {
          "indexed": false,
          "internalType": "address[]",
          "name": "signers",
          "type": "address[]"
        },
        {
          "indexed": false,
          "internalType": "uint256",
          "name": "threshold",
          "type": "uint256"
        }
      ],
      "name": "setupEvent",
      "type": "event"
    },
    {
      "anonymous": false,
      "inputs": [
        {
          "indexed": false,
          "internalType": "address",
          "name": "signer",
          "type": "address"
        }
      ],
      "name": "signerAddEvent",
      "type": "event"
    },
    {
      "anonymous": false,
      "inputs": [
        {
          "indexed": false,
          "internalType": "address",
          "name": "oldSigner",
          "type": "address"
        },
        {
          "indexed": false,
          "internalType": "address",
          "name": "newSigner",
          "type": "address"
        }
      ],
      "name": "signerChangedEvent",
      "type": "event"
    },
    {
      "anonymous": false,
      "inputs": [
        {
          "indexed": false,
          "internalType": "address",
          "name": "signer",
          "type": "address"
        }
      ],
      "name": "signerRemoveEvent",
      "type": "event"
    },
    {
      "anonymous": false,
      "inputs": [
        {
          "indexed": false,
          "internalType": "uint256",
          "name": "threshold",
          "type": "uint256"
        }
      ],
      "name": "thresholdEvent",
      "type": "event"
    },
    {
      "inputs": [],
      "name": "_nonce",
      "outputs": [
        {
          "internalType": "uint256",
          "name": "",
          "type": "uint256"
        }
      ],
      "stateMutability": "view",
      "type": "function",
      "constant": true
    },
    {
      "inputs": [
        {
          "internalType": "address",
          "name": "signer",
          "type": "address"
        },
        {
          "internalType": "uint256",
          "name": "threshold",
          "type": "uint256"
        }
      ],
      "name": "addSigner",
      "outputs": [],
      "stateMutability": "nonpayable",
      "type": "function"
    },
    {
      "inputs": [
        {
          "internalType": "address",
          "name": "to",
          "type": "address"
        },
        {
          "internalType": "uint256",
          "name": "value",
          "type": "uint256"
        },
        {
          "internalType": "bytes",
          "name": "data",
          "type": "bytes"
        }
      ],
      "name": "approveHash",
      "outputs": [],
      "stateMutability": "nonpayable",
      "type": "function"
    },
    {
      "inputs": [
        {
          "internalType": "address",
          "name": "",
          "type": "address"
        },
        {
          "internalType": "bytes32",
          "name": "",
          "type": "bytes32"
        }
      ],
      "name": "approvedHashes",
      "outputs": [
        {
          "internalType": "uint256",
          "name": "",
          "type": "uint256"
        }
      ],
      "stateMutability": "view",
      "type": "function",
      "constant": true
    },
    {
      "inputs": [
        {
          "internalType": "address",
          "name": "oldSigner",
          "type": "address"
        },
        {
          "internalType": "address",
          "name": "newSigner",
          "type": "address"
        }
      ],
      "name": "changeSigner",
      "outputs": [],
      "stateMutability": "nonpayable",
      "type": "function"
    },
    {
      "inputs": [
        {
          "internalType": "bytes32",
          "name": "dataHash",
          "type": "bytes32"
        }
      ],
      "name": "checkSignatures",
      "outputs": [],
      "stateMutability": "view",
      "type": "function",
      "constant": true
    },
    {
      "inputs": [],
      "name": "claimOwnership",
      "outputs": [],
      "stateMutability": "nonpayable",
      "type": "function"
    },
    {
      "inputs": [
        {
          "internalType": "address",
          "name": "to",
          "type": "address"
        },
        {
          "internalType": "uint256",
          "name": "value",
          "type": "uint256"
        },
        {
          "internalType": "bytes",
          "name": "data",
          "type": "bytes"
        },
        {
          "internalType": "uint256",
          "name": "nonce",
          "type": "uint256"
        }
      ],
      "name": "encodeTransactionData",
      "outputs": [
        {
          "internalType": "bytes",
          "name": "",
          "type": "bytes"
        }
      ],
      "stateMutability": "pure",
      "type": "function",
      "constant": true
    },
    {
      "inputs": [
        {
          "internalType": "address",
          "name": "to",
          "type": "address"
        },
        {
          "internalType": "uint256",
          "name": "value",
          "type": "uint256"
        },
        {
          "internalType": "bytes",
          "name": "data",
          "type": "bytes"
        }
      ],
      "name": "execTransaction",
      "outputs": [
        {
          "internalType": "bool",
          "name": "success",
          "type": "bool"
        }
      ],
      "stateMutability": "payable",
      "type": "function",
      "payable": true
    },
    {
      "inputs": [
        {
          "internalType": "address",
          "name": "signer",
          "type": "address"
        }
      ],
      "name": "existSigner",
      "outputs": [
        {
          "internalType": "bool",
          "name": "",
          "type": "bool"
        }
      ],
      "stateMutability": "view",
      "type": "function",
      "constant": true
    },
    {
      "inputs": [],
      "name": "getNonce",
      "outputs": [
        {
          "internalType": "uint256",
          "name": "",
          "type": "uint256"
        }
      ],
      "stateMutability": "view",
      "type": "function",
      "constant": true
    },
    {
      "inputs": [],
      "name": "getSigners",
      "outputs": [
        {
          "internalType": "address[]",
          "name": "",
          "type": "address[]"
        }
      ],
      "stateMutability": "view",
      "type": "function",
      "constant": true
    },
    {
      "inputs": [
        {
          "internalType": "bytes32",
          "name": "hash",
          "type": "bytes32"
        }
      ],
      "name": "getSignersOfHash",
      "outputs": [
        {
          "internalType": "address[]",
          "name": "",
          "type": "address[]"
        }
      ],
      "stateMutability": "view",
      "type": "function",
      "constant": true
    },
    {
      "inputs": [
        {
          "internalType": "address",
          "name": "to",
          "type": "address"
        },
        {
          "internalType": "uint256",
          "name": "value",
          "type": "uint256"
        },
        {
          "internalType": "bytes",
          "name": "data",
          "type": "bytes"
        },
        {
          "internalType": "uint256",
          "name": "nonce",
          "type": "uint256"
        }
      ],
      "name": "getTransactionHash",
      "outputs": [
        {
          "internalType": "bytes32",
          "name": "",
          "type": "bytes32"
        }
      ],
      "stateMutability": "pure",
      "type": "function",
      "constant": true
    },
    {
      "inputs": [],
      "name": "owner",
      "outputs": [
        {
          "internalType": "address",
          "name": "",
          "type": "address"
        }
      ],
      "stateMutability": "view",
      "type": "function",
      "constant": true
    },
    {
      "inputs": [],
      "name": "pendingOwner",
      "outputs": [
        {
          "internalType": "address",
          "name": "",
          "type": "address"
        }
      ],
      "stateMutability": "view",
      "type": "function",
      "constant": true
    },
    {
      "inputs": [
        {
          "internalType": "address",
          "name": "signer",
          "type": "address"
        },
        {
          "internalType": "uint256",
          "name": "threshold",
          "type": "uint256"
        }
      ],
      "name": "removeSigner",
      "outputs": [],
      "stateMutability": "nonpayable",
      "type": "function"
    },
    {
      "inputs": [
        {
          "internalType": "uint256",
          "name": "threshold",
          "type": "uint256"
        }
      ],
      "name": "setThreshold",
      "outputs": [],
      "stateMutability": "nonpayable",
      "type": "function"
    },
    {
      "inputs": [
        {
          "internalType": "address",
          "name": "newOwner",
          "type": "address"
        }
      ],
      "name": "transferOwnership",
      "outputs": [],
      "stateMutability": "nonpayable",
      "type": "function"
    },
    {
      "inputs": [
        {
          "internalType": "address",
          "name": "beneficiary",
          "type": "address"
        },
        {
          "internalType": "uint256",
          "name": "start",
          "type": "uint256"
        },
        {
          "internalType": "uint256",
          "name": "cliff",
          "type": "uint256"
        },
        {
          "internalType": "uint256",
          "name": "initialShare",
          "type": "uint256"
        },
        {
          "internalType": "uint256",
          "name": "periodicShare",
          "type": "uint256"
        },
        {
          "internalType": "bool",
          "name": "revocable",
          "type": "bool"
        },
        {
          "internalType": "uint256",
          "name": "vestingType",
          "type": "uint256"
        }
      ],
      "name": "create",
      "outputs": [],
      "stateMutability": "nonpayable",
      "type": "function"
    },
    {
      "inputs": [
        {
          "internalType": "address",
          "name": "tokenVesting",
          "type": "address"
        },
        {
          "internalType": "address",
          "name": "from",
          "type": "address"
        },
        {
          "internalType": "uint256",
          "name": "amount",
          "type": "uint256"
        }
      ],
      "name": "initialize",
      "outputs": [],
      "stateMutability": "nonpayable",
      "type": "function"
    },
    {
      "inputs": [
        {
          "internalType": "address",
          "name": "tokenVesting",
          "type": "address"
        },
        {
          "internalType": "uint256",
          "name": "start",
          "type": "uint256"
        },
        {
          "internalType": "uint256",
          "name": "cliff",
          "type": "uint256"
        },
        {
          "internalType": "uint256",
          "name": "initialShare",
          "type": "uint256"
        },
        {
          "internalType": "uint256",
          "name": "periodicShare",
          "type": "uint256"
        },
        {
          "internalType": "bool",
          "name": "revocable",
          "type": "bool"
        }
      ],
      "name": "update",
      "outputs": [],
      "stateMutability": "nonpayable",
      "type": "function"
    },
    {
      "inputs": [
        {
          "internalType": "uint256",
          "name": "vestingType",
          "type": "uint256"
        }
      ],
      "name": "getBeneficiaries",
      "outputs": [
        {
          "internalType": "address[]",
          "name": "",
          "type": "address[]"
        }
      ],
      "stateMutability": "view",
      "type": "function",
      "constant": true
    },
    {
      "inputs": [
        {
          "internalType": "address",
          "name": "beneficiary",
          "type": "address"
        }
      ],
      "name": "getVestingType",
      "outputs": [
        {
          "internalType": "uint256",
          "name": "",
          "type": "uint256"
        }
      ],
      "stateMutability": "view",
      "type": "function",
      "constant": true
    },
    {
      "inputs": [
        {
          "internalType": "address",
          "name": "beneficiary",
          "type": "address"
        }
      ],
      "name": "getTokenVesting",
      "outputs": [
        {
          "internalType": "address",
          "name": "",
          "type": "address"
        }
      ],
      "stateMutability": "view",
      "type": "function",
      "constant": true
    },
    {
      "inputs": [],
      "name": "getTokenAddress",
      "outputs": [
        {
          "internalType": "address",
          "name": "",
          "type": "address"
        }
      ],
      "stateMutability": "view",
      "type": "function",
      "constant": true
    },
    {
      "inputs": [],
      "name": "getDecimal",
      "outputs": [
        {
          "internalType": "uint256",
          "name": "",
          "type": "uint256"
        }
      ],
      "stateMutability": "view",
      "type": "function",
      "constant": true
    },
    {
      "inputs": [
        {
          "internalType": "address",
          "name": "tokenVesting",
          "type": "address"
        }
      ],
      "name": "revoke",
      "outputs": [],
      "stateMutability": "nonpayable",
      "type": "function"
    }
  ],
  "bytecode": "0x60806040523480156200001157600080fd5b5060405162004149380380620041498339810160408190526200003491620002fd565b600080546001600160a01b031916331790556001600160a01b038416620000785760405162461bcd60e51b81526004016200006f90620004df565b60405180910390fd5b600880546001600160a01b0319166001600160a01b0386161790556009839055620000a48282620000ae565b505050506200057a565b8151811115620000d25760405162461bcd60e51b81526004016200006f90620004a3565b6001811015620000f65760405162461bcd60e51b81526004016200006f9062000485565b60005b82518110156200021b5760008382815181106200012657634e487b7160e01b600052603260045260246000fd5b6020026020010151905062000141816200026260201b60201c565b15620001615760405162461bcd60e51b81526004016200006f9062000467565b6001600160a01b0381166200018a5760405162461bcd60e51b81526004016200006f90620004c1565b6001600160a01b038116301415620001b65760405162461bcd60e51b81526004016200006f9062000449565b600280546001810182556000919091527f405787fa12a823e0f2b7631cc41b3ba8828b3321ca811111fa75cd3aa3bb5ace0180546001600160a01b0319166001600160a01b03929092169190911790558062000212816200053c565b915050620000f9565b5060048190556040517fd95bf29a5cf0fd9865d5be8ce4eb4b05f699471ffd88d15530a0ad63aabe5b149062000256906002908490620003f1565b60405180910390a15050565b6000805b600254811015620002da576000600282815481106200029557634e487b7160e01b600052603260045260246000fd5b6000918252602090912001546001600160a01b0390811691508416811415620002c457600192505050620002e0565b5080620002d1816200053c565b91505062000266565b50600090505b919050565b80516001600160a01b0381168114620002e057600080fd5b6000806000806080858703121562000313578384fd5b6200031e85620002e5565b60208681015160408801519296509450906001600160401b038082111562000344578485fd5b818801915088601f83011262000358578485fd5b8151818111156200036d576200036d62000564565b838102604051858282010181811085821117156200038f576200038f62000564565b604052828152858101935084860182860187018d1015620003ae578889fd5b8895505b83861015620003db57620003c681620002e5565b855260019590950194938601938601620003b2565b5060609a909a0151989b979a5050505050505050565b6000604082016040835280855480835260608501915086845260209250828420845b828110156200043a5781546001600160a01b03168452928401926001918201910162000413565b50505092019290925292915050565b6020808252600490820152634d53303560e01b604082015260600190565b6020808252600490820152634d53303360e01b604082015260600190565b60208082526004908201526326a9981960e11b604082015260600190565b6020808252600490820152634d53303160e01b604082015260600190565b6020808252600490820152631354cc0d60e21b604082015260600190565b60208082526033908201527f546f6b656e56657374696e67466163746f72793a20746f6b656e20616464726560408201527f7373206d757374206e6f74206265207a65726f00000000000000000000000000606082015260800190565b60006000198214156200055d57634e487b7160e01b81526011600452602481fd5b5060010190565b634e487b7160e01b600052604160045260246000fd5b613bbf806200058a6000396000f3fe608060405260043610620001e25760003560e01c8063926b4edf1162000103578063c7da349d1162000097578063d4f77ab1116200006d578063d4f77ab1146200054c578063e30c39781462000571578063ee85f5fe1462000589578063f2fde38b14620005ae57620001e2565b8063c7da349d14620004db578063d087d2881462000500578063d12c1e90146200051857620001e2565b8063ab4ed83e11620000d9578063ab4ed83e1462000446578063b7b2c0d7146200046c578063b98a34de1462000491578063c6a38df514620004b657620001e2565b8063926b4edf14620003e457806394cf795e1462000409578063960bfe04146200042157620001e2565b80634e71e0c8116200017b57806374a8f103116200015157806374a8f103146200035d578063783804d914620003825780637d83297414620003a75780638da5cb5b14620003cc57620001e2565b80634e71e0c814620003085780635d1222aa146200032057806365af1bed146200033857620001e2565b8063325c714411620001bd578063325c7144146200026357806334ce10c4146200028857806335cabd3014620002af5780633bad542614620002e357620001e2565b806310fe9ae814620001e757806315e6b02214620002175780631794bb3c146200023e575b600080fd5b348015620001f457600080fd5b50620001ff620005d3565b6040516200020e919062001c79565b60405180910390f35b3480156200022457600080fd5b506200023c6200023636600462001a01565b620005e2565b005b3480156200024b57600080fd5b506200023c6200025d36600462001a38565b620007b9565b3480156200027057600080fd5b506200023c6200028236600462001c2b565b6200084f565b3480156200029557600080fd5b50620002a0620008ae565b6040516200020e919062001d84565b348015620002bc57600080fd5b50620002d4620002ce36600462001c2b565b620008b4565b6040516200020e919062001d2a565b348015620002f057600080fd5b506200023c6200030236600462001a78565b62000ac4565b3480156200031557600080fd5b506200023c62000d59565b3480156200032d57600080fd5b50620002a062000dea565b3480156200034557600080fd5b506200023c6200035736600462001a78565b62000df0565b3480156200036a57600080fd5b506200023c6200037c366004620019dd565b62000f26565b3480156200038f57600080fd5b50620002d4620003a136600462001c2b565b62000fb6565b348015620003b457600080fd5b50620002a0620003c636600462001a78565b620010ec565b348015620003d957600080fd5b50620001ff62001109565b348015620003f157600080fd5b506200023c6200040336600462001bc4565b62001118565b3480156200041657600080fd5b50620002d4620012c6565b3480156200042e57600080fd5b506200023c6200044036600462001c2b565b620013c5565b6200045d6200045736600462001aa4565b62001474565b6040516200020e919062001d79565b3480156200047957600080fd5b50620001ff6200048b366004620019dd565b62001586565b3480156200049e57600080fd5b50620002a0620004b036600462001b02565b620015e3565b348015620004c357600080fd5b506200023c620004d536600462001aa4565b62001606565b348015620004e857600080fd5b506200045d620004fa366004620019dd565b62001694565b3480156200050d57600080fd5b50620002a062001715565b3480156200052557600080fd5b506200053d6200053736600462001b02565b6200171b565b6040516200020e919062001d8d565b3480156200055957600080fd5b506200023c6200056b36600462001b68565b6200179e565b3480156200057e57600080fd5b50620001ff6200183d565b3480156200059657600080fd5b50620002a0620005a8366004620019dd565b6200184c565b348015620005bb57600080fd5b506200023c620005cd366004620019dd565b620018a9565b6008546001600160a01b031690565b3330146200060d5760405162461bcd60e51b8152600401620006049062001e01565b60405180910390fd5b620006188262001694565b620006375760405162461bcd60e51b8152600401620006049062001e5c565b620006428162001694565b15620006625760405162461bcd60e51b8152600401620006049062001e98565b6001600160a01b0381166200068b5760405162461bcd60e51b8152600401620006049062002066565b6001600160a01b038116301415620006b75760405162461bcd60e51b8152600401620006049062001e7a565b60005b6002548110156200077957826001600160a01b031660028281548110620006f157634e487b7160e01b600052603260045260246000fd5b6000918252602090912001546001600160a01b03161415620007645781600282815481106200073057634e487b7160e01b600052603260045260246000fd5b9060005260206000200160006101000a8154816001600160a01b0302191690836001600160a01b0316021790555062000779565b80620007708162002101565b915050620006ba565b7f7e8e25ddc635cb5bf8351e6459039cf927dca393363ab35edb92f6f16c2085388383604051620007ac92919062001c8d565b60405180910390a1505050565b6000546001600160a01b03163314620007e65760405162461bcd60e51b8152600401620006049062002084565b60405163cd6dc68760e01b81526001600160a01b0384169063cd6dc6879062000816908590859060040162001ceb565b600060405180830381600087803b1580156200083157600080fd5b505af115801562000846573d6000803e3d6000fd5b50505050505050565b6004546001811015620008765760405162461bcd60e51b8152600401620006049062001f9a565b60006200088383620008b4565b90508181511015620008a95760405162461bcd60e51b8152600401620006049062001f7c565b505050565b60095490565b606060008060028054905067ffffffffffffffff811115620008e657634e487b7160e01b600052604160045260246000fd5b60405190808252806020026020018201604052801562000910578160200160208202803683370190505b50905060005b600254811015620009dd576000600282815481106200094557634e487b7160e01b600052603260045260246000fd5b60009182526020808320909101546001600160a01b03168083526003825260408084208a855290925291205490915060011415620009c757808385815181106200099f57634e487b7160e01b600052603260045260246000fd5b6001600160a01b039092166020928302919091019091015283620009c38162002101565b9450505b5080620009d48162002101565b91505062000916565b60008367ffffffffffffffff81111562000a0757634e487b7160e01b600052604160045260246000fd5b60405190808252806020026020018201604052801562000a31578160200160208202803683370190505b509050600091505b8382101562000ab95782828151811062000a6357634e487b7160e01b600052603260045260246000fd5b602002602001015181838151811062000a8c57634e487b7160e01b600052603260045260246000fd5b6001600160a01b03909216602092830291909101909101528162000ab08162002101565b92505062000a39565b93505050505b919050565b33301462000ae65760405162461bcd60e51b8152600401620006049062001e01565b62000af18262001694565b62000b105760405162461bcd60e51b8152600401620006049062001e5c565b60025460019062000b23908290620020e7565b101562000b445760405162461bcd60e51b8152600401620006049062001de3565b600254819062000b5790600190620020e7565b101562000b785760405162461bcd60e51b8152600401620006049062001e3e565b6001600160a01b03821662000ba15760405162461bcd60e51b8152600401620006049062002066565b60005b60025481101562000c1257826001600160a01b03166002828154811062000bdb57634e487b7160e01b600052603260045260246000fd5b6000918252602090912001546001600160a01b0316141562000bfd5762000c12565b8062000c098162002101565b91505062000ba4565b60025462000c2390600190620020e7565b81101562000cd257600262000c3a826001620020cc565b8154811062000c5957634e487b7160e01b600052603260045260246000fd5b600091825260209091200154600280546001600160a01b03909216918390811062000c9457634e487b7160e01b600052603260045260246000fd5b600091825260209091200180546001600160a01b0319166001600160a01b03929092169190911790558062000cc98162002101565b91505062000c12565b600280548062000cf257634e487b7160e01b600052603160045260246000fd5b600082815260209020810160001990810180546001600160a01b03191690550190556040517f2a26a55a8080e2e746000a8f5cbd1ef67983c5d0bbf17077c34ad78927d020d19062000d4690859062001c79565b60405180910390a1620008a982620013c5565b6001546001600160a01b0316331462000d865760405162461bcd60e51b8152600401620006049062001f52565b600154600080546040516001600160a01b0393841693909116917f8be0079c531659141344cd1fd0a4f28419497f9722a3daafe3b4186f6b6457e091a360018054600080546001600160a01b03199081166001600160a01b03841617909155169055565b60055481565b33301462000e125760405162461bcd60e51b8152600401620006049062001e01565b62000e1d8262001694565b1562000e3d5760405162461bcd60e51b8152600401620006049062001e98565b6001600160a01b03821662000e665760405162461bcd60e51b8152600401620006049062002066565b6001600160a01b03821630141562000e925760405162461bcd60e51b8152600401620006049062001e7a565b600280546001810182556000919091527f405787fa12a823e0f2b7631cc41b3ba8828b3321ca811111fa75cd3aa3bb5ace0180546001600160a01b0319166001600160a01b0384161790556040517fdae259046cd53db960bf96e7d68edf396dbbae145d2f361d945a48d45a3b48a59062000f0f90849062001c79565b60405180910390a162000f2281620013c5565b5050565b33301462000f485760405162461bcd60e51b8152600401620006049062001fb8565b806001600160a01b03166374a8f10362000f6162001109565b6040518263ffffffff1660e01b815260040162000f7f919062001c79565b600060405180830381600087803b15801562000f9a57600080fd5b505af115801562000faf573d6000803e3d6000fd5b5050505050565b606060008060078054905067ffffffffffffffff81111562000fe857634e487b7160e01b600052604160045260246000fd5b60405190808252806020026020018201604052801562001012578160200160208202803683370190505b50905060005b600754811015620010e4576000600782815481106200104757634e487b7160e01b600052603260045260246000fd5b60009182526020808320909101546001600160a01b031680835260069091526040909120600101549091508614806200107e575085155b15620010ce5780838581518110620010a657634e487b7160e01b600052603260045260246000fd5b6001600160a01b039092166020928302919091019091015283620010ca8162002101565b9450505b5080620010db8162002101565b91505062001018565b509392505050565b600360209081526000928352604080842090915290825290205481565b6000546001600160a01b031690565b6000546001600160a01b03163314620011455760405162461bcd60e51b8152600401620006049062002084565b6001600160a01b03871660009081526006602052604090206002015460ff1615620011845760405162461bcd60e51b8152600401620006049062002020565b80620011a45760405162461bcd60e51b8152600401620006049062001f04565b6000600860009054906101000a90046001600160a01b0316888888888860095489604051620011d3906200195c565b620011e698979695949392919062001ca7565b604051809103906000f08015801562001203573d6000803e3d6000fd5b506007805460018181019092557fa66cc928b5edb82af9bd49922954155ab7b0942694bea4ce44661d9a8736c6880180546001600160a01b03808d166001600160a01b0319928316811790935560009283526006602052604092839020805491861691909216178155808301869055600201805460ff1916909217909155519091507fd8e638d9ae6f6e4f3267bd58084c383fcc9044b5a1867e9e449098343ae63e1690620012b490839062001c79565b60405180910390a15050505050505050565b60025460609060009067ffffffffffffffff811115620012f657634e487b7160e01b600052604160045260246000fd5b60405190808252806020026020018201604052801562001320578160200160208202803683370190505b50905060005b600254811015620013bf57600281815481106200135357634e487b7160e01b600052603260045260246000fd5b9060005260206000200160009054906101000a90046001600160a01b03168282815181106200139257634e487b7160e01b600052603260045260246000fd5b6001600160a01b039092166020928302919091019091015280620013b68162002101565b91505062001326565b50905090565b333014620013e75760405162461bcd60e51b8152600401620006049062001e01565b6002548111156200140c5760405162461bcd60e51b8152600401620006049062002002565b60016004541015620014325760405162461bcd60e51b8152600401620006049062001e1f565b60048190556040517ffe44fa8929b5cdc79f5f66efa51b2f7b70f55504ab5c87dc86680b68a775dcf6906200146990839062001d84565b60405180910390a150565b60008060006200148a878787876005546200171b565b6005805491925060006200149e8362002101565b9091555050805160208201209150620014b7826200084f565b50620014fb868686868080601f016020809104026020016040519081016040528093929190818152602001838380828437600092019190915250620018f892505050565b9150811562001543577fdc29884a71d2bb98d3c53dc09718be05c7bfd142b7773a5c5cf2517629290ac08160405162001535919062001d84565b60405180910390a16200157d565b7fdbe42d02a4e07d7eeff2874efe172540c93b297d206f6d691c9782a257323e328160405162001574919062001d84565b60405180910390a15b50949350505050565b6001600160a01b03811660009081526006602052604081206002015460ff16620015c45760405162461bcd60e51b8152600401620006049062001eb6565b506001600160a01b039081166000908152600660205260409020541690565b6000620015f486868686866200171b565b80519060200120905095945050505050565b620016113362001694565b620016305760405162461bcd60e51b8152600401620006049062001e5c565b60006200164385858585600554620015e3565b3360008181526003602090815260408083208584529091528082206001905551929350909183917ff2a0eb156472d1440255b0d7c1e19cc07115d1051fe605b0dce69acfec884d9c91a35050505050565b6000805b6002548110156200170c57600060028281548110620016c757634e487b7160e01b600052603260045260246000fd5b6000918252602090912001546001600160a01b0390811691508416811415620016f65760019250505062000abf565b5080620017038162002101565b91505062001698565b50600092915050565b60055490565b60606000868686866040516200173392919062001c69565b6040519081900381206200174e939291879060200162001d04565b60408051601f1981840301815290829052805160209182012092506200178391601960f81b91600160f81b9185910162001c44565b60405160208183030381529060405291505095945050505050565b6000546001600160a01b03163314620017cb5760405162461bcd60e51b8152600401620006049062002084565b604051630156d01360e71b81526001600160a01b0387169063ab68098090620018019088908890889088908890600401620020a7565b600060405180830381600087803b1580156200181c57600080fd5b505af115801562001831573d6000803e3d6000fd5b50505050505050505050565b6001546001600160a01b031690565b6001600160a01b03811660009081526006602052604081206002015460ff166200188a5760405162461bcd60e51b8152600401620006049062001eb6565b506001600160a01b031660009081526006602052604090206001015490565b6000546001600160a01b03163314620018d65760405162461bcd60e51b8152600401620006049062002084565b600180546001600160a01b0319166001600160a01b0392909216919091179055565b6000806109c45a6200190b9190620020e7565b90507ffe44fa8929b5cdc79f5f66efa51b2f7b70f55504ab5c87dc86680b68a775dcf6816040516200193e919062001d84565b60405180910390a1600080845160208601878986f195945050505050565b611a54806200213683390190565b80356001600160a01b038116811462000abf57600080fd5b8035801515811462000abf57600080fd5b60008083601f840112620019a5578182fd5b50813567ffffffffffffffff811115620019bd578182fd5b602083019150836020828501011115620019d657600080fd5b9250929050565b600060208284031215620019ef578081fd5b620019fa826200196a565b9392505050565b6000806040838503121562001a14578081fd5b62001a1f836200196a565b915062001a2f602084016200196a565b90509250929050565b60008060006060848603121562001a4d578081fd5b62001a58846200196a565b925062001a68602085016200196a565b9150604084013590509250925092565b6000806040838503121562001a8b578182fd5b62001a96836200196a565b946020939093013593505050565b6000806000806060858703121562001aba578081fd5b62001ac5856200196a565b935060208501359250604085013567ffffffffffffffff81111562001ae8578182fd5b62001af68782880162001993565b95989497509550505050565b60008060008060006080868803121562001b1a578081fd5b62001b25866200196a565b945060208601359350604086013567ffffffffffffffff81111562001b48578182fd5b62001b568882890162001993565b96999598509660600135949350505050565b60008060008060008060c0878903121562001b81578081fd5b62001b8c876200196a565b95506020870135945060408701359350606087013592506080870135915062001bb860a0880162001982565b90509295509295509295565b600080600080600080600060e0888a03121562001bdf578081fd5b62001bea886200196a565b96506020880135955060408801359450606088013593506080880135925062001c1660a0890162001982565b915060c0880135905092959891949750929550565b60006020828403121562001c3d578081fd5b5035919050565b6001600160f81b03199384168152919092166001820152600281019190915260220190565b6000828483379101908152919050565b6001600160a01b0391909116815260200190565b6001600160a01b0392831681529116602082015260400190565b6001600160a01b03988916815296909716602087015260408601949094526060850192909252608084015260a083015260c082015290151560e08201526101000190565b6001600160a01b03929092168252602082015260400190565b6001600160a01b0394909416845260208401929092526040830152606082015260800190565b6020808252825182820181905260009190848201906040850190845b8181101562001d6d5783516001600160a01b03168352928401929184019160010162001d46565b50909695505050505050565b901515815260200190565b90815260200190565b6000602080835283518082850152825b8181101562001dbb5785810183015185820160400152820162001d9d565b8181111562001dcd5783604083870101525b50601f01601f1916929092016040019392505050565b6020808252600490820152634d53303960e01b604082015260600190565b60208082526004908201526309aa660760e31b604082015260600190565b6020808252600590820152644d5330322160d81b604082015260600190565b60208082526004908201526304d5331360e41b604082015260600190565b6020808252600490820152634d53303760e01b604082015260600190565b6020808252600490820152634d53303560e01b604082015260600190565b6020808252600490820152634d53303360e01b604082015260600190565b6020808252602e908201527f546f6b656e56657374696e67466163746f72793a2062656e666963696572792060408201526d191bd95cc81b9bdd08195e1a5cdd60921b606082015260800190565b6020808252602e908201527f546f6b656e56657374696e67466163746f72793a2076657374696e675479706560408201526d080c081a5cc81c995cd95c9d995960921b606082015260800190565b60208082526010908201526f37b7363ca832b73234b733a7bbb732b960811b604082015260600190565b60208082526004908201526326a9981b60e11b604082015260600190565b60208082526004908201526326a9981960e11b604082015260600190565b6020808252602a908201527f4f6e6c79204d756c746973696720636f6e74726163742063616e2072756e20746040820152691a1a5cc81b595d1a1bd960b21b606082015260800190565b6020808252600490820152634d53303160e01b604082015260600190565b60208082526026908201527f546f6b656e56657374696e67466163746f72793a2062656e666963696572792060408201526565786973747360d01b606082015260800190565b6020808252600490820152631354cc0d60e21b604082015260600190565b60208082526009908201526837b7363ca7bbb732b960b91b604082015260600190565b9485526020850193909352604084019190915260608301521515608082015260a00190565b60008219821115620020e257620020e26200211f565b500190565b600082821015620020fc57620020fc6200211f565b500390565b60006000198214156200211857620021186200211f565b5060010190565b634e487b7160e01b600052601160045260246000fdfe60806040523480156200001157600080fd5b5060405162001a5438038062001a5483398101604081905262000034916200010b565b600080546001600160a01b031916331790556001600160a01b038716620000785760405162461bcd60e51b81526004016200006f906200018c565b60405180910390fd5b600580546001600160a01b03808b166001600160a01b03199283161790925560028054928a1692909116919091179055600a805482151560ff19909116179055620000c48587620001de565b60035550600494909455600691909155600755506008555050600a805461ff001916905562000203565b80516001600160a01b03811681146200010657600080fd5b919050565b600080600080600080600080610100898b03121562000128578384fd5b6200013389620000ee565b97506200014360208a01620000ee565b965060408901519550606089015194506080890151935060a0890151925060c0890151915060e089015180151581146200017b578182fd5b809150509295985092959890939650565b60208082526032908201527f546f6b656e56657374696e673a2062656e65666963696172792061646472657360408201527173206d757374206e6f74206265207a65726f60701b606082015260800190565b60008219821115620001fe57634e487b7160e01b81526011600452602481fd5b500190565b61184180620002136000396000f3fe608060405234801561001057600080fd5b50600436106101375760003560e01c8063775a25e3116100b8578063c5292c671161007c578063c5292c67146101fc578063cd6dc68714610204578063e30c397814610217578063f2fde38b1461021f578063f47a6e8414610232578063fbbf93a01461023a57610137565b8063775a25e3146101c95780637a140b8b146101d157806386d1a69f146101d95780638da5cb5b146101e1578063ab680980146101e957610137565b80634e71e0c8116100ff5780634e71e0c814610187578063565a2e2c146101915780635ffd1bad146101a657806363260e36146101ae57806374a8f103146101b657610137565b80630bfdc5191461013c5780630d60e5531461015a57806321617565146101625780632bc9ed021461016a5780634e69d5601461017f575b600080fd5b610144610259565b60405161015191906114d0565b60405180910390f35b610144610260565b61014461026f565b610172610286565b604051610151919061120a565b6101446102ca565b61018f6102f7565b005b61019961038e565b604051610151919061115e565b61017261039d565b6101446103a6565b61018f6101c436600461107f565b6103ac565b610144610546565b6101446105d5565b61018f6105db565b6101996106c9565b61018f6101f73660046110f6565b6106d8565b6101446107c5565b61018f610212366004611099565b6107cb565b6101996108a3565b61018f61022d36600461107f565b6108b2565b6101446108fe565b610242610904565b6040516101519b9a999897969594939291906111af565b6006545b90565b600061026a610a68565b905090565b600060095461027c610a68565b61026a919061178e565b60006002600a54610100900460ff1660028111156102b457634e487b7160e01b600052602160045260246000fd5b14156102c25750600161025d565b50600061025d565b600a54600090610100900460ff16600281111561026a57634e487b7160e01b600052602160045260246000fd5b6001546001600160a01b0316331461032a5760405162461bcd60e51b8152600401610321906113bb565b60405180910390fd5b600154600080546040516001600160a01b0393841693909116917f8be0079c531659141344cd1fd0a4f28419497f9722a3daafe3b4186f6b6457e091a360018054600080546001600160a01b03199081166001600160a01b03841617909155169055565b6002546001600160a01b031690565b600a5460ff1690565b60035490565b6000546001600160a01b031633146103d65760405162461bcd60e51b8152600401610321906114ad565b600a5460ff166103f85760405162461bcd60e51b81526004016103219061128e565b6002600a54610100900460ff16600281111561042457634e487b7160e01b600052602160045260246000fd5b14156104425760405162461bcd60e51b8152600401610321906112d5565b6005546040516370a0823160e01b81526000916001600160a01b0316906370a082319061047390309060040161115e565b60206040518083038186803b15801561048b57600080fd5b505afa15801561049f573d6000803e3d6000fd5b505050506040513d601f19601f820116820180604052508101906104c391906110de565b905060006104cf61026f565b905060006104dd828461178e565b600a805461ff0019166102001790556040519091507f8c82cd5dc1ce07aad22dcf75d3642f20cad51b7d13b907e638e5444bdad41d9d906105219086908490611196565b60405180910390a1600554610540906001600160a01b03168583610c3e565b50505050565b6009546005546040516370a0823160e01b8152600092916001600160a01b0316906370a082319061057b90309060040161115e565b60206040518083038186803b15801561059357600080fd5b505afa1580156105a7573d6000803e3d6000fd5b505050506040513d601f19601f820116820180604052508101906105cb91906110de565b61026a919061153f565b60075490565b6000600a54610100900460ff16600281111561060757634e487b7160e01b600052602160045260246000fd5b14156106255760405162461bcd60e51b815260040161032190611248565b600061062f61026f565b9050600081116106515760405162461bcd60e51b8152600401610321906113e5565b8060095461065f919061153f565b6009556002546040517fc7798891864187665ac6dd119286e44ec13f014527aeeb2b8eb3fd413df93179916106a1916001600160a01b03909116908490611196565b60405180910390a16002546005546106c6916001600160a01b03918216911683610c3e565b50565b6000546001600160a01b031690565b6000546001600160a01b031633146107025760405162461bcd60e51b8152600401610321906114ad565b6000600a54610100900460ff16600281111561072e57634e487b7160e01b600052602160045260246000fd5b1461074b5760405162461bcd60e51b815260040161032190611370565b600485905561075a848661153f565b600381905560068490556007839055600a805460ff191683151517908190556004546040517f9b226cd59889be3c7db1994851c65da63e7508a07f4a475b702ed8cb42f926af936107b69390918891889160ff909116906114d9565b60405180910390a15050505050565b60045490565b6000546001600160a01b031633146107f55760405162461bcd60e51b8152600401610321906114ad565b6000600a54610100900460ff16600281111561082157634e487b7160e01b600052602160045260246000fd5b1461083e5760405162461bcd60e51b815260040161032190611370565b600a805461ff0019166101001790556040517f3b9c044a0268e30cb1d82d3baf306abfeee1d6e5cf84911b9b78af45da3384ae9061087f9084908490611196565b60405180910390a160055461089f906001600160a01b0316833084610c99565b5050565b6001546001600160a01b031690565b6000546001600160a01b031633146108dc5760405162461bcd60e51b8152600401610321906114ad565b600180546001600160a01b0319166001600160a01b0392909216919091179055565b60095490565b600080600080600080600080600080600080600954600560009054906101000a90046001600160a01b03166001600160a01b03166370a08231306040518263ffffffff1660e01b815260040161095a919061115e565b60206040518083038186803b15801561097257600080fd5b505afa158015610986573d6000803e3d6000fd5b505050506040513d601f19601f820116820180604052508101906109aa91906110de565b6109b4919061153f565b905060006109c0610a68565b905060006009546109cf610a68565b6109d9919061178e565b9050600260009054906101000a90046001600160a01b0316600654600754600454600354878760095488600a60009054906101000a900460ff16600a60019054906101000a900460ff166002811115610a4257634e487b7160e01b600052602160045260246000fd5b9d509d509d509d509d509d509d509d509d509d509d50505050909192939495969798999a565b6005546040516370a0823160e01b815260009182916001600160a01b03909116906370a0823190610a9d90309060040161115e565b60206040518083038186803b158015610ab557600080fd5b505afa158015610ac9573d6000803e3d6000fd5b505050506040513d601f19601f82011682018060405250810190610aed91906110de565b9050600060095482610aff919061153f565b90506000600854600a610b1291906115df565b610b1d906064611730565b600654610b2a9084611730565b610b349190611585565b9050600454421015610b4c576000935050505061025d565b6002600a54610100900460ff166002811115610b7857634e487b7160e01b600052602160045260246000fd5b1415610b885750915061025d9050565b600354421015610b9c57925061025d915050565b6000600854600a610bad91906115df565b610bb8906064611730565b600754610bc59085611730565b610bcf9190611585565b90506000610bdf60035442610cba565b905083610bed82600161153f565b610bf79084611730565b610c01908561153f565b10610c1357839550505050505061025d565b610c1e81600161153f565b610c289083611730565b610c32908461153f565b9550505050505061025d565b610c948363a9059cbb60e01b8484604051602401610c5d929190611196565b60408051601f198184030181529190526020810180516001600160e01b03166001600160e01b031990931692909217909152610d54565b505050565b610540846323b872dd60e01b858585604051602401610c5d93929190611172565b600081831115610cdc5760405162461bcd60e51b81526004016103219061130c565b600080610cf4610cef6201518087611585565b610de3565b509092509050600080610d0d610cef6201518088611585565b50909250905082610d1f85600c611730565b82610d2b85600c611730565b610d35919061153f565b610d3f919061178e565b610d49919061178e565b979650505050505050565b6000610da9826040518060400160405280602081526020017f5361666545524332303a206c6f772d6c6576656c2063616c6c206661696c6564815250856001600160a01b0316610f579092919063ffffffff16565b805190915015610c945780806020019051810190610dc791906110c2565b610c945760405162461bcd60e51b815260040161032190611463565b60008080838162253d8c610dfa8362010bd96114fe565b610e0491906114fe565b9050600062023ab1610e178360046116ad565b610e219190611557565b90506004610e328262023ab16116ad565b610e3d9060036114fe565b610e479190611557565b610e51908361174f565b9150600062164b09610e648460016114fe565b610e7090610fa06116ad565b610e7a9190611557565b90506004610e8a826105b56116ad565b610e949190611557565b610e9e908461174f565b610ea990601f6114fe565b9250600061098f610ebb8560506116ad565b610ec59190611557565b905060006050610ed78361098f6116ad565b610ee19190611557565b610eeb908661174f565b9050610ef8600b83611557565b9450610f0585600c6116ad565b610f108360026114fe565b610f1a919061174f565b91508483610f2960318761174f565b610f349060646116ad565b610f3e91906114fe565b610f4891906114fe565b9a919950975095505050505050565b6060610f668484600085610f70565b90505b9392505050565b606082471015610f925760405162461bcd60e51b81526004016103219061132a565b610f9b85611025565b610fb75760405162461bcd60e51b81526004016103219061142c565b600080866001600160a01b03168587604051610fd39190611142565b60006040518083038185875af1925050503d8060008114611010576040519150601f19603f3d011682016040523d82523d6000602084013e611015565b606091505b5091509150610d4982828661102f565b803b15155b919050565b6060831561103e575081610f69565b82511561104e5782518084602001fd5b8160405162461bcd60e51b81526004016103219190611215565b80356001600160a01b038116811461102a57600080fd5b600060208284031215611090578081fd5b610f6982611068565b600080604083850312156110ab578081fd5b6110b483611068565b946020939093013593505050565b6000602082840312156110d3578081fd5b8151610f69816117fd565b6000602082840312156110ef578081fd5b5051919050565b600080600080600060a0868803121561110d578081fd5b853594506020860135935060408601359250606086013591506080860135611134816117fd565b809150509295509295909350565b600082516111548184602087016117a5565b9190910192915050565b6001600160a01b0391909116815260200190565b6001600160a01b039384168152919092166020820152604081019190915260600190565b6001600160a01b03929092168252602082015260400190565b6001600160a01b039b909b168b5260208b019990995260408a01979097526060890195909552608088019390935260a087019190915260c086015260e085015261010084015215156101208301526101408201526101600190565b901515815260200190565b60006020825282518060208401526112348160408501602087016117a5565b601f01601f19169190910160400192915050565b60208082526026908201527f546f6b656e56657374696e673a20737461747573206973204e6f74496e697469604082015265185b1a5e995960d21b606082015260800190565b60208082526027908201527f546f6b656e56657374696e673a20636f6e7472616374206973206e6f74207265604082015266766f6361626c6560c81b606082015260800190565b6020808252601f908201527f546f6b656e56657374696e673a20737461747573206973205265766f6b656400604082015260600190565b6020808252600490820152634250303360e01b604082015260600190565b60208082526026908201527f416464726573733a20696e73756666696369656e742062616c616e636520666f6040820152651c8818d85b1b60d21b606082015260800190565b6020808252602b908201527f546f6b656e56657374696e673a20737461747573206d757374206265204e6f7460408201526a125b9a5d1a585b1a5e995960aa1b606082015260800190565b60208082526010908201526f37b7363ca832b73234b733a7bbb732b960811b604082015260600190565b60208082526027908201527f546f6b656e56657374696e673a2072656c65617361626c6520616d6f756e74206040820152666973207a65726f60c81b606082015260800190565b6020808252601d908201527f416464726573733a2063616c6c20746f206e6f6e2d636f6e7472616374000000604082015260600190565b6020808252602a908201527f5361666545524332303a204552433230206f7065726174696f6e20646964206e6040820152691bdd081cdd58d8d9595960b21b606082015260800190565b60208082526009908201526837b7363ca7bbb732b960b91b604082015260600190565b90815260200190565b9485526020850193909352604084019190915260608301521515608082015260a00190565b600080821280156001600160ff1b0384900385131615611520576115206117d1565b600160ff1b8390038412811615611539576115396117d1565b50500190565b60008219821115611552576115526117d1565b500190565b600082611566576115666117e7565b600160ff1b821460001984141615611580576115806117d1565b500590565b600082611594576115946117e7565b500490565b80825b60018086116115ab57506115d6565b8187048211156115bd576115bd6117d1565b808616156115ca57918102915b9490941c93800261159c565b94509492505050565b6000610f6960001984846000826115f857506001610f69565b8161160557506000610f69565b816001811461161b576002811461162557611652565b6001915050610f69565b60ff841115611636576116366117d1565b6001841b91508482111561164c5761164c6117d1565b50610f69565b5060208310610133831016604e8410600b8410161715611685575081810a83811115611680576116806117d1565b610f69565b6116928484846001611599565b8086048211156116a4576116a46117d1565b02949350505050565b60006001600160ff1b03818413828413808216868404861116156116d3576116d36117d1565b600160ff1b848712828116878305891216156116f1576116f16117d1565b85871292508782058712848416161561170c5761170c6117d1565b87850587128184161615611722576117226117d1565b505050929093029392505050565b600081600019048311821515161561174a5761174a6117d1565b500290565b60008083128015600160ff1b85018412161561176d5761176d6117d1565b6001600160ff1b0384018313811615611788576117886117d1565b50500390565b6000828210156117a0576117a06117d1565b500390565b60005b838110156117c05781810151838201526020016117a8565b838111156105405750506000910152565b634e487b7160e01b600052601160045260246000fd5b634e487b7160e01b600052601260045260246000fd5b80151581146106c657600080fdfea2646970667358221220c7f135658bcac8ce671d3e14f8546b88eef66985f96eea31b01722fe4ea687b064736f6c63430008000033a26469706673582212200a5d144329eed8559254314111fb12f9483886228fa9a43b0ffcb8c8e9d0d2f464736f6c63430008000033",
  "immutableReferences": {},
  "source": "// SPDX-License-Identifier: MIT\n\npragma solidity ^0.8.0;\n\n\n\nimport \"./MultiSig.sol\";\nimport \"@openzeppelin/contracts/token/ERC20/IERC20.sol\";\nimport \"@openzeppelin/contracts/token/ERC20/utils/SafeERC20.sol\";\nimport \"./BokkyPooBahsDateTimeLibrary.sol\";\n\n/**\n * @title Ownable\n * @dev The Ownable contract has an owner address, and provides basic authorization control\n * functions, this simplifies the implementation of \"user permissions\".\n */\ncontract Ownable {\n    address private _owner;\n    address private _pendingOwner;\n\n    event OwnershipTransferred(\n        address indexed previousOwner,\n        address indexed newOwner\n    );\n\n    /**\n     * @dev The Ownable constructor sets the original `owner` of the contract to the sender\n     * account.\n     */\n    constructor() {\n        _owner = msg.sender;\n    }\n\n    /**\n     * @dev Throws if called by any account other than the owner.\n     */\n    modifier onlyOwner() {\n        require(msg.sender == _owner, \"onlyOwner\");\n        _;\n    }\n\n    /**\n    * @dev Returns the address of the current owner.\n    */\n    function owner() public view returns (address) {\n        return _owner;\n    }\n\n    /**\n    * @dev Returns the address of the pending owner.\n    */\n    function pendingOwner() public view returns (address) {\n        return _pendingOwner;\n    }\n\n    /**\n     * @dev Allows the current owner to set the pendingOwner address.\n     * @param newOwner The address to transfer ownership to.\n     */\n    function transferOwnership(address newOwner) public onlyOwner {\n        _pendingOwner = newOwner;\n    }\n\n    /**\n     * @dev Allows the pendingOwner address to finalize the transfer.\n     */\n    function claimOwnership() public {\n        require(msg.sender == _pendingOwner, \"onlyPendingOwner\");\n        emit OwnershipTransferred(_owner, _pendingOwner);\n        _owner = _pendingOwner;\n        _pendingOwner = address(0);\n    }\n}\n\ncontract TokenVestingFactory is Ownable, MultiSig {\n\n\n    /**\n     * @dev Throws if called by any account other than the owner.\n     */\n    modifier onlyMultiSig() {\n        require(msg.sender == address(this), \"Only Multisig contract can run this method\");\n        _;\n    }\n\n    event TokenVestingCreated(address tokenVesting);\n\n    // enum VestingType { SeedInvestors, StrategicInvestors, Advisors, Team, All }\n\n    struct BeneficiaryIndex {\n        address tokenVesting;\n        uint256 vestingType;\n        bool isExist;\n        // uint256 index;\n    }\n\n    mapping(address => BeneficiaryIndex) private _beneficiaryIndex;\n    address[] private _beneficiaries;\n    address private _tokenAddr;\n    uint256 private _decimal;\n\n    constructor (address tokenAddr, uint256 decimal, address[] memory owners, uint256 threshold) {\n        require(tokenAddr != address(0), \"TokenVestingFactory: token address must not be zero\");\n\n        _tokenAddr = tokenAddr;\n        _decimal = decimal;\n        setupMultiSig(owners, threshold);\n    }\n\n    function create(address beneficiary, uint256 start, uint256 cliff, uint256 initialShare, uint256 periodicShare, bool revocable, uint256 vestingType) onlyOwner public {\n        require(!_beneficiaryIndex[beneficiary].isExist, \"TokenVestingFactory: benficiery exists\");\n        require(vestingType != 0, \"TokenVestingFactory: vestingType 0 is reserved\");\n\n        address tokenVesting = address(new TokenVesting(_tokenAddr, beneficiary, start, cliff, initialShare, periodicShare, _decimal, revocable));\n\n        _beneficiaries.push(beneficiary);\n        _beneficiaryIndex[beneficiary].tokenVesting = tokenVesting;\n        _beneficiaryIndex[beneficiary].vestingType = vestingType;\n        _beneficiaryIndex[beneficiary].isExist = true;\n\n        emit TokenVestingCreated(tokenVesting);\n    }\n\n    function initialize(address tokenVesting, address from, uint256 amount) public onlyOwner {\n        TokenVesting(tokenVesting).initialize(from, amount);\n    }\n\n    function update(address tokenVesting, uint256 start, uint256 cliff, uint256 initialShare, uint256 periodicShare, bool revocable) public onlyOwner {\n        TokenVesting(tokenVesting).update(start, cliff, initialShare, periodicShare, revocable);\n    }\n\n\n    function getBeneficiaries(uint256 vestingType) public view returns (address[] memory) {\n        uint256 j = 0;\n        address[] memory beneficiaries = new address[](_beneficiaries.length);\n\n        for (uint256 i = 0; i < _beneficiaries.length; i++) {\n            address beneficiary = _beneficiaries[i];\n            if (_beneficiaryIndex[beneficiary].vestingType == vestingType || vestingType == 0) {\n                beneficiaries[j] = beneficiary;\n                j++;\n            }\n        }\n        return beneficiaries;\n    }\n\n    function getVestingType(address beneficiary) public view returns (uint256) {\n        require(_beneficiaryIndex[beneficiary].isExist, \"TokenVestingFactory: benficiery does not exist\");\n        return _beneficiaryIndex[beneficiary].vestingType;\n    }\n\n    function getTokenVesting(address beneficiary) public view returns (address) {\n        require(_beneficiaryIndex[beneficiary].isExist, \"TokenVestingFactory: benficiery does not exist\");\n        return _beneficiaryIndex[beneficiary].tokenVesting;\n    }\n\n    function getTokenAddress() public view returns (address) {\n        return _tokenAddr;\n    }\n\n    function getDecimal() public view returns (uint256) {\n        return _decimal;\n    }\n\n    function revoke(address tokenVesting) public onlyMultiSig{\n        TokenVesting(tokenVesting).revoke(owner());\n    }\n\n}\n\n/**\n * @title TokenVesting\n * @dev A token holder contract that can release its token balance gradually like a\n * typical vesting scheme, with a cliff. Optionally revocable by the\n * owner.\n */\ncontract TokenVesting is Ownable {    \n    using SafeERC20 for IERC20;\n\n    event TokenVestingUpdated(uint256 start, uint256 cliff, uint256 initialShare, uint256 periodicShare, bool revocable);\n    event TokensReleased(address beneficiary, uint256 amount);\n    event TokenVestingRevoked(address refundAddress, uint256 amount);\n    event TokenVestingInitialized(address from, uint256 amount);\n\n    enum Status {NotInitialized, Initialized, Revoked}\n\n    // beneficiary of tokens after they are released\n    address private _beneficiary;\n\n    uint256 private _cliff;\n    uint256 private _start;\n    address private _tokenAddr;\n    uint256 private _initialShare;\n    uint256 private _periodicShare;\n    uint256 private _decimal;\n    uint256 private _released;\n\n    bool private _revocable;\n    Status private _status;\n\n    /**\n     * @dev Creates a vesting contract that vests its balance of any ERC20 token to the\n     * beneficiary, gradually in a linear fashion. By then all\n     * of the balance will have vested.\n     * @param beneficiary address of the beneficiary to whom vested tokens are transferred\n     * @param cliff duration in seconds of the cliff in which tokens will begin to vest\n     * @param start the time (as Unix time) at which point vesting starts\n     * @param revocable whether the vesting is revocable or not\n     */\n    constructor(\n        address tokenAddr,\n        address beneficiary,\n        uint256 start,\n        uint256 cliff,\n        uint256 initialShare,\n        uint256 periodicShare,\n        uint256 decimal,\n        bool revocable\n    )\n\n    {\n        require(beneficiary != address(0), \"TokenVesting: beneficiary address must not be zero\");\n\n        _tokenAddr = tokenAddr;\n        _beneficiary = beneficiary;\n        _revocable = revocable;\n        _cliff = start + cliff;\n        _start = start;\n        _initialShare = initialShare;\n        _periodicShare = periodicShare;\n        _decimal = decimal;\n        _status = Status.NotInitialized;\n\n    }\n\n    /**\n    * @return TokenVesting details.\n    */\n    function getDetails() public view returns (address, uint256, uint256, uint256, uint256, uint256, uint256, uint256, uint256, bool, uint256) {\n        uint256 _total = IERC20(_tokenAddr).balanceOf(address(this)) + _released;\n        uint256 _vested = _vestedAmount();\n        uint256 _releasable = _vestedAmount() - _released;\n        return (_beneficiary, _initialShare, _periodicShare, _start, _cliff, _total, _vested, _released, _releasable, _revocable, uint256(_status));\n    }\n\n\n    /**\n     * @return the initial share of the beneficiary.\n     */\n    function getInitialShare() public view returns (uint256) {\n        return _initialShare;\n    }\n\n\n    /**\n     * @return the periodic share of the beneficiary.\n     */\n    function getPeriodicShare() public view returns (uint256) {\n        return _periodicShare;\n    }\n\n\n    /**\n     * @return the beneficiary of the tokens.\n     */\n    function getBeneficiary() public view returns (address) {\n        return _beneficiary;\n    }\n\n    /**\n     * @return the start time of the token vesting.\n     */\n    function getStart() public view returns (uint256) {\n        return _start;\n    }\n\n    /**\n     * @return the cliff time of the token vesting.\n     */\n    function getCliff() public view returns (uint256) {\n        return _cliff;\n    }\n\n    /**\n     * @return the total amount of the token.\n     */\n    function getTotal() public view returns (uint256) {\n        return IERC20(_tokenAddr).balanceOf(address(this)) + _released;\n    }\n\n    /**\n     * @return the amount of the vested token.\n     */\n    function getVested() public view returns (uint256) {\n        return _vestedAmount();\n    }\n\n    /**\n     * @return the amount of the token released.\n     */\n    function getReleased() public view returns (uint256) {\n        return _released;\n    }\n\n    /**\n     * @return the amount that has already vested but hasn't been released yet.\n     */\n    function getReleasable() public view returns (uint256) {\n        return _vestedAmount() - _released;\n    }\n\n    /**\n     * @return true if the vesting is revocable.\n     */\n    function isRevocable() public view returns (bool) {\n        return _revocable;\n    }\n\n    /**\n     * @return true if the token is revoked.\n     */\n    function isRevoked() public view returns (bool) {\n        if (_status == Status.Revoked) {\n            return true;\n        } else {\n            return false;\n        }\n    }\n\n    /**\n    * @return status.\n    */\n    function getStatus() public view returns (uint256) {\n        return uint256(_status);\n    }\n\n    /**\n     * @notice change status to initialized.\n     */\n    function initialize(address from, uint256 amount) public onlyOwner {\n\n        require(_status == Status.NotInitialized, \"TokenVesting: status must be NotInitialized\");\n\n        _status = Status.Initialized;\n\n        emit TokenVestingInitialized(address(from), amount);\n\n        IERC20(_tokenAddr).safeTransferFrom(from, address(this), amount);\n\n    }\n\n    /**\n    * @notice update token vesting contract.\n    */\n    function update(\n        uint256 start,\n        uint256 cliff,\n        uint256 initialShare,\n        uint256 periodicShare,\n        bool revocable\n\n    ) public onlyOwner {\n\n        require(_status == Status.NotInitialized, \"TokenVesting: status must be NotInitialized\");\n\n        _start = start;\n        _cliff = start + cliff;\n        _initialShare = initialShare;\n        _periodicShare = periodicShare;\n        _revocable = revocable;\n\n        emit TokenVestingUpdated(_start, _cliff, _initialShare, _periodicShare, _revocable);\n\n    }\n\n    /**\n     * @notice Transfers vested tokens to beneficiary.\n     */\n    function release() public {\n        require(_status != Status.NotInitialized, \"TokenVesting: status is NotInitialized\");\n        uint256 unreleased = getReleasable();\n\n        require(unreleased > 0, \"TokenVesting: releasable amount is zero\");\n\n        _released = _released + unreleased;\n\n        emit TokensReleased(address(_beneficiary), unreleased);\n\n        IERC20(_tokenAddr).safeTransfer(_beneficiary, unreleased);\n    }\n\n    /**\n     * @notice Allows the owner to revoke the vesting. Tokens already vested\n     * remain in the contract, the rest are returned to the owner.\n     */\n    function revoke(address refundAddress) public onlyOwner {\n        require(_revocable, \"TokenVesting: contract is not revocable\");\n        require(_status != Status.Revoked, \"TokenVesting: status is Revoked\");\n\n        uint256 balance = IERC20(_tokenAddr).balanceOf(address(this));\n\n        uint256 unreleased = getReleasable();\n        uint256 refund = balance - unreleased;\n\n        _status = Status.Revoked;\n\n        emit TokenVestingRevoked(address(refundAddress), refund);\n        \n        IERC20(_tokenAddr).safeTransfer(refundAddress, refund);\n\n    }\n\n\n    /**\n     * @dev Calculates the amount that has already vested.\n     */\n    function _vestedAmount() private view returns (uint256) {\n        uint256 currentBalance = IERC20(_tokenAddr).balanceOf(address(this));\n        uint256 totalBalance = currentBalance + _released;\n        uint256 initialRelease = (totalBalance * _initialShare) / ((10 ** _decimal) * 100) ;\n\n        if (block.timestamp < _start)\n            return 0;\n\n        if (_status == Status.Revoked)\n            return totalBalance;\n\n        if (block.timestamp < _cliff)\n            return initialRelease;\n\n        uint256 monthlyRelease = (totalBalance * _periodicShare) / ((10 ** _decimal) * 100);\n        uint256 _months = BokkyPooBahsDateTimeLibrary.diffMonths(_cliff, block.timestamp);\n\n        if (initialRelease + (monthlyRelease * (_months + 1)) >= totalBalance) {\n            return totalBalance;\n        } else {\n            return initialRelease + (monthlyRelease * (_months + 1));\n        }\n    }\n}",
  "sourcePath": "E:/projects/amas/vesting/vesting-contract/contracts/TokenVesting.sol",
  "compiler": {
    "name": "solc",
    "version": "0.8.0+commit.c7dfd78e.Emscripten.clang"
  },
  "schemaVersion": "3.4.1",
  "updatedAt": "2021-08-03T01:23:55.990Z",
  "networkType": "ethereum",
  "devdoc": {
    "kind": "dev",
    "methods": {
      "approveHash(address,uint256,bytes)": {
        "details": "Marks a hash as approved. This can be used to validate a hash that is used by a signature.",
        "params": {
          "data": "Data payload.",
          "to": "Destination address.",
          "value": "Ether value."
        }
      },
      "checkSignatures(bytes32)": {
        "details": "Checks whether the signature provided is valid for the provided data, hash. Will revert otherwise.",
        "params": {
          "dataHash": "Hash of the data (could be either a message hash or transaction hash)"
        }
      },
      "claimOwnership()": {
        "details": "Allows the pendingOwner address to finalize the transfer."
      },
      "encodeTransactionData(address,uint256,bytes,uint256)": {
        "details": "Returns the bytes that are hashed to be signed by owners.",
        "params": {
          "data": "Data payload.",
          "nonce": "Transaction nonce.",
          "to": "Destination address.",
          "value": "Ether value."
        }
      },
      "execTransaction(address,uint256,bytes)": {
        "details": "Allows to execute a Safe transaction confirmed by required number of owners and then pays the account that submitted the transaction.      Note: The fees are always transferred, even if the user transaction fails.",
        "params": {
          "data": "Data payload of Safe transaction.",
          "to": "Destination address of Safe transaction.",
          "value": "Ether value of Safe transaction."
        }
      },
      "getTransactionHash(address,uint256,bytes,uint256)": {
        "details": "Returns hash to be signed by owners.",
        "params": {
          "data": "Data payload.",
          "to": "Destination address.",
          "value": "Ether value."
        }
      },
      "owner()": {
        "details": "Returns the address of the current owner."
      },
      "pendingOwner()": {
        "details": "Returns the address of the pending owner."
      },
      "transferOwnership(address)": {
        "details": "Allows the current owner to set the pendingOwner address.",
        "params": {
          "newOwner": "The address to transfer ownership to."
        }
      }
    },
    "version": 1
  },
  "userdoc": {
    "kind": "user",
    "methods": {},
    "version": 1
  }
}