{
  "contractName": "TokenVestingFactory",
  "abi": [
    {
      "inputs": [
        {
          "internalType": "address",
          "name": "tokenAddr",
          "type": "address"
        },
        {
          "internalType": "uint256",
          "name": "decimal",
          "type": "uint256"
        }
      ],
      "stateMutability": "nonpayable",
      "type": "constructor"
    },
    {
      "anonymous": false,
      "inputs": [
        {
          "indexed": true,
          "internalType": "address",
          "name": "previousOwner",
          "type": "address"
        },
        {
          "indexed": true,
          "internalType": "address",
          "name": "newOwner",
          "type": "address"
        }
      ],
      "name": "OwnershipTransferred",
      "type": "event"
    },
    {
      "anonymous": false,
      "inputs": [
        {
          "indexed": false,
          "internalType": "address",
          "name": "tokenVesting",
          "type": "address"
        }
      ],
      "name": "TokenVestingCreated",
      "type": "event"
    },
    {
      "inputs": [],
      "name": "claimOwnership",
      "outputs": [],
      "stateMutability": "nonpayable",
      "type": "function"
    },
    {
      "inputs": [],
      "name": "owner",
      "outputs": [
        {
          "internalType": "address",
          "name": "",
          "type": "address"
        }
      ],
      "stateMutability": "view",
      "type": "function",
      "constant": true
    },
    {
      "inputs": [],
      "name": "pendingOwner",
      "outputs": [
        {
          "internalType": "address",
          "name": "",
          "type": "address"
        }
      ],
      "stateMutability": "view",
      "type": "function",
      "constant": true
    },
    {
      "inputs": [
        {
          "internalType": "address",
          "name": "newOwner",
          "type": "address"
        }
      ],
      "name": "transferOwnership",
      "outputs": [],
      "stateMutability": "nonpayable",
      "type": "function"
    },
    {
      "inputs": [
        {
          "internalType": "address",
          "name": "beneficiary",
          "type": "address"
        },
        {
          "internalType": "uint256",
          "name": "start",
          "type": "uint256"
        },
        {
          "internalType": "uint256",
          "name": "cliff",
          "type": "uint256"
        },
        {
          "internalType": "uint256",
          "name": "initialShare",
          "type": "uint256"
        },
        {
          "internalType": "uint256",
          "name": "periodicShare",
          "type": "uint256"
        },
        {
          "internalType": "bool",
          "name": "revocable",
          "type": "bool"
        },
        {
          "internalType": "uint256",
          "name": "vestingType",
          "type": "uint256"
        }
      ],
      "name": "create",
      "outputs": [],
      "stateMutability": "nonpayable",
      "type": "function"
    },
    {
      "inputs": [
        {
          "internalType": "address",
          "name": "tokenVesting",
          "type": "address"
        },
        {
          "internalType": "address",
          "name": "from",
          "type": "address"
        },
        {
          "internalType": "uint256",
          "name": "amount",
          "type": "uint256"
        }
      ],
      "name": "initialize",
      "outputs": [],
      "stateMutability": "nonpayable",
      "type": "function"
    },
    {
      "inputs": [
        {
          "internalType": "address",
          "name": "tokenVesting",
          "type": "address"
        },
        {
          "internalType": "uint256",
          "name": "start",
          "type": "uint256"
        },
        {
          "internalType": "uint256",
          "name": "cliff",
          "type": "uint256"
        },
        {
          "internalType": "uint256",
          "name": "initialShare",
          "type": "uint256"
        },
        {
          "internalType": "uint256",
          "name": "periodicShare",
          "type": "uint256"
        },
        {
          "internalType": "bool",
          "name": "revocable",
          "type": "bool"
        }
      ],
      "name": "update",
      "outputs": [],
      "stateMutability": "nonpayable",
      "type": "function"
    },
    {
      "inputs": [
        {
          "internalType": "address",
          "name": "tokenVesting",
          "type": "address"
        }
      ],
      "name": "revoke",
      "outputs": [],
      "stateMutability": "nonpayable",
      "type": "function"
    },
    {
      "inputs": [
        {
          "internalType": "uint256",
          "name": "vestingType",
          "type": "uint256"
        }
      ],
      "name": "getBeneficiaries",
      "outputs": [
        {
          "internalType": "address[]",
          "name": "",
          "type": "address[]"
        }
      ],
      "stateMutability": "view",
      "type": "function",
      "constant": true
    },
    {
      "inputs": [
        {
          "internalType": "address",
          "name": "beneficiary",
          "type": "address"
        }
      ],
      "name": "getVestingType",
      "outputs": [
        {
          "internalType": "uint256",
          "name": "",
          "type": "uint256"
        }
      ],
      "stateMutability": "view",
      "type": "function",
      "constant": true
    },
    {
      "inputs": [
        {
          "internalType": "address",
          "name": "beneficiary",
          "type": "address"
        }
      ],
      "name": "getTokenVesting",
      "outputs": [
        {
          "internalType": "address",
          "name": "",
          "type": "address"
        }
      ],
      "stateMutability": "view",
      "type": "function",
      "constant": true
    },
    {
      "inputs": [],
      "name": "getTokenAddress",
      "outputs": [
        {
          "internalType": "address",
          "name": "",
          "type": "address"
        }
      ],
      "stateMutability": "view",
      "type": "function",
      "constant": true
    },
    {
      "inputs": [],
      "name": "getDecimal",
      "outputs": [
        {
          "internalType": "uint256",
          "name": "",
          "type": "uint256"
        }
      ],
      "stateMutability": "view",
      "type": "function",
      "constant": true
    }
  ],
  "bytecode": "0x60806040523480156200001157600080fd5b5060405162004cb138038062004cb18339818101604052810190620000379190620000f5565b336000806101000a81548173ffffffffffffffffffffffffffffffffffffffff021916908373ffffffffffffffffffffffffffffffffffffffff16021790555081600460006101000a81548173ffffffffffffffffffffffffffffffffffffffff021916908373ffffffffffffffffffffffffffffffffffffffff160217905550806005819055505050620001a8565b600081519050620000d88162000174565b92915050565b600081519050620000ef816200018e565b92915050565b600080604083850312156200010957600080fd5b60006200011985828601620000c7565b92505060206200012c85828601620000de565b9150509250929050565b600062000143826200014a565b9050919050565b600073ffffffffffffffffffffffffffffffffffffffff82169050919050565b6000819050919050565b6200017f8162000136565b81146200018b57600080fd5b50565b62000199816200016a565b8114620001a557600080fd5b50565b614af980620001b86000396000f3fe60806040523480156200001157600080fd5b5060043610620000ff576000357c0100000000000000000000000000000000000000000000000000000000900480638da5cb5b11620000b6578063d4f77ab1116200008c578063d4f77ab11462000242578063e30c39781462000262578063ee85f5fe1462000284578063f2fde38b14620002ba57620000ff565b80638da5cb5b14620001ca578063926b4edf14620001ec578063b7b2c0d7146200020c57620000ff565b806310fe9ae814620001045780631794bb3c146200012657806334ce10c414620001465780634e71e0c8146200016857806374a8f1031462000174578063783804d91462000194575b600080fd5b6200010e620002da565b6040516200011d9190620015c0565b60405180910390f35b6200014460048036038101906200013e919062001177565b62000304565b005b6200015062000427565b6040516200015f919062001766565b60405180910390f35b6200017262000431565b005b6200019260048036038101906200018c91906200114b565b62000606565b005b620001b26004803603810190620001ac919062001310565b6200072e565b604051620001c1919062001698565b60405180910390f35b620001d462000925565b604051620001e39190620015c0565b60405180910390f35b6200020a600480360381019062000204919062001263565b6200094e565b005b6200022a60048036038101906200022491906200114b565b62000cf1565b604051620002399190620015c0565b60405180910390f35b6200026060048036038101906200025a9190620011cd565b62000def565b005b6200026c62000f1b565b6040516200027b9190620015c0565b60405180910390f35b620002a260048036038101906200029c91906200114b565b62000f45565b604051620002b1919062001766565b60405180910390f35b620002d86004803603810190620002d291906200114b565b62001023565b005b6000600460009054906101000a900473ffffffffffffffffffffffffffffffffffffffff16905090565b60008054906101000a900473ffffffffffffffffffffffffffffffffffffffff1673ffffffffffffffffffffffffffffffffffffffff163373ffffffffffffffffffffffffffffffffffffffff161462000395576040517f08c379a00000000000000000000000000000000000000000000000000000000081526004016200038c9062001744565b60405180910390fd5b8273ffffffffffffffffffffffffffffffffffffffff1663cd6dc68783836040518363ffffffff167c0100000000000000000000000000000000000000000000000000000000028152600401620003ee9291906200166b565b600060405180830381600087803b1580156200040957600080fd5b505af11580156200041e573d6000803e3d6000fd5b50505050505050565b6000600554905090565b600160009054906101000a900473ffffffffffffffffffffffffffffffffffffffff1673ffffffffffffffffffffffffffffffffffffffff163373ffffffffffffffffffffffffffffffffffffffff1614620004c4576040517f08c379a0000000000000000000000000000000000000000000000000000000008152600401620004bb9062001700565b60405180910390fd5b600160009054906101000a900473ffffffffffffffffffffffffffffffffffffffff1673ffffffffffffffffffffffffffffffffffffffff1660008054906101000a900473ffffffffffffffffffffffffffffffffffffffff1673ffffffffffffffffffffffffffffffffffffffff167f8be0079c531659141344cd1fd0a4f28419497f9722a3daafe3b4186f6b6457e060405160405180910390a3600160009054906101000a900473ffffffffffffffffffffffffffffffffffffffff166000806101000a81548173ffffffffffffffffffffffffffffffffffffffff021916908373ffffffffffffffffffffffffffffffffffffffff1602179055506000600160006101000a81548173ffffffffffffffffffffffffffffffffffffffff021916908373ffffffffffffffffffffffffffffffffffffffff160217905550565b60008054906101000a900473ffffffffffffffffffffffffffffffffffffffff1673ffffffffffffffffffffffffffffffffffffffff163373ffffffffffffffffffffffffffffffffffffffff161462000697576040517f08c379a00000000000000000000000000000000000000000000000000000000081526004016200068e9062001744565b60405180910390fd5b8073ffffffffffffffffffffffffffffffffffffffff166374a8f103620006bd62000925565b6040518263ffffffff167c0100000000000000000000000000000000000000000000000000000000028152600401620006f79190620015c0565b600060405180830381600087803b1580156200071257600080fd5b505af115801562000727573d6000803e3d6000fd5b5050505050565b606060008060038054905067ffffffffffffffff81111562000779577f4e487b7100000000000000000000000000000000000000000000000000000000600052604160045260246000fd5b604051908082528060200260200182016040528015620007a85781602001602082028036833780820191505090505b50905060005b6003805490508110156200091a57600060038281548110620007f9577f4e487b7100000000000000000000000000000000000000000000000000000000600052603260045260246000fd5b9060005260206000200160009054906101000a900473ffffffffffffffffffffffffffffffffffffffff16905085600260008373ffffffffffffffffffffffffffffffffffffffff1673ffffffffffffffffffffffffffffffffffffffff168152602001908152602001600020600101541480620008775750600086145b15620009035780838581518110620008b8577f4e487b7100000000000000000000000000000000000000000000000000000000600052603260045260246000fd5b602002602001019073ffffffffffffffffffffffffffffffffffffffff16908173ffffffffffffffffffffffffffffffffffffffff16815250508380620008ff9062001874565b9450505b508080620009119062001874565b915050620007ae565b508092505050919050565b60008060009054906101000a900473ffffffffffffffffffffffffffffffffffffffff16905090565b60008054906101000a900473ffffffffffffffffffffffffffffffffffffffff1673ffffffffffffffffffffffffffffffffffffffff163373ffffffffffffffffffffffffffffffffffffffff1614620009df576040517f08c379a0000000000000000000000000000000000000000000000000000000008152600401620009d69062001744565b60405180910390fd5b600260008873ffffffffffffffffffffffffffffffffffffffff1673ffffffffffffffffffffffffffffffffffffffff16815260200190815260200160002060020160009054906101000a900460ff161562000a72576040517f08c379a000000000000000000000000000000000000000000000000000000000815260040162000a699062001722565b60405180910390fd5b600081141562000ab9576040517f08c379a000000000000000000000000000000000000000000000000000000000815260040162000ab090620016de565b60405180910390fd5b6000600460009054906101000a900473ffffffffffffffffffffffffffffffffffffffff1688888888886005548960405162000af590620010f8565b62000b08989796959493929190620015dd565b604051809103906000f08015801562000b25573d6000803e3d6000fd5b5090506003889080600181540180825580915050600190039060005260206000200160009091909190916101000a81548173ffffffffffffffffffffffffffffffffffffffff021916908373ffffffffffffffffffffffffffffffffffffffff16021790555080600260008a73ffffffffffffffffffffffffffffffffffffffff1673ffffffffffffffffffffffffffffffffffffffff16815260200190815260200160002060000160006101000a81548173ffffffffffffffffffffffffffffffffffffffff021916908373ffffffffffffffffffffffffffffffffffffffff16021790555081600260008a73ffffffffffffffffffffffffffffffffffffffff1673ffffffffffffffffffffffffffffffffffffffff168152602001908152602001600020600101819055506001600260008a73ffffffffffffffffffffffffffffffffffffffff1673ffffffffffffffffffffffffffffffffffffffff16815260200190815260200160002060020160006101000a81548160ff0219169083151502179055507fd8e638d9ae6f6e4f3267bd58084c383fcc9044b5a1867e9e449098343ae63e168160405162000cdf9190620015c0565b60405180910390a15050505050505050565b6000600260008373ffffffffffffffffffffffffffffffffffffffff1673ffffffffffffffffffffffffffffffffffffffff16815260200190815260200160002060020160009054906101000a900460ff1662000d85576040517f08c379a000000000000000000000000000000000000000000000000000000000815260040162000d7c90620016bc565b60405180910390fd5b600260008373ffffffffffffffffffffffffffffffffffffffff1673ffffffffffffffffffffffffffffffffffffffff16815260200190815260200160002060000160009054906101000a900473ffffffffffffffffffffffffffffffffffffffff169050919050565b60008054906101000a900473ffffffffffffffffffffffffffffffffffffffff1673ffffffffffffffffffffffffffffffffffffffff163373ffffffffffffffffffffffffffffffffffffffff161462000e80576040517f08c379a000000000000000000000000000000000000000000000000000000000815260040162000e779062001744565b60405180910390fd5b8573ffffffffffffffffffffffffffffffffffffffff1663ab68098086868686866040518663ffffffff167c010000000000000000000000000000000000000000000000000000000002815260040162000edf95949392919062001783565b600060405180830381600087803b15801562000efa57600080fd5b505af115801562000f0f573d6000803e3d6000fd5b50505050505050505050565b6000600160009054906101000a900473ffffffffffffffffffffffffffffffffffffffff16905090565b6000600260008373ffffffffffffffffffffffffffffffffffffffff1673ffffffffffffffffffffffffffffffffffffffff16815260200190815260200160002060020160009054906101000a900460ff1662000fd9576040517f08c379a000000000000000000000000000000000000000000000000000000000815260040162000fd090620016bc565b60405180910390fd5b600260008373ffffffffffffffffffffffffffffffffffffffff1673ffffffffffffffffffffffffffffffffffffffff168152602001908152602001600020600101549050919050565b60008054906101000a900473ffffffffffffffffffffffffffffffffffffffff1673ffffffffffffffffffffffffffffffffffffffff163373ffffffffffffffffffffffffffffffffffffffff1614620010b4576040517f08c379a0000000000000000000000000000000000000000000000000000000008152600401620010ab9062001744565b60405180910390fd5b80600160006101000a81548173ffffffffffffffffffffffffffffffffffffffff021916908373ffffffffffffffffffffffffffffffffffffffff16021790555050565b613184806200194083390190565b6000813590506200111781620018f1565b92915050565b6000813590506200112e816200190b565b92915050565b600081359050620011458162001925565b92915050565b6000602082840312156200115e57600080fd5b60006200116e8482850162001106565b91505092915050565b6000806000606084860312156200118d57600080fd5b60006200119d8682870162001106565b9350506020620011b08682870162001106565b9250506040620011c38682870162001134565b9150509250925092565b60008060008060008060c08789031215620011e757600080fd5b6000620011f789828a0162001106565b96505060206200120a89828a0162001134565b95505060406200121d89828a0162001134565b94505060606200123089828a0162001134565b93505060806200124389828a0162001134565b92505060a06200125689828a016200111d565b9150509295509295509295565b600080600080600080600060e0888a0312156200127f57600080fd5b60006200128f8a828b0162001106565b9750506020620012a28a828b0162001134565b9650506040620012b58a828b0162001134565b9550506060620012c88a828b0162001134565b9450506080620012db8a828b0162001134565b93505060a0620012ee8a828b016200111d565b92505060c0620013018a828b0162001134565b91505092959891949750929550565b6000602082840312156200132357600080fd5b6000620013338482850162001134565b91505092915050565b60006200134a838362001356565b60208301905092915050565b62001361816200182a565b82525050565b62001372816200182a565b82525050565b60006200138582620017f0565b62001391818562001808565b93506200139e83620017e0565b8060005b83811015620013d5578151620013b988826200133c565b9750620013c683620017fb565b925050600181019050620013a2565b5085935050505092915050565b620013ed816200183e565b82525050565b600062001402602e8362001819565b91507f546f6b656e56657374696e67466163746f72793a2062656e666963696572792060008301527f646f6573206e6f742065786973740000000000000000000000000000000000006020830152604082019050919050565b60006200146a602e8362001819565b91507f546f6b656e56657374696e67466163746f72793a2076657374696e675479706560008301527f20302069732072657365727665640000000000000000000000000000000000006020830152604082019050919050565b6000620014d260108362001819565b91507f6f6e6c7950656e64696e674f776e6572000000000000000000000000000000006000830152602082019050919050565b60006200151460268362001819565b91507f546f6b656e56657374696e67466163746f72793a2062656e666963696572792060008301527f65786973747300000000000000000000000000000000000000000000000000006020830152604082019050919050565b60006200157c60098362001819565b91507f6f6e6c794f776e657200000000000000000000000000000000000000000000006000830152602082019050919050565b620015ba816200186a565b82525050565b6000602082019050620015d7600083018462001367565b92915050565b600061010082019050620015f5600083018b62001367565b62001604602083018a62001367565b620016136040830189620015af565b620016226060830188620015af565b620016316080830187620015af565b6200164060a0830186620015af565b6200164f60c0830185620015af565b6200165e60e0830184620013e2565b9998505050505050505050565b600060408201905062001682600083018562001367565b620016916020830184620015af565b9392505050565b60006020820190508181036000830152620016b4818462001378565b905092915050565b60006020820190508181036000830152620016d781620013f3565b9050919050565b60006020820190508181036000830152620016f9816200145b565b9050919050565b600060208201905081810360008301526200171b81620014c3565b9050919050565b600060208201905081810360008301526200173d8162001505565b9050919050565b600060208201905081810360008301526200175f816200156d565b9050919050565b60006020820190506200177d6000830184620015af565b92915050565b600060a0820190506200179a6000830188620015af565b620017a96020830187620015af565b620017b86040830186620015af565b620017c76060830185620015af565b620017d66080830184620013e2565b9695505050505050565b6000819050602082019050919050565b600081519050919050565b6000602082019050919050565b600082825260208201905092915050565b600082825260208201905092915050565b600062001837826200184a565b9050919050565b60008115159050919050565b600073ffffffffffffffffffffffffffffffffffffffff82169050919050565b6000819050919050565b600062001881826200186a565b91507fffffffffffffffffffffffffffffffffffffffffffffffffffffffffffffffff821415620018b757620018b6620018c2565b5b600182019050919050565b7f4e487b7100000000000000000000000000000000000000000000000000000000600052601160045260246000fd5b620018fc816200182a565b81146200190857600080fd5b50565b62001916816200183e565b81146200192257600080fd5b50565b62001930816200186a565b81146200193c57600080fd5b5056fe60806040523480156200001157600080fd5b506040516200318438038062003184833981810160405281019062000037919062000288565b336000806101000a81548173ffffffffffffffffffffffffffffffffffffffff021916908373ffffffffffffffffffffffffffffffffffffffff160217905550600073ffffffffffffffffffffffffffffffffffffffff168773ffffffffffffffffffffffffffffffffffffffff161415620000ea576040517f08c379a0000000000000000000000000000000000000000000000000000000008152600401620000e190620003b3565b60405180910390fd5b87600560006101000a81548173ffffffffffffffffffffffffffffffffffffffff021916908373ffffffffffffffffffffffffffffffffffffffff16021790555086600260006101000a81548173ffffffffffffffffffffffffffffffffffffffff021916908373ffffffffffffffffffffffffffffffffffffffff16021790555080600a60006101000a81548160ff021916908315150217905550620001a985876200022b640100000000026200140e179091906401000000009004565b600381905550856004819055508360068190555082600781905550816008819055506000600a60016101000a81548160ff0219169083600281111562000218577f4e487b7100000000000000000000000000000000000000000000000000000000600052602160045260246000fd5b021790555050505050505050506200050a565b600081836200023b9190620003e6565b905092915050565b6000815190506200025481620004bc565b92915050565b6000815190506200026b81620004d6565b92915050565b6000815190506200028281620004f0565b92915050565b600080600080600080600080610100898b031215620002a657600080fd5b6000620002b68b828c0162000243565b9850506020620002c98b828c0162000243565b9750506040620002dc8b828c0162000271565b9650506060620002ef8b828c0162000271565b9550506080620003028b828c0162000271565b94505060a0620003158b828c0162000271565b93505060c0620003288b828c0162000271565b92505060e06200033b8b828c016200025a565b9150509295985092959890939650565b60006200035a603283620003d5565b91507f546f6b656e56657374696e673a2062656e65666963696172792061646472657360008301527f73206d757374206e6f74206265207a65726f00000000000000000000000000006020830152604082019050919050565b60006020820190508181036000830152620003ce816200034b565b9050919050565b600082825260208201905092915050565b6000620003f38262000483565b9150620004008362000483565b9250827fffffffffffffffffffffffffffffffffffffffffffffffffffffffffffffffff038211156200043857620004376200048d565b5b828201905092915050565b6000620004508262000463565b9050919050565b60008115159050919050565b600073ffffffffffffffffffffffffffffffffffffffff82169050919050565b6000819050919050565b7f4e487b7100000000000000000000000000000000000000000000000000000000600052601160045260246000fd5b620004c78162000443565b8114620004d357600080fd5b50565b620004e18162000457565b8114620004ed57600080fd5b50565b620004fb8162000483565b81146200050757600080fd5b50565b612c6a806200051a6000396000f3fe608060405234801561001057600080fd5b5060043610610154576000357c010000000000000000000000000000000000000000000000000000000090048063775a25e3116100d5578063c5292c6711610099578063c5292c67146102ef578063cd6dc6871461030d578063e30c397814610329578063f2fde38b14610347578063f47a6e8414610363578063fbbf93a01461038157610154565b8063775a25e31461026f5780637a140b8b1461028d57806386d1a69f146102ab5780638da5cb5b146102b5578063ab680980146102d357610154565b80634e71e0c81161011c5780634e71e0c8146101ef578063565a2e2c146101f95780635ffd1bad1461021757806363260e361461023557806374a8f1031461025357610154565b80630bfdc519146101595780630d60e5531461017757806321617565146101955780632bc9ed02146101b35780634e69d560146101d1575b600080fd5b6101616103a9565b60405161016e9190612572565b60405180910390f35b61017f6103b3565b60405161018c9190612572565b60405180910390f35b61019d6103c2565b6040516101aa9190612572565b60405180910390f35b6101bb6103e5565b6040516101c891906123f5565b60405180910390f35b6101d961047f565b6040516101e69190612572565b60405180910390f35b6101f76104ce565b005b6102016106a0565b60405161020e91906122cf565b60405180910390f35b61021f6106ca565b60405161022c91906123f5565b60405180910390f35b61023d6106e1565b60405161024a9190612572565b60405180910390f35b61026d60048036038101906102689190611d8f565b6106eb565b005b610277610a55565b6040516102849190612572565b60405180910390f35b610295610b37565b6040516102a29190612572565b60405180910390f35b6102b3610b41565b005b6102bd610d3b565b6040516102ca91906122cf565b60405180910390f35b6102ed60048036038101906102e89190611e46565b610d64565b005b6102f7610f03565b6040516103049190612572565b60405180910390f35b61032760048036038101906103229190611db8565b610f0d565b005b61033161113a565b60405161033e91906122cf565b60405180910390f35b610361600480360381019061035c9190611d8f565b611164565b005b61036b611236565b6040516103789190612572565b60405180910390f35b610389611240565b6040516103a09b9a9998979695949392919061234a565b60405180910390f35b6000600654905090565b60006103bd611424565b905090565b60006103e06009546103d2611424565b6116e790919063ffffffff16565b905090565b6000600280811115610420577f4e487b7100000000000000000000000000000000000000000000000000000000600052602160045260246000fd5b600a60019054906101000a900460ff166002811115610468577f4e487b7100000000000000000000000000000000000000000000000000000000600052602160045260246000fd5b1415610477576001905061047c565b600090505b90565b6000600a60019054906101000a900460ff1660028111156104c9577f4e487b7100000000000000000000000000000000000000000000000000000000600052602160045260246000fd5b905090565b600160009054906101000a900473ffffffffffffffffffffffffffffffffffffffff1673ffffffffffffffffffffffffffffffffffffffff163373ffffffffffffffffffffffffffffffffffffffff161461055e576040517f08c379a0000000000000000000000000000000000000000000000000000000008152600401610555906124b2565b60405180910390fd5b600160009054906101000a900473ffffffffffffffffffffffffffffffffffffffff1673ffffffffffffffffffffffffffffffffffffffff1660008054906101000a900473ffffffffffffffffffffffffffffffffffffffff1673ffffffffffffffffffffffffffffffffffffffff167f8be0079c531659141344cd1fd0a4f28419497f9722a3daafe3b4186f6b6457e060405160405180910390a3600160009054906101000a900473ffffffffffffffffffffffffffffffffffffffff166000806101000a81548173ffffffffffffffffffffffffffffffffffffffff021916908373ffffffffffffffffffffffffffffffffffffffff1602179055506000600160006101000a81548173ffffffffffffffffffffffffffffffffffffffff021916908373ffffffffffffffffffffffffffffffffffffffff160217905550565b6000600260009054906101000a900473ffffffffffffffffffffffffffffffffffffffff16905090565b6000600a60009054906101000a900460ff16905090565b6000600354905090565b60008054906101000a900473ffffffffffffffffffffffffffffffffffffffff1673ffffffffffffffffffffffffffffffffffffffff163373ffffffffffffffffffffffffffffffffffffffff1614610779576040517f08c379a000000000000000000000000000000000000000000000000000000000815260040161077090612552565b60405180910390fd5b600a60009054906101000a900460ff166107c8576040517f08c379a00000000000000000000000000000000000000000000000000000000081526004016107bf90612432565b60405180910390fd5b600280811115610801577f4e487b7100000000000000000000000000000000000000000000000000000000600052602160045260246000fd5b600a60019054906101000a900460ff166002811115610849577f4e487b7100000000000000000000000000000000000000000000000000000000600052602160045260246000fd5b141561088a576040517f08c379a000000000000000000000000000000000000000000000000000000000815260040161088190612452565b60405180910390fd5b6000600560009054906101000a900473ffffffffffffffffffffffffffffffffffffffff1673ffffffffffffffffffffffffffffffffffffffff166370a08231306040518263ffffffff167c010000000000000000000000000000000000000000000000000000000002815260040161090391906122cf565b60206040518083038186803b15801561091b57600080fd5b505afa15801561092f573d6000803e3d6000fd5b505050506040513d601f19601f820116820180604052508101906109539190611e1d565b9050600061095f6103c2565b9050600061097682846116e790919063ffffffff16565b90506002600a60016101000a81548160ff021916908360028111156109c4577f4e487b7100000000000000000000000000000000000000000000000000000000600052602160045260246000fd5b0217905550610a168482600560009054906101000a900473ffffffffffffffffffffffffffffffffffffffff1673ffffffffffffffffffffffffffffffffffffffff166116fd9092919063ffffffff16565b7f8c82cd5dc1ce07aad22dcf75d3642f20cad51b7d13b907e638e5444bdad41d9d8482604051610a47929190612321565b60405180910390a150505050565b6000610b32600954600560009054906101000a900473ffffffffffffffffffffffffffffffffffffffff1673ffffffffffffffffffffffffffffffffffffffff166370a08231306040518263ffffffff167c0100000000000000000000000000000000000000000000000000000000028152600401610ad491906122cf565b60206040518083038186803b158015610aec57600080fd5b505afa158015610b00573d6000803e3d6000fd5b505050506040513d601f19601f82011682018060405250810190610b249190611e1d565b61140e90919063ffffffff16565b905090565b6000600754905090565b60006002811115610b7b577f4e487b7100000000000000000000000000000000000000000000000000000000600052602160045260246000fd5b600a60019054906101000a900460ff166002811115610bc3577f4e487b7100000000000000000000000000000000000000000000000000000000600052602160045260246000fd5b1415610c04576040517f08c379a0000000000000000000000000000000000000000000000000000000008152600401610bfb90612532565b60405180910390fd5b6000610c0e6103c2565b905060008111610c53576040517f08c379a0000000000000000000000000000000000000000000000000000000008152600401610c4a906124d2565b60405180910390fd5b610c688160095461140e90919063ffffffff16565b600981905550610cdd600260009054906101000a900473ffffffffffffffffffffffffffffffffffffffff1682600560009054906101000a900473ffffffffffffffffffffffffffffffffffffffff1673ffffffffffffffffffffffffffffffffffffffff166116fd9092919063ffffffff16565b7fc7798891864187665ac6dd119286e44ec13f014527aeeb2b8eb3fd413df93179600260009054906101000a900473ffffffffffffffffffffffffffffffffffffffff1682604051610d30929190612321565b60405180910390a150565b60008060009054906101000a900473ffffffffffffffffffffffffffffffffffffffff16905090565b60008054906101000a900473ffffffffffffffffffffffffffffffffffffffff1673ffffffffffffffffffffffffffffffffffffffff163373ffffffffffffffffffffffffffffffffffffffff1614610df2576040517f08c379a0000000000000000000000000000000000000000000000000000000008152600401610de990612552565b60405180910390fd5b60006002811115610e2c577f4e487b7100000000000000000000000000000000000000000000000000000000600052602160045260246000fd5b600a60019054906101000a900460ff166002811115610e74577f4e487b7100000000000000000000000000000000000000000000000000000000600052602160045260246000fd5b14610eb4576040517f08c379a0000000000000000000000000000000000000000000000000000000008152600401610eab90612492565b60405180910390fd5b84600481905550610ece848661140e90919063ffffffff16565b600381905550826006819055508160078190555080600a60006101000a81548160ff0219169083151502179055505050505050565b6000600454905090565b60008054906101000a900473ffffffffffffffffffffffffffffffffffffffff1673ffffffffffffffffffffffffffffffffffffffff163373ffffffffffffffffffffffffffffffffffffffff1614610f9b576040517f08c379a0000000000000000000000000000000000000000000000000000000008152600401610f9290612552565b60405180910390fd5b60006002811115610fd5577f4e487b7100000000000000000000000000000000000000000000000000000000600052602160045260246000fd5b600a60019054906101000a900460ff16600281111561101d577f4e487b7100000000000000000000000000000000000000000000000000000000600052602160045260246000fd5b1461105d576040517f08c379a000000000000000000000000000000000000000000000000000000000815260040161105490612492565b60405180910390fd5b6001600a60016101000a81548160ff021916908360028111156110a9577f4e487b7100000000000000000000000000000000000000000000000000000000600052602160045260246000fd5b02179055506110fd823083600560009054906101000a900473ffffffffffffffffffffffffffffffffffffffff1673ffffffffffffffffffffffffffffffffffffffff1661179f909392919063ffffffff16565b7f3b9c044a0268e30cb1d82d3baf306abfeee1d6e5cf84911b9b78af45da3384ae828260405161112e929190612321565b60405180910390a15050565b6000600160009054906101000a900473ffffffffffffffffffffffffffffffffffffffff16905090565b60008054906101000a900473ffffffffffffffffffffffffffffffffffffffff1673ffffffffffffffffffffffffffffffffffffffff163373ffffffffffffffffffffffffffffffffffffffff16146111f2576040517f08c379a00000000000000000000000000000000000000000000000000000000081526004016111e990612552565b60405180910390fd5b80600160006101000a81548173ffffffffffffffffffffffffffffffffffffffff021916908373ffffffffffffffffffffffffffffffffffffffff16021790555050565b6000600954905090565b60008060008060008060008060008060008061132d600954600560009054906101000a900473ffffffffffffffffffffffffffffffffffffffff1673ffffffffffffffffffffffffffffffffffffffff166370a08231306040518263ffffffff167c01000000000000000000000000000000000000000000000000000000000281526004016112cf91906122cf565b60206040518083038186803b1580156112e757600080fd5b505afa1580156112fb573d6000803e3d6000fd5b505050506040513d601f19601f8201168201806040525081019061131f9190611e1d565b61140e90919063ffffffff16565b90506000611339611424565b9050600061135960095461134b611424565b6116e790919063ffffffff16565b9050600260009054906101000a900473ffffffffffffffffffffffffffffffffffffffff16600654600754600454600354878760095488600a60009054906101000a900460ff16600a60019054906101000a900460ff1660028111156113e8577f4e487b7100000000000000000000000000000000000000000000000000000000600052602160045260246000fd5b9d509d509d509d509d509d509d509d509d509d509d50505050909192939495969798999a565b6000818361141c9190612653565b905092915050565b600080600560009054906101000a900473ffffffffffffffffffffffffffffffffffffffff1673ffffffffffffffffffffffffffffffffffffffff166370a08231306040518263ffffffff167c010000000000000000000000000000000000000000000000000000000002815260040161149e91906122cf565b60206040518083038186803b1580156114b657600080fd5b505afa1580156114ca573d6000803e3d6000fd5b505050506040513d601f19601f820116820180604052508101906114ee9190611e1d565b905060006115076009548361140e90919063ffffffff16565b905060006115536064611545600854600a6115229190612797565b6115376006548761184490919063ffffffff16565b61185a90919063ffffffff16565b61185a90919063ffffffff16565b905060045442101561156b57600093505050506116e4565b600354421015611580578093505050506116e4565b60006115ca60646115bc600854600a6115999190612797565b6115ae6007548861184490919063ffffffff16565b61185a90919063ffffffff16565b61185a90919063ffffffff16565b905060006115da60035442611870565b9050600280811115611615577f4e487b7100000000000000000000000000000000000000000000000000000000600052602160045260246000fd5b600a60019054906101000a900460ff16600281111561165d577f4e487b7100000000000000000000000000000000000000000000000000000000600052602160045260246000fd5b14806116995750836116966116876001846116789190612653565b8561184490919063ffffffff16565b8561140e90919063ffffffff16565b10155b156116ab5783955050505050506116e4565b6116dc6116cd6001836116be9190612653565b8461184490919063ffffffff16565b8461140e90919063ffffffff16565b955050505050505b90565b600081836116f59190612aba565b905092915050565b61179a8363a9059cbb7c0100000000000000000000000000000000000000000000000000000000028484604051602401611738929190612321565b604051602081830303815290604052907bffffffffffffffffffffffffffffffffffffffffffffffffffffffff19166020820180517bffffffffffffffffffffffffffffffffffffffffffffffffffffffff8381831617835250505050611903565b505050565b61183e846323b872dd7c0100000000000000000000000000000000000000000000000000000000028585856040516024016117dc939291906122ea565b604051602081830303815290604052907bffffffffffffffffffffffffffffffffffffffffffffffffffffffff19166020820180517bffffffffffffffffffffffffffffffffffffffffffffffffffffffff8381831617835250505050611903565b50505050565b6000818361185291906129cc565b905092915050565b600081836118689190612713565b905092915050565b60008183111561187f57600080fd5b60008061189962015180866118949190612713565b6119ca565b50915091506000806118b862015180876118b39190612713565b6119ca565b509150915082600c856118cb91906129cc565b82600c856118d991906129cc565b6118e39190612653565b6118ed9190612aba565b6118f79190612aba565b94505050505092915050565b6000611965826040518060400160405280602081526020017f5361666545524332303a206c6f772d6c6576656c2063616c6c206661696c65648152508573ffffffffffffffffffffffffffffffffffffffff16611b699092919063ffffffff16565b90506000815111156119c557808060200190518101906119859190611df4565b6119c4576040517f08c379a00000000000000000000000000000000000000000000000000000000081526004016119bb90612512565b60405180910390fd5b5b505050565b600080600080849050600062253d8c62010bd9836119e891906125bf565b6119f291906125bf565b9050600062023ab1826004611a0791906128b5565b611a1191906126a9565b9050600460038262023ab1611a2691906128b5565b611a3091906125bf565b611a3a91906126a9565b82611a459190612a26565b9150600062164b09600184611a5a91906125bf565b610fa0611a6791906128b5565b611a7191906126a9565b9050601f6004826105b5611a8591906128b5565b611a8f91906126a9565b84611a9a9190612a26565b611aa491906125bf565b9250600061098f846050611ab891906128b5565b611ac291906126a9565b9050600060508261098f611ad691906128b5565b611ae091906126a9565b85611aeb9190612a26565b9050600b82611afa91906126a9565b945084600c611b0991906128b5565b600283611b1691906125bf565b611b209190612a26565b91508483603186611b319190612a26565b6064611b3d91906128b5565b611b4791906125bf565b611b5191906125bf565b92508298508197508096505050505050509193909250565b6060611b788484600085611b81565b90509392505050565b6060823073ffffffffffffffffffffffffffffffffffffffff16311015611bdd576040517f08c379a0000000000000000000000000000000000000000000000000000000008152600401611bd490612472565b60405180910390fd5b611be685611cac565b611c25576040517f08c379a0000000000000000000000000000000000000000000000000000000008152600401611c1c906124f2565b60405180910390fd5b6000808673ffffffffffffffffffffffffffffffffffffffff168587604051611c4e91906122b8565b60006040518083038185875af1925050503d8060008114611c8b576040519150601f19603f3d011682016040523d82523d6000602084013e611c90565b606091505b5091509150611ca0828286611cbf565b92505050949350505050565b600080823b905060008111915050919050565b60608315611ccf57829050611d1f565b600083511115611ce25782518084602001fd5b816040517f08c379a0000000000000000000000000000000000000000000000000000000008152600401611d169190612410565b60405180910390fd5b9392505050565b600081359050611d3581612bef565b92915050565b600081359050611d4a81612c06565b92915050565b600081519050611d5f81612c06565b92915050565b600081359050611d7481612c1d565b92915050565b600081519050611d8981612c1d565b92915050565b600060208284031215611da157600080fd5b6000611daf84828501611d26565b91505092915050565b60008060408385031215611dcb57600080fd5b6000611dd985828601611d26565b9250506020611dea85828601611d65565b9150509250929050565b600060208284031215611e0657600080fd5b6000611e1484828501611d50565b91505092915050565b600060208284031215611e2f57600080fd5b6000611e3d84828501611d7a565b91505092915050565b600080600080600060a08688031215611e5e57600080fd5b6000611e6c88828901611d65565b9550506020611e7d88828901611d65565b9450506040611e8e88828901611d65565b9350506060611e9f88828901611d65565b9250506080611eb088828901611d3b565b9150509295509295909350565b611ec681612aee565b82525050565b611ed581612b00565b82525050565b6000611ee68261258d565b611ef081856125a3565b9350611f00818560208601612b40565b80840191505092915050565b6000611f1782612598565b611f2181856125ae565b9350611f31818560208601612b40565b611f3a81612bd1565b840191505092915050565b6000611f526027836125ae565b91507f546f6b656e56657374696e673a20636f6e7472616374206973206e6f7420726560008301527f766f6361626c65000000000000000000000000000000000000000000000000006020830152604082019050919050565b6000611fb8601f836125ae565b91507f546f6b656e56657374696e673a20737461747573206973205265766f6b6564006000830152602082019050919050565b6000611ff86026836125ae565b91507f416464726573733a20696e73756666696369656e742062616c616e636520666f60008301527f722063616c6c00000000000000000000000000000000000000000000000000006020830152604082019050919050565b600061205e602a836125ae565b91507f546f6b656e56657374696e673a20737461747573206d757374206265204e6f4960008301527f6e697469616c697a6564000000000000000000000000000000000000000000006020830152604082019050919050565b60006120c46010836125ae565b91507f6f6e6c7950656e64696e674f776e6572000000000000000000000000000000006000830152602082019050919050565b60006121046027836125ae565b91507f546f6b656e56657374696e673a2072656c65617361626c6520616d6f756e742060008301527f6973207a65726f000000000000000000000000000000000000000000000000006020830152604082019050919050565b600061216a601d836125ae565b91507f416464726573733a2063616c6c20746f206e6f6e2d636f6e74726163740000006000830152602082019050919050565b60006121aa602a836125ae565b91507f5361666545524332303a204552433230206f7065726174696f6e20646964206e60008301527f6f742073756363656564000000000000000000000000000000000000000000006020830152604082019050919050565b60006122106025836125ae565b91507f546f6b656e56657374696e673a20737461747573206973204e6f496e6974696160008301527f6c697a65640000000000000000000000000000000000000000000000000000006020830152604082019050919050565b60006122766009836125ae565b91507f6f6e6c794f776e657200000000000000000000000000000000000000000000006000830152602082019050919050565b6122b281612b36565b82525050565b60006122c48284611edb565b915081905092915050565b60006020820190506122e46000830184611ebd565b92915050565b60006060820190506122ff6000830186611ebd565b61230c6020830185611ebd565b61231960408301846122a9565b949350505050565b60006040820190506123366000830185611ebd565b61234360208301846122a9565b9392505050565b600061016082019050612360600083018e611ebd565b61236d602083018d6122a9565b61237a604083018c6122a9565b612387606083018b6122a9565b612394608083018a6122a9565b6123a160a08301896122a9565b6123ae60c08301886122a9565b6123bb60e08301876122a9565b6123c96101008301866122a9565b6123d7610120830185611ecc565b6123e56101408301846122a9565b9c9b505050505050505050505050565b600060208201905061240a6000830184611ecc565b92915050565b6000602082019050818103600083015261242a8184611f0c565b905092915050565b6000602082019050818103600083015261244b81611f45565b9050919050565b6000602082019050818103600083015261246b81611fab565b9050919050565b6000602082019050818103600083015261248b81611feb565b9050919050565b600060208201905081810360008301526124ab81612051565b9050919050565b600060208201905081810360008301526124cb816120b7565b9050919050565b600060208201905081810360008301526124eb816120f7565b9050919050565b6000602082019050818103600083015261250b8161215d565b9050919050565b6000602082019050818103600083015261252b8161219d565b9050919050565b6000602082019050818103600083015261254b81612203565b9050919050565b6000602082019050818103600083015261256b81612269565b9050919050565b600060208201905061258760008301846122a9565b92915050565b600081519050919050565b600081519050919050565b600081905092915050565b600082825260208201905092915050565b60006125ca82612b0c565b91506125d583612b0c565b9250817f7fffffffffffffffffffffffffffffffffffffffffffffffffffffffffffffff038313600083121516156126105761260f612b73565b5b817f800000000000000000000000000000000000000000000000000000000000000003831260008312161561264857612647612b73565b5b828201905092915050565b600061265e82612b36565b915061266983612b36565b9250827fffffffffffffffffffffffffffffffffffffffffffffffffffffffffffffffff0382111561269e5761269d612b73565b5b828201905092915050565b60006126b482612b0c565b91506126bf83612b0c565b9250826126cf576126ce612ba2565b5b600160000383147f80000000000000000000000000000000000000000000000000000000000000008314161561270857612707612b73565b5b828205905092915050565b600061271e82612b36565b915061272983612b36565b92508261273957612738612ba2565b5b828204905092915050565b6000808291508390505b600185111561278e5780860481111561276a57612769612b73565b5b60018516156127795780820291505b808102905061278785612be2565b945061274e565b94509492505050565b60006127a282612b36565b91506127ad83612b36565b92506127da7fffffffffffffffffffffffffffffffffffffffffffffffffffffffffffffffff84846127e2565b905092915050565b6000826127f257600190506128ae565b8161280057600090506128ae565b816001811461281657600281146128205761284f565b60019150506128ae565b60ff84111561283257612831612b73565b5b8360020a91508482111561284957612848612b73565b5b506128ae565b5060208310610133831016604e8410600b84101617156128845782820a90508381111561287f5761287e612b73565b5b6128ae565b6128918484846001612744565b925090508184048111156128a8576128a7612b73565b5b81810290505b9392505050565b60006128c082612b0c565b91506128cb83612b0c565b9250827f7fffffffffffffffffffffffffffffffffffffffffffffffffffffffffffffff048211600084136000841316161561290a57612909612b73565b5b817f8000000000000000000000000000000000000000000000000000000000000000058312600084126000841316161561294757612946612b73565b5b827f8000000000000000000000000000000000000000000000000000000000000000058212600084136000841216161561298457612983612b73565b5b827f7fffffffffffffffffffffffffffffffffffffffffffffffffffffffffffffff05821260008412600084121616156129c1576129c0612b73565b5b828202905092915050565b60006129d782612b36565b91506129e283612b36565b9250817fffffffffffffffffffffffffffffffffffffffffffffffffffffffffffffffff0483118215151615612a1b57612a1a612b73565b5b828202905092915050565b6000612a3182612b0c565b9150612a3c83612b0c565b9250827f800000000000000000000000000000000000000000000000000000000000000001821260008412151615612a7757612a76612b73565b5b827f7fffffffffffffffffffffffffffffffffffffffffffffffffffffffffffffff018213600084121615612aaf57612aae612b73565b5b828203905092915050565b6000612ac582612b36565b9150612ad083612b36565b925082821015612ae357612ae2612b73565b5b828203905092915050565b6000612af982612b16565b9050919050565b60008115159050919050565b6000819050919050565b600073ffffffffffffffffffffffffffffffffffffffff82169050919050565b6000819050919050565b60005b83811015612b5e578082015181840152602081019050612b43565b83811115612b6d576000848401525b50505050565b7f4e487b7100000000000000000000000000000000000000000000000000000000600052601160045260246000fd5b7f4e487b7100000000000000000000000000000000000000000000000000000000600052601260045260246000fd5b6000601f19601f8301169050919050565b6000600282049050919050565b612bf881612aee565b8114612c0357600080fd5b50565b612c0f81612b00565b8114612c1a57600080fd5b50565b612c2681612b36565b8114612c3157600080fd5b5056fea2646970667358221220793d29a3284a02d66c9356f6bf79d2c1d2a56b0e1b302fb3d7f95e1c7ace4cfd64736f6c63430008000033a2646970667358221220015a41ecda3733c2a490223e0796e7083ad4113bfa21701945bc225dfcdd900b64736f6c63430008000033",
  "immutableReferences": {},
  "source": "// SPDX-License-Identifier: MIT\n\npragma solidity ^0.8.0;\n\nimport \"@openzeppelin/contracts/token/ERC20/utils/SafeERC20.sol\";\nimport \"@openzeppelin/contracts/token/ERC20/IERC20.sol\";\nimport \"@openzeppelin/contracts/utils/math/SafeMath.sol\";\nimport \"./BokkyPooBahsDateTimeLibrary.sol\";\n\n\n/**\n * @title Ownable\n * @dev The Ownable contract has an owner address, and provides basic authorization control\n * functions, this simplifies the implementation of \"user permissions\".\n */\ncontract Ownable {\n    address private _owner;\n    address private _pendingOwner;\n\n    event OwnershipTransferred(\n        address indexed previousOwner,\n        address indexed newOwner\n    );\n\n    /**\n     * @dev The Ownable constructor sets the original `owner` of the contract to the sender\n     * account.\n     */\n    constructor() public {\n        _owner = msg.sender;\n    }\n\n    /**\n     * @dev Throws if called by any account other than the owner.\n     */\n    modifier onlyOwner() {\n        require(msg.sender == _owner, \"onlyOwner\");\n        _;\n    }\n    \n    /**\n    * @dev Returns the address of the current owner.\n    */\n    function owner() public view returns (address) {\n        return _owner;\n    }\n    \n    /**\n    * @dev Returns the address of the pending owner.\n    */\n    function pendingOwner() public view returns (address) {\n        return _pendingOwner;\n    }\n\n    /**\n     * @dev Allows the current owner to set the pendingOwner address.\n     * @param newOwner The address to transfer ownership to.\n     */\n    function transferOwnership(address newOwner) public onlyOwner {\n        _pendingOwner = newOwner;\n    }\n\n    /**\n     * @dev Allows the pendingOwner address to finalize the transfer.\n     */\n    function claimOwnership() public {\n        require(msg.sender == _pendingOwner, \"onlyPendingOwner\");\n        emit OwnershipTransferred(_owner, _pendingOwner);\n        _owner = _pendingOwner;\n        _pendingOwner = address(0);\n    }\n}\n\ncontract TokenVestingFactory is Ownable {\n\n    event TokenVestingCreated(address tokenVesting);\n\n    // enum VestingType { SeedInvestors, StrategicInvestors, Advisors, Team, All }\n\n    struct BeneficiaryIndex {\n        address tokenVesting;\n        uint256 vestingType;\n        bool isExist;\n        // uint256 index;\n    }\n    mapping(address => BeneficiaryIndex) private _beneficiaryIndex;\n    address[] private _beneficiaries;\n    address private _tokenAddr;\n    uint256 private _decimal;\n    \n    constructor (address tokenAddr, uint256 decimal) {\n      _tokenAddr = tokenAddr;\n      _decimal = decimal;\n    }    \n    \n    function create(address beneficiary, uint256 start, uint256 cliff, uint256 initialShare, uint256 periodicShare, bool revocable, uint256 vestingType) onlyOwner public {\n        require(!_beneficiaryIndex[beneficiary].isExist, \"TokenVestingFactory: benficiery exists\");\n        require(vestingType != 0, \"TokenVestingFactory: vestingType 0 is reserved\");\n        \n        address tokenVesting = address(new TokenVesting(_tokenAddr, beneficiary, start, cliff, initialShare, periodicShare, _decimal, revocable));\n\n        _beneficiaries.push(beneficiary);\n        _beneficiaryIndex[beneficiary].tokenVesting = tokenVesting;\n        _beneficiaryIndex[beneficiary].vestingType = vestingType;\n        _beneficiaryIndex[beneficiary].isExist = true;\n        \n        emit TokenVestingCreated(tokenVesting);\n    }\n    \n    function initialize(address tokenVesting, address from, uint256 amount) public onlyOwner {\n        TokenVesting(tokenVesting).initialize(from, amount);\n    }\n  \n    function update(address tokenVesting, uint256 start, uint256 cliff, uint256 initialShare, uint256 periodicShare, bool revocable) public onlyOwner {\n        TokenVesting(tokenVesting).update(start, cliff, initialShare, periodicShare, revocable);\n    }\n    \n    function revoke(address tokenVesting) public onlyOwner {\n        TokenVesting(tokenVesting).revoke(owner());\n    }\n\n    function getBeneficiaries(uint256 vestingType) public view returns(address[] memory) {\n        uint256 j = 0;\n        address[] memory beneficiaries = new address[](_beneficiaries.length);\n        \n        for (uint256 i = 0; i < _beneficiaries.length; i++) {\n            address beneficiary = _beneficiaries[i];\n            if ( _beneficiaryIndex[beneficiary].vestingType == vestingType || vestingType == 0 ) {\n                beneficiaries[j] = beneficiary;\n                j++;\n            }\n        }\n        return beneficiaries;\n    }\n    \n    function getVestingType(address beneficiary) public view returns(uint256) {\n        require(_beneficiaryIndex[beneficiary].isExist, \"TokenVestingFactory: benficiery does not exist\");\n        return _beneficiaryIndex[beneficiary].vestingType;\n    }\n\n    function getTokenVesting(address beneficiary) public view returns(address) {\n        require(_beneficiaryIndex[beneficiary].isExist, \"TokenVestingFactory: benficiery does not exist\");\n        return _beneficiaryIndex[beneficiary].tokenVesting;\n    }\n    \n    function getTokenAddress() public view returns(address) {\n        return _tokenAddr;\n    }\n\n    function getDecimal() public view returns(uint256) {\n      return _decimal;\n    }\n    \n}\n\n/**\n * @title TokenVesting\n * @dev A token holder contract that can release its token balance gradually like a\n * typical vesting scheme, with a cliff. Optionally revocable by the\n * owner.\n */\ncontract TokenVesting is Ownable {\n  using SafeMath for uint256;\n  using SafeERC20 for IERC20;\n\n  event TokensReleased(address beneficiary, uint256 amount);\n  event TokenVestingRevoked(address refundAddress, uint256 amount);\n  event TokenVestingInitialized(address from, uint256 amount);\n\n  enum Status { NoInitialized, Initialized, Revoked }\n\n  // beneficiary of tokens after they are released\n  address private _beneficiary;\n\n  uint256 private _cliff;\n  uint256 private _start;\n  address private _tokenAddr;\n  uint256 private _initialShare;\n  uint256 private _periodicShare;\n  uint256 private _decimal;\n  uint256 private _released;\n\n  bool private _revocable;\n  Status private _status;\n\n  /**\n   * @dev Creates a vesting contract that vests its balance of any ERC20 token to the\n   * beneficiary, gradually in a linear fashion. By then all\n   * of the balance will have vested.\n   * @param beneficiary address of the beneficiary to whom vested tokens are transferred\n   * @param cliff duration in seconds of the cliff in which tokens will begin to vest\n   * @param start the time (as Unix time) at which point vesting starts\n   * @param revocable whether the vesting is revocable or not\n   */\n  constructor(\n    address tokenAddr,\n    address beneficiary,\n    uint256 start,\n    uint256 cliff,\n    uint256 initialShare,\n    uint256 periodicShare,\n    uint256 decimal,\n    bool revocable\n    )\n    \n  {\n    require(beneficiary != address(0), \"TokenVesting: beneficiary address must not be zero\");\n    \n    _tokenAddr = tokenAddr;\n    _beneficiary = beneficiary;\n    _revocable = revocable;\n    _cliff = start.add(cliff);\n    _start = start;\n    _initialShare = initialShare;\n    _periodicShare = periodicShare;\n    _decimal = decimal;\n    _status = Status.NoInitialized;\n    \n  }\n  \n   /**\n   * @return TokenVesting details.\n   */\n  function getDetails() public view returns(address, uint256, uint256, uint256, uint256, uint256, uint256, uint256, uint256, bool, uint256) {\n    uint256 _total = IERC20(_tokenAddr).balanceOf(address(this)).add(_released);\n    uint256 _vested = _vestedAmount();\n    uint256 _releasable = _vestedAmount().sub(_released);\n    return (_beneficiary, _initialShare, _periodicShare, _start, _cliff, _total, _vested, _released, _releasable, _revocable, uint256(_status));\n  }\n\n  \n  /**\n   * @return the initial share of the beneficiary.\n   */\n  function getInitialShare() public view returns(uint256) {\n    return _initialShare;\n  }\n  \n  \n  /**\n   * @return the periodic share of the beneficiary.\n   */\n  function getPeriodicShare() public view returns(uint256) {\n    return _periodicShare;\n  }\n  \n  \n  /**\n   * @return the beneficiary of the tokens.\n   */\n  function getBeneficiary() public view returns(address) {\n    return _beneficiary;\n  }\n\n  /**\n   * @return the start time of the token vesting.\n   */\n  function getStart() public view returns(uint256) {\n    return _start;\n  }\n\n  /**\n   * @return the cliff time of the token vesting.\n   */\n  function getCliff() public view returns(uint256) {\n    return _cliff;\n  }\n\n  /**\n   * @return the total amount of the token.\n   */\n  function getTotal() public view returns(uint256) {\n    return IERC20(_tokenAddr).balanceOf(address(this)).add(_released);\n  }\n\n  /**\n   * @return the amount of the vested token.\n   */\n  function getVested() public view returns(uint256) {\n    return _vestedAmount();\n  }\n\n  /**\n   * @return the amount of the token released.\n   */\n  function getReleased() public view returns(uint256) {\n    return _released;\n  }\n\n  /**\n   * @return the amount that has already vested but hasn't been released yet.\n   */\n  function getReleasable() public view returns(uint256) {\n    return _vestedAmount().sub(_released);\n  }\n\n  /**\n   * @return true if the vesting is revocable.\n   */\n  function isRevocable() public view returns(bool) {\n    return _revocable;\n  }\n  \n  /**\n   * @return true if the token is revoked.\n   */\n  function isRevoked() public view returns(bool) {\n    if (_status == Status.Revoked) {\n      return true;\n    } else {\n      return false;\n    }\n  }\n\n   /**\n   * @return status.\n   */\n  function getStatus() public view returns(uint256) {\n    return uint256(_status);\n  }\n\n  /**\n   * @notice change status to initialized.\n   */\n  function initialize(address from, uint256 amount) public onlyOwner {\n\n    require(_status == Status.NoInitialized, \"TokenVesting: status must be NoInitialized\");\n\n      _status = Status.Initialized;\n      IERC20(_tokenAddr).safeTransferFrom(from, address(this), amount);\n      emit TokenVestingInitialized(address(from), amount);\n    \n  }\n\n   /**\n   * @notice update token vesting contract.\n   */\n  function update(\n    uint256 start,\n    uint256 cliff,\n    uint256 initialShare,\n    uint256 periodicShare,\n    bool revocable\n\n  ) public onlyOwner {\n\n    require(_status == Status.NoInitialized, \"TokenVesting: status must be NoInitialized\");\n    \n    _start = start;\n    _cliff = start.add(cliff);\n    _initialShare = initialShare;\n    _periodicShare = periodicShare;\n    _revocable = revocable;\n\n  }\n\n  /**\n   * @notice Transfers vested tokens to beneficiary.\n   */\n  function release() public {\n    require(_status != Status.NoInitialized, \"TokenVesting: status is NoInitialized\");\n    uint256 unreleased = getReleasable();\n\n    require(unreleased > 0, \"TokenVesting: releasable amount is zero\");\n\n    _released = _released.add(unreleased);\n\n    IERC20(_tokenAddr).safeTransfer(_beneficiary, unreleased);\n\n    emit TokensReleased(address(_beneficiary), unreleased);\n  }\n\n  /**\n   * @notice Allows the owner to revoke the vesting. Tokens already vested\n   * remain in the contract, the rest are returned to the owner.\n   */\n  function revoke(address refundAddress) public onlyOwner {\n    require(_revocable, \"TokenVesting: contract is not revocable\");\n    require(_status != Status.Revoked, \"TokenVesting: status is Revoked\");\n\n    uint256 balance = IERC20(_tokenAddr).balanceOf(address(this));\n\n    uint256 unreleased = getReleasable();\n    uint256 refund = balance.sub(unreleased);\n\n    _status = Status.Revoked;\n\n    IERC20(_tokenAddr).safeTransfer(refundAddress, refund);\n\n    emit TokenVestingRevoked(address(refundAddress), refund);\n  }\n\n\n  /**\n   * @dev Calculates the amount that has already vested.\n   */\n  function _vestedAmount() private view returns (uint256) {\n    uint256 currentBalance = IERC20(_tokenAddr).balanceOf(address(this));\n    uint256 totalBalance = currentBalance.add(_released);\n    uint256 initialRelease = totalBalance.mul(_initialShare).div(10**_decimal).div(100);\n\n    if (block.timestamp < _start) {\n      return 0;\n    } else if (block.timestamp < _cliff) {\n      return initialRelease;\n    } else {\n        uint256 monthlyRelease = totalBalance.mul(_periodicShare).div(10**_decimal).div(100);\n        uint256 _months = BokkyPooBahsDateTimeLibrary.diffMonths(_cliff, block.timestamp);\n        \n        if (_status == Status.Revoked || initialRelease.add(monthlyRelease.mul(_months + 1)) >= totalBalance) {\n            return totalBalance;\n        } else {\n            return initialRelease.add(monthlyRelease.mul(_months + 1));\n        }\n    } \n  }\n}",
  "sourcePath": "E:/projects/amas/vesting/vesting-contract/contracts/TokenVesting.sol",
  "compiler": {
    "name": "solc",
    "version": "0.8.0+commit.c7dfd78e.Emscripten.clang"
  },
  "schemaVersion": "3.4.1",
  "updatedAt": "2021-05-20T21:03:38.915Z",
  "networkType": "ethereum",
  "devdoc": {
    "kind": "dev",
    "methods": {
      "claimOwnership()": {
        "details": "Allows the pendingOwner address to finalize the transfer."
      },
      "owner()": {
        "details": "Returns the address of the current owner."
      },
      "pendingOwner()": {
        "details": "Returns the address of the pending owner."
      },
      "transferOwnership(address)": {
        "details": "Allows the current owner to set the pendingOwner address.",
        "params": {
          "newOwner": "The address to transfer ownership to."
        }
      }
    },
    "version": 1
  },
  "userdoc": {
    "kind": "user",
    "methods": {},
    "version": 1
  }
}