{
  "contractName": "TokenVesting",
  "abi": [
    {
      "inputs": [
        {
          "internalType": "address",
          "name": "tokenAddr",
          "type": "address"
        },
        {
          "internalType": "address",
          "name": "beneficiary",
          "type": "address"
        },
        {
          "internalType": "uint256",
          "name": "start",
          "type": "uint256"
        },
        {
          "internalType": "uint256",
          "name": "cliff",
          "type": "uint256"
        },
        {
          "internalType": "uint256",
          "name": "initialShare",
          "type": "uint256"
        },
        {
          "internalType": "uint256",
          "name": "periodicShare",
          "type": "uint256"
        },
        {
          "internalType": "uint256",
          "name": "decimal",
          "type": "uint256"
        },
        {
          "internalType": "bool",
          "name": "revocable",
          "type": "bool"
        }
      ],
      "stateMutability": "nonpayable",
      "type": "constructor"
    },
    {
      "anonymous": false,
      "inputs": [
        {
          "indexed": true,
          "internalType": "address",
          "name": "previousOwner",
          "type": "address"
        },
        {
          "indexed": true,
          "internalType": "address",
          "name": "newOwner",
          "type": "address"
        }
      ],
      "name": "OwnershipTransferred",
      "type": "event"
    },
    {
      "anonymous": false,
      "inputs": [
        {
          "indexed": false,
          "internalType": "address",
          "name": "from",
          "type": "address"
        },
        {
          "indexed": false,
          "internalType": "uint256",
          "name": "amount",
          "type": "uint256"
        }
      ],
      "name": "TokenVestingInitialized",
      "type": "event"
    },
    {
      "anonymous": false,
      "inputs": [
        {
          "indexed": false,
          "internalType": "address",
          "name": "refundAddress",
          "type": "address"
        },
        {
          "indexed": false,
          "internalType": "uint256",
          "name": "amount",
          "type": "uint256"
        }
      ],
      "name": "TokenVestingRevoked",
      "type": "event"
    },
    {
      "anonymous": false,
      "inputs": [
        {
          "indexed": false,
          "internalType": "address",
          "name": "beneficiary",
          "type": "address"
        },
        {
          "indexed": false,
          "internalType": "uint256",
          "name": "amount",
          "type": "uint256"
        }
      ],
      "name": "TokensReleased",
      "type": "event"
    },
    {
      "inputs": [],
      "name": "claimOwnership",
      "outputs": [],
      "stateMutability": "nonpayable",
      "type": "function"
    },
    {
      "inputs": [],
      "name": "owner",
      "outputs": [
        {
          "internalType": "address",
          "name": "",
          "type": "address"
        }
      ],
      "stateMutability": "view",
      "type": "function"
    },
    {
      "inputs": [],
      "name": "pendingOwner",
      "outputs": [
        {
          "internalType": "address",
          "name": "",
          "type": "address"
        }
      ],
      "stateMutability": "view",
      "type": "function"
    },
    {
      "inputs": [
        {
          "internalType": "address",
          "name": "newOwner",
          "type": "address"
        }
      ],
      "name": "transferOwnership",
      "outputs": [],
      "stateMutability": "nonpayable",
      "type": "function"
    },
    {
      "inputs": [],
      "name": "getDetails",
      "outputs": [
        {
          "internalType": "address",
          "name": "",
          "type": "address"
        },
        {
          "internalType": "uint256",
          "name": "",
          "type": "uint256"
        },
        {
          "internalType": "uint256",
          "name": "",
          "type": "uint256"
        },
        {
          "internalType": "uint256",
          "name": "",
          "type": "uint256"
        },
        {
          "internalType": "uint256",
          "name": "",
          "type": "uint256"
        },
        {
          "internalType": "uint256",
          "name": "",
          "type": "uint256"
        },
        {
          "internalType": "uint256",
          "name": "",
          "type": "uint256"
        },
        {
          "internalType": "uint256",
          "name": "",
          "type": "uint256"
        },
        {
          "internalType": "uint256",
          "name": "",
          "type": "uint256"
        },
        {
          "internalType": "bool",
          "name": "",
          "type": "bool"
        },
        {
          "internalType": "uint256",
          "name": "",
          "type": "uint256"
        }
      ],
      "stateMutability": "view",
      "type": "function"
    },
    {
      "inputs": [],
      "name": "getInitialShare",
      "outputs": [
        {
          "internalType": "uint256",
          "name": "",
          "type": "uint256"
        }
      ],
      "stateMutability": "view",
      "type": "function"
    },
    {
      "inputs": [],
      "name": "getPeriodicShare",
      "outputs": [
        {
          "internalType": "uint256",
          "name": "",
          "type": "uint256"
        }
      ],
      "stateMutability": "view",
      "type": "function"
    },
    {
      "inputs": [],
      "name": "getBeneficiary",
      "outputs": [
        {
          "internalType": "address",
          "name": "",
          "type": "address"
        }
      ],
      "stateMutability": "view",
      "type": "function"
    },
    {
      "inputs": [],
      "name": "getStart",
      "outputs": [
        {
          "internalType": "uint256",
          "name": "",
          "type": "uint256"
        }
      ],
      "stateMutability": "view",
      "type": "function"
    },
    {
      "inputs": [],
      "name": "getCliff",
      "outputs": [
        {
          "internalType": "uint256",
          "name": "",
          "type": "uint256"
        }
      ],
      "stateMutability": "view",
      "type": "function"
    },
    {
      "inputs": [],
      "name": "getTotal",
      "outputs": [
        {
          "internalType": "uint256",
          "name": "",
          "type": "uint256"
        }
      ],
      "stateMutability": "view",
      "type": "function"
    },
    {
      "inputs": [],
      "name": "getVested",
      "outputs": [
        {
          "internalType": "uint256",
          "name": "",
          "type": "uint256"
        }
      ],
      "stateMutability": "view",
      "type": "function"
    },
    {
      "inputs": [],
      "name": "getReleased",
      "outputs": [
        {
          "internalType": "uint256",
          "name": "",
          "type": "uint256"
        }
      ],
      "stateMutability": "view",
      "type": "function"
    },
    {
      "inputs": [],
      "name": "getReleasable",
      "outputs": [
        {
          "internalType": "uint256",
          "name": "",
          "type": "uint256"
        }
      ],
      "stateMutability": "view",
      "type": "function"
    },
    {
      "inputs": [],
      "name": "isRevocable",
      "outputs": [
        {
          "internalType": "bool",
          "name": "",
          "type": "bool"
        }
      ],
      "stateMutability": "view",
      "type": "function"
    },
    {
      "inputs": [],
      "name": "isRevoked",
      "outputs": [
        {
          "internalType": "bool",
          "name": "",
          "type": "bool"
        }
      ],
      "stateMutability": "view",
      "type": "function"
    },
    {
      "inputs": [],
      "name": "getStatus",
      "outputs": [
        {
          "internalType": "uint256",
          "name": "",
          "type": "uint256"
        }
      ],
      "stateMutability": "view",
      "type": "function"
    },
    {
      "inputs": [
        {
          "internalType": "address",
          "name": "from",
          "type": "address"
        },
        {
          "internalType": "uint256",
          "name": "amount",
          "type": "uint256"
        }
      ],
      "name": "initialize",
      "outputs": [],
      "stateMutability": "nonpayable",
      "type": "function"
    },
    {
      "inputs": [
        {
          "internalType": "uint256",
          "name": "start",
          "type": "uint256"
        },
        {
          "internalType": "uint256",
          "name": "cliff",
          "type": "uint256"
        },
        {
          "internalType": "uint256",
          "name": "initialShare",
          "type": "uint256"
        },
        {
          "internalType": "uint256",
          "name": "periodicShare",
          "type": "uint256"
        },
        {
          "internalType": "bool",
          "name": "revocable",
          "type": "bool"
        }
      ],
      "name": "update",
      "outputs": [],
      "stateMutability": "nonpayable",
      "type": "function"
    },
    {
      "inputs": [],
      "name": "release",
      "outputs": [],
      "stateMutability": "nonpayable",
      "type": "function"
    },
    {
      "inputs": [
        {
          "internalType": "address",
          "name": "refundAddress",
          "type": "address"
        }
      ],
      "name": "revoke",
      "outputs": [],
      "stateMutability": "nonpayable",
      "type": "function"
    }
  ],
  "bytecode": "0x60806040523480156200001157600080fd5b506040516200318b3803806200318b833981810160405281019062000037919062000288565b336000806101000a81548173ffffffffffffffffffffffffffffffffffffffff021916908373ffffffffffffffffffffffffffffffffffffffff160217905550600073ffffffffffffffffffffffffffffffffffffffff168773ffffffffffffffffffffffffffffffffffffffff161415620000ea576040517f08c379a0000000000000000000000000000000000000000000000000000000008152600401620000e190620003b3565b60405180910390fd5b87600560006101000a81548173ffffffffffffffffffffffffffffffffffffffff021916908373ffffffffffffffffffffffffffffffffffffffff16021790555086600260006101000a81548173ffffffffffffffffffffffffffffffffffffffff021916908373ffffffffffffffffffffffffffffffffffffffff16021790555080600a60006101000a81548160ff021916908315150217905550620001a985876200022b640100000000026200140e179091906401000000009004565b600381905550856004819055508360068190555082600781905550816008819055506000600a60016101000a81548160ff0219169083600281111562000218577f4e487b7100000000000000000000000000000000000000000000000000000000600052602160045260246000fd5b021790555050505050505050506200050a565b600081836200023b9190620003e6565b905092915050565b6000815190506200025481620004bc565b92915050565b6000815190506200026b81620004d6565b92915050565b6000815190506200028281620004f0565b92915050565b600080600080600080600080610100898b031215620002a657600080fd5b6000620002b68b828c0162000243565b9850506020620002c98b828c0162000243565b9750506040620002dc8b828c0162000271565b9650506060620002ef8b828c0162000271565b9550506080620003028b828c0162000271565b94505060a0620003158b828c0162000271565b93505060c0620003288b828c0162000271565b92505060e06200033b8b828c016200025a565b9150509295985092959890939650565b60006200035a603283620003d5565b91507f546f6b656e56657374696e673a2062656e65666963696172792061646472657360008301527f73206d757374206e6f74206265207a65726f00000000000000000000000000006020830152604082019050919050565b60006020820190508181036000830152620003ce816200034b565b9050919050565b600082825260208201905092915050565b6000620003f38262000483565b9150620004008362000483565b9250827fffffffffffffffffffffffffffffffffffffffffffffffffffffffffffffffff038211156200043857620004376200048d565b5b828201905092915050565b6000620004508262000463565b9050919050565b60008115159050919050565b600073ffffffffffffffffffffffffffffffffffffffff82169050919050565b6000819050919050565b7f4e487b7100000000000000000000000000000000000000000000000000000000600052601160045260246000fd5b620004c78162000443565b8114620004d357600080fd5b50565b620004e18162000457565b8114620004ed57600080fd5b50565b620004fb8162000483565b81146200050757600080fd5b50565b612c71806200051a6000396000f3fe608060405234801561001057600080fd5b5060043610610154576000357c010000000000000000000000000000000000000000000000000000000090048063775a25e3116100d5578063c5292c6711610099578063c5292c67146102ef578063cd6dc6871461030d578063e30c397814610329578063f2fde38b14610347578063f47a6e8414610363578063fbbf93a01461038157610154565b8063775a25e31461026f5780637a140b8b1461028d57806386d1a69f146102ab5780638da5cb5b146102b5578063ab680980146102d357610154565b80634e71e0c81161011c5780634e71e0c8146101ef578063565a2e2c146101f95780635ffd1bad1461021757806363260e361461023557806374a8f1031461025357610154565b80630bfdc519146101595780630d60e5531461017757806321617565146101955780632bc9ed02146101b35780634e69d560146101d1575b600080fd5b6101616103a9565b60405161016e9190612579565b60405180910390f35b61017f6103b3565b60405161018c9190612579565b60405180910390f35b61019d6103c2565b6040516101aa9190612579565b60405180910390f35b6101bb6103e5565b6040516101c891906123fc565b60405180910390f35b6101d961047f565b6040516101e69190612579565b60405180910390f35b6101f76104ce565b005b6102016106a0565b60405161020e91906122d6565b60405180910390f35b61021f6106ca565b60405161022c91906123fc565b60405180910390f35b61023d6106e1565b60405161024a9190612579565b60405180910390f35b61026d60048036038101906102689190611d96565b6106eb565b005b610277610a55565b6040516102849190612579565b60405180910390f35b610295610b37565b6040516102a29190612579565b60405180910390f35b6102b3610b41565b005b6102bd610d3b565b6040516102ca91906122d6565b60405180910390f35b6102ed60048036038101906102e89190611e4d565b610d64565b005b6102f7610f03565b6040516103049190612579565b60405180910390f35b61032760048036038101906103229190611dbf565b610f0d565b005b61033161113a565b60405161033e91906122d6565b60405180910390f35b610361600480360381019061035c9190611d96565b611164565b005b61036b611236565b6040516103789190612579565b60405180910390f35b610389611240565b6040516103a09b9a99989796959493929190612351565b60405180910390f35b6000600654905090565b60006103bd611424565b905090565b60006103e06009546103d2611424565b6116ee90919063ffffffff16565b905090565b6000600280811115610420577f4e487b7100000000000000000000000000000000000000000000000000000000600052602160045260246000fd5b600a60019054906101000a900460ff166002811115610468577f4e487b7100000000000000000000000000000000000000000000000000000000600052602160045260246000fd5b1415610477576001905061047c565b600090505b90565b6000600a60019054906101000a900460ff1660028111156104c9577f4e487b7100000000000000000000000000000000000000000000000000000000600052602160045260246000fd5b905090565b600160009054906101000a900473ffffffffffffffffffffffffffffffffffffffff1673ffffffffffffffffffffffffffffffffffffffff163373ffffffffffffffffffffffffffffffffffffffff161461055e576040517f08c379a0000000000000000000000000000000000000000000000000000000008152600401610555906124d9565b60405180910390fd5b600160009054906101000a900473ffffffffffffffffffffffffffffffffffffffff1673ffffffffffffffffffffffffffffffffffffffff1660008054906101000a900473ffffffffffffffffffffffffffffffffffffffff1673ffffffffffffffffffffffffffffffffffffffff167f8be0079c531659141344cd1fd0a4f28419497f9722a3daafe3b4186f6b6457e060405160405180910390a3600160009054906101000a900473ffffffffffffffffffffffffffffffffffffffff166000806101000a81548173ffffffffffffffffffffffffffffffffffffffff021916908373ffffffffffffffffffffffffffffffffffffffff1602179055506000600160006101000a81548173ffffffffffffffffffffffffffffffffffffffff021916908373ffffffffffffffffffffffffffffffffffffffff160217905550565b6000600260009054906101000a900473ffffffffffffffffffffffffffffffffffffffff16905090565b6000600a60009054906101000a900460ff16905090565b6000600354905090565b60008054906101000a900473ffffffffffffffffffffffffffffffffffffffff1673ffffffffffffffffffffffffffffffffffffffff163373ffffffffffffffffffffffffffffffffffffffff1614610779576040517f08c379a000000000000000000000000000000000000000000000000000000000815260040161077090612559565b60405180910390fd5b600a60009054906101000a900460ff166107c8576040517f08c379a00000000000000000000000000000000000000000000000000000000081526004016107bf90612459565b60405180910390fd5b600280811115610801577f4e487b7100000000000000000000000000000000000000000000000000000000600052602160045260246000fd5b600a60019054906101000a900460ff166002811115610849577f4e487b7100000000000000000000000000000000000000000000000000000000600052602160045260246000fd5b141561088a576040517f08c379a000000000000000000000000000000000000000000000000000000000815260040161088190612479565b60405180910390fd5b6000600560009054906101000a900473ffffffffffffffffffffffffffffffffffffffff1673ffffffffffffffffffffffffffffffffffffffff166370a08231306040518263ffffffff167c010000000000000000000000000000000000000000000000000000000002815260040161090391906122d6565b60206040518083038186803b15801561091b57600080fd5b505afa15801561092f573d6000803e3d6000fd5b505050506040513d601f19601f820116820180604052508101906109539190611e24565b9050600061095f6103c2565b9050600061097682846116ee90919063ffffffff16565b90506002600a60016101000a81548160ff021916908360028111156109c4577f4e487b7100000000000000000000000000000000000000000000000000000000600052602160045260246000fd5b0217905550610a168482600560009054906101000a900473ffffffffffffffffffffffffffffffffffffffff1673ffffffffffffffffffffffffffffffffffffffff166117049092919063ffffffff16565b7f8c82cd5dc1ce07aad22dcf75d3642f20cad51b7d13b907e638e5444bdad41d9d8482604051610a47929190612328565b60405180910390a150505050565b6000610b32600954600560009054906101000a900473ffffffffffffffffffffffffffffffffffffffff1673ffffffffffffffffffffffffffffffffffffffff166370a08231306040518263ffffffff167c0100000000000000000000000000000000000000000000000000000000028152600401610ad491906122d6565b60206040518083038186803b158015610aec57600080fd5b505afa158015610b00573d6000803e3d6000fd5b505050506040513d601f19601f82011682018060405250810190610b249190611e24565b61140e90919063ffffffff16565b905090565b6000600754905090565b60006002811115610b7b577f4e487b7100000000000000000000000000000000000000000000000000000000600052602160045260246000fd5b600a60019054906101000a900460ff166002811115610bc3577f4e487b7100000000000000000000000000000000000000000000000000000000600052602160045260246000fd5b1415610c04576040517f08c379a0000000000000000000000000000000000000000000000000000000008152600401610bfb90612439565b60405180910390fd5b6000610c0e6103c2565b905060008111610c53576040517f08c379a0000000000000000000000000000000000000000000000000000000008152600401610c4a906124f9565b60405180910390fd5b610c688160095461140e90919063ffffffff16565b600981905550610cdd600260009054906101000a900473ffffffffffffffffffffffffffffffffffffffff1682600560009054906101000a900473ffffffffffffffffffffffffffffffffffffffff1673ffffffffffffffffffffffffffffffffffffffff166117049092919063ffffffff16565b7fc7798891864187665ac6dd119286e44ec13f014527aeeb2b8eb3fd413df93179600260009054906101000a900473ffffffffffffffffffffffffffffffffffffffff1682604051610d30929190612328565b60405180910390a150565b60008060009054906101000a900473ffffffffffffffffffffffffffffffffffffffff16905090565b60008054906101000a900473ffffffffffffffffffffffffffffffffffffffff1673ffffffffffffffffffffffffffffffffffffffff163373ffffffffffffffffffffffffffffffffffffffff1614610df2576040517f08c379a0000000000000000000000000000000000000000000000000000000008152600401610de990612559565b60405180910390fd5b60006002811115610e2c577f4e487b7100000000000000000000000000000000000000000000000000000000600052602160045260246000fd5b600a60019054906101000a900460ff166002811115610e74577f4e487b7100000000000000000000000000000000000000000000000000000000600052602160045260246000fd5b14610eb4576040517f08c379a0000000000000000000000000000000000000000000000000000000008152600401610eab906124b9565b60405180910390fd5b84600481905550610ece848661140e90919063ffffffff16565b600381905550826006819055508160078190555080600a60006101000a81548160ff0219169083151502179055505050505050565b6000600454905090565b60008054906101000a900473ffffffffffffffffffffffffffffffffffffffff1673ffffffffffffffffffffffffffffffffffffffff163373ffffffffffffffffffffffffffffffffffffffff1614610f9b576040517f08c379a0000000000000000000000000000000000000000000000000000000008152600401610f9290612559565b60405180910390fd5b60006002811115610fd5577f4e487b7100000000000000000000000000000000000000000000000000000000600052602160045260246000fd5b600a60019054906101000a900460ff16600281111561101d577f4e487b7100000000000000000000000000000000000000000000000000000000600052602160045260246000fd5b1461105d576040517f08c379a0000000000000000000000000000000000000000000000000000000008152600401611054906124b9565b60405180910390fd5b6001600a60016101000a81548160ff021916908360028111156110a9577f4e487b7100000000000000000000000000000000000000000000000000000000600052602160045260246000fd5b02179055506110fd823083600560009054906101000a900473ffffffffffffffffffffffffffffffffffffffff1673ffffffffffffffffffffffffffffffffffffffff166117a6909392919063ffffffff16565b7f3b9c044a0268e30cb1d82d3baf306abfeee1d6e5cf84911b9b78af45da3384ae828260405161112e929190612328565b60405180910390a15050565b6000600160009054906101000a900473ffffffffffffffffffffffffffffffffffffffff16905090565b60008054906101000a900473ffffffffffffffffffffffffffffffffffffffff1673ffffffffffffffffffffffffffffffffffffffff163373ffffffffffffffffffffffffffffffffffffffff16146111f2576040517f08c379a00000000000000000000000000000000000000000000000000000000081526004016111e990612559565b60405180910390fd5b80600160006101000a81548173ffffffffffffffffffffffffffffffffffffffff021916908373ffffffffffffffffffffffffffffffffffffffff16021790555050565b6000600954905090565b60008060008060008060008060008060008061132d600954600560009054906101000a900473ffffffffffffffffffffffffffffffffffffffff1673ffffffffffffffffffffffffffffffffffffffff166370a08231306040518263ffffffff167c01000000000000000000000000000000000000000000000000000000000281526004016112cf91906122d6565b60206040518083038186803b1580156112e757600080fd5b505afa1580156112fb573d6000803e3d6000fd5b505050506040513d601f19601f8201168201806040525081019061131f9190611e24565b61140e90919063ffffffff16565b90506000611339611424565b9050600061135960095461134b611424565b6116ee90919063ffffffff16565b9050600260009054906101000a900473ffffffffffffffffffffffffffffffffffffffff16600654600754600454600354878760095488600a60009054906101000a900460ff16600a60019054906101000a900460ff1660028111156113e8577f4e487b7100000000000000000000000000000000000000000000000000000000600052602160045260246000fd5b9d509d509d509d509d509d509d509d509d509d509d50505050909192939495969798999a565b6000818361141c919061265a565b905092915050565b600080600560009054906101000a900473ffffffffffffffffffffffffffffffffffffffff1673ffffffffffffffffffffffffffffffffffffffff166370a08231306040518263ffffffff167c010000000000000000000000000000000000000000000000000000000002815260040161149e91906122d6565b60206040518083038186803b1580156114b657600080fd5b505afa1580156114ca573d6000803e3d6000fd5b505050506040513d601f19601f820116820180604052508101906114ee9190611e24565b905060006115076009548361140e90919063ffffffff16565b905060006115536064611545600854600a611522919061279e565b6115376006548761184b90919063ffffffff16565b61186190919063ffffffff16565b61186190919063ffffffff16565b905060045442101561156b57600093505050506116eb565b6002808111156115a4577f4e487b7100000000000000000000000000000000000000000000000000000000600052602160045260246000fd5b600a60019054906101000a900460ff1660028111156115ec577f4e487b7100000000000000000000000000000000000000000000000000000000600052602160045260246000fd5b14156115fd578193505050506116eb565b600354421015611612578093505050506116eb565b600061165c606461164e600854600a61162b919061279e565b6116406007548861184b90919063ffffffff16565b61186190919063ffffffff16565b61186190919063ffffffff16565b9050600061166c60035442611877565b9050836116a0611691600184611682919061265a565b8561184b90919063ffffffff16565b8561140e90919063ffffffff16565b106116b25783955050505050506116eb565b6116e36116d46001836116c5919061265a565b8461184b90919063ffffffff16565b8461140e90919063ffffffff16565b955050505050505b90565b600081836116fc9190612ac1565b905092915050565b6117a18363a9059cbb7c010000000000000000000000000000000000000000000000000000000002848460405160240161173f929190612328565b604051602081830303815290604052907bffffffffffffffffffffffffffffffffffffffffffffffffffffffff19166020820180517bffffffffffffffffffffffffffffffffffffffffffffffffffffffff838183161783525050505061190a565b505050565b611845846323b872dd7c0100000000000000000000000000000000000000000000000000000000028585856040516024016117e3939291906122f1565b604051602081830303815290604052907bffffffffffffffffffffffffffffffffffffffffffffffffffffffff19166020820180517bffffffffffffffffffffffffffffffffffffffffffffffffffffffff838183161783525050505061190a565b50505050565b6000818361185991906129d3565b905092915050565b6000818361186f919061271a565b905092915050565b60008183111561188657600080fd5b6000806118a0620151808661189b919061271a565b6119d1565b50915091506000806118bf62015180876118ba919061271a565b6119d1565b509150915082600c856118d291906129d3565b82600c856118e091906129d3565b6118ea919061265a565b6118f49190612ac1565b6118fe9190612ac1565b94505050505092915050565b600061196c826040518060400160405280602081526020017f5361666545524332303a206c6f772d6c6576656c2063616c6c206661696c65648152508573ffffffffffffffffffffffffffffffffffffffff16611b709092919063ffffffff16565b90506000815111156119cc578080602001905181019061198c9190611dfb565b6119cb576040517f08c379a00000000000000000000000000000000000000000000000000000000081526004016119c290612539565b60405180910390fd5b5b505050565b600080600080849050600062253d8c62010bd9836119ef91906125c6565b6119f991906125c6565b9050600062023ab1826004611a0e91906128bc565b611a1891906126b0565b9050600460038262023ab1611a2d91906128bc565b611a3791906125c6565b611a4191906126b0565b82611a4c9190612a2d565b9150600062164b09600184611a6191906125c6565b610fa0611a6e91906128bc565b611a7891906126b0565b9050601f6004826105b5611a8c91906128bc565b611a9691906126b0565b84611aa19190612a2d565b611aab91906125c6565b9250600061098f846050611abf91906128bc565b611ac991906126b0565b9050600060508261098f611add91906128bc565b611ae791906126b0565b85611af29190612a2d565b9050600b82611b0191906126b0565b945084600c611b1091906128bc565b600283611b1d91906125c6565b611b279190612a2d565b91508483603186611b389190612a2d565b6064611b4491906128bc565b611b4e91906125c6565b611b5891906125c6565b92508298508197508096505050505050509193909250565b6060611b7f8484600085611b88565b90509392505050565b6060823073ffffffffffffffffffffffffffffffffffffffff16311015611be4576040517f08c379a0000000000000000000000000000000000000000000000000000000008152600401611bdb90612499565b60405180910390fd5b611bed85611cb3565b611c2c576040517f08c379a0000000000000000000000000000000000000000000000000000000008152600401611c2390612519565b60405180910390fd5b6000808673ffffffffffffffffffffffffffffffffffffffff168587604051611c5591906122bf565b60006040518083038185875af1925050503d8060008114611c92576040519150601f19603f3d011682016040523d82523d6000602084013e611c97565b606091505b5091509150611ca7828286611cc6565b92505050949350505050565b600080823b905060008111915050919050565b60608315611cd657829050611d26565b600083511115611ce95782518084602001fd5b816040517f08c379a0000000000000000000000000000000000000000000000000000000008152600401611d1d9190612417565b60405180910390fd5b9392505050565b600081359050611d3c81612bf6565b92915050565b600081359050611d5181612c0d565b92915050565b600081519050611d6681612c0d565b92915050565b600081359050611d7b81612c24565b92915050565b600081519050611d9081612c24565b92915050565b600060208284031215611da857600080fd5b6000611db684828501611d2d565b91505092915050565b60008060408385031215611dd257600080fd5b6000611de085828601611d2d565b9250506020611df185828601611d6c565b9150509250929050565b600060208284031215611e0d57600080fd5b6000611e1b84828501611d57565b91505092915050565b600060208284031215611e3657600080fd5b6000611e4484828501611d81565b91505092915050565b600080600080600060a08688031215611e6557600080fd5b6000611e7388828901611d6c565b9550506020611e8488828901611d6c565b9450506040611e9588828901611d6c565b9350506060611ea688828901611d6c565b9250506080611eb788828901611d42565b9150509295509295909350565b611ecd81612af5565b82525050565b611edc81612b07565b82525050565b6000611eed82612594565b611ef781856125aa565b9350611f07818560208601612b47565b80840191505092915050565b6000611f1e8261259f565b611f2881856125b5565b9350611f38818560208601612b47565b611f4181612bd8565b840191505092915050565b6000611f596026836125b5565b91507f546f6b656e56657374696e673a20737461747573206973204e6f74496e69746960008301527f616c697a656400000000000000000000000000000000000000000000000000006020830152604082019050919050565b6000611fbf6027836125b5565b91507f546f6b656e56657374696e673a20636f6e7472616374206973206e6f7420726560008301527f766f6361626c65000000000000000000000000000000000000000000000000006020830152604082019050919050565b6000612025601f836125b5565b91507f546f6b656e56657374696e673a20737461747573206973205265766f6b6564006000830152602082019050919050565b60006120656026836125b5565b91507f416464726573733a20696e73756666696369656e742062616c616e636520666f60008301527f722063616c6c00000000000000000000000000000000000000000000000000006020830152604082019050919050565b60006120cb602b836125b5565b91507f546f6b656e56657374696e673a20737461747573206d757374206265204e6f7460008301527f496e697469616c697a65640000000000000000000000000000000000000000006020830152604082019050919050565b60006121316010836125b5565b91507f6f6e6c7950656e64696e674f776e6572000000000000000000000000000000006000830152602082019050919050565b60006121716027836125b5565b91507f546f6b656e56657374696e673a2072656c65617361626c6520616d6f756e742060008301527f6973207a65726f000000000000000000000000000000000000000000000000006020830152604082019050919050565b60006121d7601d836125b5565b91507f416464726573733a2063616c6c20746f206e6f6e2d636f6e74726163740000006000830152602082019050919050565b6000612217602a836125b5565b91507f5361666545524332303a204552433230206f7065726174696f6e20646964206e60008301527f6f742073756363656564000000000000000000000000000000000000000000006020830152604082019050919050565b600061227d6009836125b5565b91507f6f6e6c794f776e657200000000000000000000000000000000000000000000006000830152602082019050919050565b6122b981612b3d565b82525050565b60006122cb8284611ee2565b915081905092915050565b60006020820190506122eb6000830184611ec4565b92915050565b60006060820190506123066000830186611ec4565b6123136020830185611ec4565b61232060408301846122b0565b949350505050565b600060408201905061233d6000830185611ec4565b61234a60208301846122b0565b9392505050565b600061016082019050612367600083018e611ec4565b612374602083018d6122b0565b612381604083018c6122b0565b61238e606083018b6122b0565b61239b608083018a6122b0565b6123a860a08301896122b0565b6123b560c08301886122b0565b6123c260e08301876122b0565b6123d06101008301866122b0565b6123de610120830185611ed3565b6123ec6101408301846122b0565b9c9b505050505050505050505050565b60006020820190506124116000830184611ed3565b92915050565b600060208201905081810360008301526124318184611f13565b905092915050565b6000602082019050818103600083015261245281611f4c565b9050919050565b6000602082019050818103600083015261247281611fb2565b9050919050565b6000602082019050818103600083015261249281612018565b9050919050565b600060208201905081810360008301526124b281612058565b9050919050565b600060208201905081810360008301526124d2816120be565b9050919050565b600060208201905081810360008301526124f281612124565b9050919050565b6000602082019050818103600083015261251281612164565b9050919050565b60006020820190508181036000830152612532816121ca565b9050919050565b600060208201905081810360008301526125528161220a565b9050919050565b6000602082019050818103600083015261257281612270565b9050919050565b600060208201905061258e60008301846122b0565b92915050565b600081519050919050565b600081519050919050565b600081905092915050565b600082825260208201905092915050565b60006125d182612b13565b91506125dc83612b13565b9250817f7fffffffffffffffffffffffffffffffffffffffffffffffffffffffffffffff0383136000831215161561261757612616612b7a565b5b817f800000000000000000000000000000000000000000000000000000000000000003831260008312161561264f5761264e612b7a565b5b828201905092915050565b600061266582612b3d565b915061267083612b3d565b9250827fffffffffffffffffffffffffffffffffffffffffffffffffffffffffffffffff038211156126a5576126a4612b7a565b5b828201905092915050565b60006126bb82612b13565b91506126c683612b13565b9250826126d6576126d5612ba9565b5b600160000383147f80000000000000000000000000000000000000000000000000000000000000008314161561270f5761270e612b7a565b5b828205905092915050565b600061272582612b3d565b915061273083612b3d565b9250826127405761273f612ba9565b5b828204905092915050565b6000808291508390505b60018511156127955780860481111561277157612770612b7a565b5b60018516156127805780820291505b808102905061278e85612be9565b9450612755565b94509492505050565b60006127a982612b3d565b91506127b483612b3d565b92506127e17fffffffffffffffffffffffffffffffffffffffffffffffffffffffffffffffff84846127e9565b905092915050565b6000826127f957600190506128b5565b8161280757600090506128b5565b816001811461281d576002811461282757612856565b60019150506128b5565b60ff84111561283957612838612b7a565b5b8360020a9150848211156128505761284f612b7a565b5b506128b5565b5060208310610133831016604e8410600b841016171561288b5782820a90508381111561288657612885612b7a565b5b6128b5565b612898848484600161274b565b925090508184048111156128af576128ae612b7a565b5b81810290505b9392505050565b60006128c782612b13565b91506128d283612b13565b9250827f7fffffffffffffffffffffffffffffffffffffffffffffffffffffffffffffff048211600084136000841316161561291157612910612b7a565b5b817f8000000000000000000000000000000000000000000000000000000000000000058312600084126000841316161561294e5761294d612b7a565b5b827f8000000000000000000000000000000000000000000000000000000000000000058212600084136000841216161561298b5761298a612b7a565b5b827f7fffffffffffffffffffffffffffffffffffffffffffffffffffffffffffffff05821260008412600084121616156129c8576129c7612b7a565b5b828202905092915050565b60006129de82612b3d565b91506129e983612b3d565b9250817fffffffffffffffffffffffffffffffffffffffffffffffffffffffffffffffff0483118215151615612a2257612a21612b7a565b5b828202905092915050565b6000612a3882612b13565b9150612a4383612b13565b9250827f800000000000000000000000000000000000000000000000000000000000000001821260008412151615612a7e57612a7d612b7a565b5b827f7fffffffffffffffffffffffffffffffffffffffffffffffffffffffffffffff018213600084121615612ab657612ab5612b7a565b5b828203905092915050565b6000612acc82612b3d565b9150612ad783612b3d565b925082821015612aea57612ae9612b7a565b5b828203905092915050565b6000612b0082612b1d565b9050919050565b60008115159050919050565b6000819050919050565b600073ffffffffffffffffffffffffffffffffffffffff82169050919050565b6000819050919050565b60005b83811015612b65578082015181840152602081019050612b4a565b83811115612b74576000848401525b50505050565b7f4e487b7100000000000000000000000000000000000000000000000000000000600052601160045260246000fd5b7f4e487b7100000000000000000000000000000000000000000000000000000000600052601260045260246000fd5b6000601f19601f8301169050919050565b6000600282049050919050565b612bff81612af5565b8114612c0a57600080fd5b50565b612c1681612b07565b8114612c2157600080fd5b50565b612c2d81612b3d565b8114612c3857600080fd5b5056fea26469706673582212201849e6d8b1325b3a906e5ca0d5ab399c356941817bef23ab6b365dc7e45be6ea64736f6c63430008000033",
  "immutableReferences": {},
  "source": "// SPDX-License-Identifier: MIT\n\npragma solidity ^0.8.0;\n\nimport \"@openzeppelin/contracts/token/ERC20/utils/SafeERC20.sol\";\nimport \"@openzeppelin/contracts/token/ERC20/IERC20.sol\";\nimport \"@openzeppelin/contracts/utils/math/SafeMath.sol\";\nimport \"./BokkyPooBahsDateTimeLibrary.sol\";\n\n\n/**\n * @title Ownable\n * @dev The Ownable contract has an owner address, and provides basic authorization control\n * functions, this simplifies the implementation of \"user permissions\".\n */\ncontract Ownable {\n    address private _owner;\n    address private _pendingOwner;\n\n    event OwnershipTransferred(\n        address indexed previousOwner,\n        address indexed newOwner\n    );\n\n    /**\n     * @dev The Ownable constructor sets the original `owner` of the contract to the sender\n     * account.\n     */\n    constructor() {\n        _owner = msg.sender;\n    }\n\n    /**\n     * @dev Throws if called by any account other than the owner.\n     */\n    modifier onlyOwner() {\n        require(msg.sender == _owner, \"onlyOwner\");\n        _;\n    }\n    \n    /**\n    * @dev Returns the address of the current owner.\n    */\n    function owner() public view returns (address) {\n        return _owner;\n    }\n    \n    /**\n    * @dev Returns the address of the pending owner.\n    */\n    function pendingOwner() public view returns (address) {\n        return _pendingOwner;\n    }\n\n    /**\n     * @dev Allows the current owner to set the pendingOwner address.\n     * @param newOwner The address to transfer ownership to.\n     */\n    function transferOwnership(address newOwner) public onlyOwner {\n        _pendingOwner = newOwner;\n    }\n\n    /**\n     * @dev Allows the pendingOwner address to finalize the transfer.\n     */\n    function claimOwnership() public {\n        require(msg.sender == _pendingOwner, \"onlyPendingOwner\");\n        emit OwnershipTransferred(_owner, _pendingOwner);\n        _owner = _pendingOwner;\n        _pendingOwner = address(0);\n    }\n}\n\ncontract TokenVestingFactory is Ownable {\n\n    event TokenVestingCreated(address tokenVesting);\n\n    // enum VestingType { SeedInvestors, StrategicInvestors, Advisors, Team, All }\n\n    struct BeneficiaryIndex {\n        address tokenVesting;\n        uint256 vestingType;\n        bool isExist;\n        // uint256 index;\n    }\n    mapping(address => BeneficiaryIndex) private _beneficiaryIndex;\n    address[] private _beneficiaries;\n    address private _tokenAddr;\n    uint256 private _decimal;\n    \n    constructor (address tokenAddr, uint256 decimal) {\n      require(tokenAddr != address(0), \"TokenVestingFactory: token address must not be zero\");\n\n      _tokenAddr = tokenAddr;\n      _decimal = decimal;\n    }    \n    \n    function create(address beneficiary, uint256 start, uint256 cliff, uint256 initialShare, uint256 periodicShare, bool revocable, uint256 vestingType) onlyOwner public {\n        require(!_beneficiaryIndex[beneficiary].isExist, \"TokenVestingFactory: benficiery exists\");\n        require(vestingType != 0, \"TokenVestingFactory: vestingType 0 is reserved\");\n        \n        address tokenVesting = address(new TokenVesting(_tokenAddr, beneficiary, start, cliff, initialShare, periodicShare, _decimal, revocable));\n\n        _beneficiaries.push(beneficiary);\n        _beneficiaryIndex[beneficiary].tokenVesting = tokenVesting;\n        _beneficiaryIndex[beneficiary].vestingType = vestingType;\n        _beneficiaryIndex[beneficiary].isExist = true;\n        \n        emit TokenVestingCreated(tokenVesting);\n    }\n    \n    function initialize(address tokenVesting, address from, uint256 amount) public onlyOwner {\n        TokenVesting(tokenVesting).initialize(from, amount);\n    }\n  \n    function update(address tokenVesting, uint256 start, uint256 cliff, uint256 initialShare, uint256 periodicShare, bool revocable) public onlyOwner {\n        TokenVesting(tokenVesting).update(start, cliff, initialShare, periodicShare, revocable);\n    }\n    \n    function revoke(address tokenVesting) public onlyOwner {\n        TokenVesting(tokenVesting).revoke(owner());\n    }\n\n    function getBeneficiaries(uint256 vestingType) public view returns(address[] memory) {\n        uint256 j = 0;\n        address[] memory beneficiaries = new address[](_beneficiaries.length);\n        \n        for (uint256 i = 0; i < _beneficiaries.length; i++) {\n            address beneficiary = _beneficiaries[i];\n            if ( _beneficiaryIndex[beneficiary].vestingType == vestingType || vestingType == 0 ) {\n                beneficiaries[j] = beneficiary;\n                j++;\n            }\n        }\n        return beneficiaries;\n    }\n    \n    function getVestingType(address beneficiary) public view returns(uint256) {\n        require(_beneficiaryIndex[beneficiary].isExist, \"TokenVestingFactory: benficiery does not exist\");\n        return _beneficiaryIndex[beneficiary].vestingType;\n    }\n\n    function getTokenVesting(address beneficiary) public view returns(address) {\n        require(_beneficiaryIndex[beneficiary].isExist, \"TokenVestingFactory: benficiery does not exist\");\n        return _beneficiaryIndex[beneficiary].tokenVesting;\n    }\n    \n    function getTokenAddress() public view returns(address) {\n        return _tokenAddr;\n    }\n\n    function getDecimal() public view returns(uint256) {\n      return _decimal;\n    }\n    \n}\n\n/**\n * @title TokenVesting\n * @dev A token holder contract that can release its token balance gradually like a\n * typical vesting scheme, with a cliff. Optionally revocable by the\n * owner.\n */\ncontract TokenVesting is Ownable {\n  using SafeMath for uint256;\n  using SafeERC20 for IERC20;\n\n  event TokensReleased(address beneficiary, uint256 amount);\n  event TokenVestingRevoked(address refundAddress, uint256 amount);\n  event TokenVestingInitialized(address from, uint256 amount);\n\n  enum Status { NotInitialized, Initialized, Revoked }\n\n  // beneficiary of tokens after they are released\n  address private _beneficiary;\n\n  uint256 private _cliff;\n  uint256 private _start;\n  address private _tokenAddr;\n  uint256 private _initialShare;\n  uint256 private _periodicShare;\n  uint256 private _decimal;\n  uint256 private _released;\n\n  bool private _revocable;\n  Status private _status;\n\n  /**\n   * @dev Creates a vesting contract that vests its balance of any ERC20 token to the\n   * beneficiary, gradually in a linear fashion. By then all\n   * of the balance will have vested.\n   * @param beneficiary address of the beneficiary to whom vested tokens are transferred\n   * @param cliff duration in seconds of the cliff in which tokens will begin to vest\n   * @param start the time (as Unix time) at which point vesting starts\n   * @param revocable whether the vesting is revocable or not\n   */\n  constructor(\n    address tokenAddr,\n    address beneficiary,\n    uint256 start,\n    uint256 cliff,\n    uint256 initialShare,\n    uint256 periodicShare,\n    uint256 decimal,\n    bool revocable\n    )\n    \n  {\n    require(beneficiary != address(0), \"TokenVesting: beneficiary address must not be zero\");\n    \n    _tokenAddr = tokenAddr;\n    _beneficiary = beneficiary;\n    _revocable = revocable;\n    _cliff = start.add(cliff);\n    _start = start;\n    _initialShare = initialShare;\n    _periodicShare = periodicShare;\n    _decimal = decimal;\n    _status = Status.NotInitialized;\n    \n  }\n  \n   /**\n   * @return TokenVesting details.\n   */\n  function getDetails() public view returns(address, uint256, uint256, uint256, uint256, uint256, uint256, uint256, uint256, bool, uint256) {\n    uint256 _total = IERC20(_tokenAddr).balanceOf(address(this)).add(_released);\n    uint256 _vested = _vestedAmount();\n    uint256 _releasable = _vestedAmount().sub(_released);\n    return (_beneficiary, _initialShare, _periodicShare, _start, _cliff, _total, _vested, _released, _releasable, _revocable, uint256(_status));\n  }\n\n  \n  /**\n   * @return the initial share of the beneficiary.\n   */\n  function getInitialShare() public view returns(uint256) {\n    return _initialShare;\n  }\n  \n  \n  /**\n   * @return the periodic share of the beneficiary.\n   */\n  function getPeriodicShare() public view returns(uint256) {\n    return _periodicShare;\n  }\n  \n  \n  /**\n   * @return the beneficiary of the tokens.\n   */\n  function getBeneficiary() public view returns(address) {\n    return _beneficiary;\n  }\n\n  /**\n   * @return the start time of the token vesting.\n   */\n  function getStart() public view returns(uint256) {\n    return _start;\n  }\n\n  /**\n   * @return the cliff time of the token vesting.\n   */\n  function getCliff() public view returns(uint256) {\n    return _cliff;\n  }\n\n  /**\n   * @return the total amount of the token.\n   */\n  function getTotal() public view returns(uint256) {\n    return IERC20(_tokenAddr).balanceOf(address(this)).add(_released);\n  }\n\n  /**\n   * @return the amount of the vested token.\n   */\n  function getVested() public view returns(uint256) {\n    return _vestedAmount();\n  }\n\n  /**\n   * @return the amount of the token released.\n   */\n  function getReleased() public view returns(uint256) {\n    return _released;\n  }\n\n  /**\n   * @return the amount that has already vested but hasn't been released yet.\n   */\n  function getReleasable() public view returns(uint256) {\n    return _vestedAmount().sub(_released);\n  }\n\n  /**\n   * @return true if the vesting is revocable.\n   */\n  function isRevocable() public view returns(bool) {\n    return _revocable;\n  }\n  \n  /**\n   * @return true if the token is revoked.\n   */\n  function isRevoked() public view returns(bool) {\n    if (_status == Status.Revoked) {\n      return true;\n    } else {\n      return false;\n    }\n  }\n\n   /**\n   * @return status.\n   */\n  function getStatus() public view returns(uint256) {\n    return uint256(_status);\n  }\n\n  /**\n   * @notice change status to initialized.\n   */\n  function initialize(address from, uint256 amount) public onlyOwner {\n\n    require(_status == Status.NotInitialized, \"TokenVesting: status must be NotInitialized\");\n\n      _status = Status.Initialized;\n      IERC20(_tokenAddr).safeTransferFrom(from, address(this), amount);\n      emit TokenVestingInitialized(address(from), amount);\n    \n  }\n\n   /**\n   * @notice update token vesting contract.\n   */\n  function update(\n    uint256 start,\n    uint256 cliff,\n    uint256 initialShare,\n    uint256 periodicShare,\n    bool revocable\n\n  ) public onlyOwner {\n\n    require(_status == Status.NotInitialized, \"TokenVesting: status must be NotInitialized\");\n    \n    _start = start;\n    _cliff = start.add(cliff);\n    _initialShare = initialShare;\n    _periodicShare = periodicShare;\n    _revocable = revocable;\n\n  }\n\n  /**\n   * @notice Transfers vested tokens to beneficiary.\n   */\n  function release() public {\n    require(_status != Status.NotInitialized, \"TokenVesting: status is NotInitialized\");\n    uint256 unreleased = getReleasable();\n\n    require(unreleased > 0, \"TokenVesting: releasable amount is zero\");\n\n    _released = _released.add(unreleased);\n\n    IERC20(_tokenAddr).safeTransfer(_beneficiary, unreleased);\n\n    emit TokensReleased(address(_beneficiary), unreleased);\n  }\n\n  /**\n   * @notice Allows the owner to revoke the vesting. Tokens already vested\n   * remain in the contract, the rest are returned to the owner.\n   */\n  function revoke(address refundAddress) public onlyOwner {\n    require(_revocable, \"TokenVesting: contract is not revocable\");\n    require(_status != Status.Revoked, \"TokenVesting: status is Revoked\");\n\n    uint256 balance = IERC20(_tokenAddr).balanceOf(address(this));\n\n    uint256 unreleased = getReleasable();\n    uint256 refund = balance.sub(unreleased);\n\n    _status = Status.Revoked;\n\n    IERC20(_tokenAddr).safeTransfer(refundAddress, refund);\n\n    emit TokenVestingRevoked(address(refundAddress), refund);\n  }\n\n\n  /**\n   * @dev Calculates the amount that has already vested.\n   */\n  function _vestedAmount() private view returns (uint256) {\n    uint256 currentBalance = IERC20(_tokenAddr).balanceOf(address(this));\n    uint256 totalBalance = currentBalance.add(_released);\n    uint256 initialRelease = totalBalance.mul(_initialShare).div(10**_decimal).div(100);\n\n    if (block.timestamp < _start)\n      return 0;\n\t\n\tif (_status == Status.Revoked)\n\t\treturn totalBalance;\n\t\t\n    if (block.timestamp < _cliff)\n      return initialRelease;\n\n\tuint256 monthlyRelease = totalBalance.mul(_periodicShare).div(10**_decimal).div(100);\n\tuint256 _months = BokkyPooBahsDateTimeLibrary.diffMonths(_cliff, block.timestamp);\n\t\n\tif (initialRelease.add(monthlyRelease.mul(_months + 1)) >= totalBalance) {\n\t\treturn totalBalance;\n\t} else {\n\t\treturn initialRelease.add(monthlyRelease.mul(_months + 1));\n\t}\n  }\n}",
  "sourcePath": "E:/projects/amas/vesting/vesting-contract/contracts/TokenVesting.sol",
  "compiler": {
    "name": "solc",
    "version": "0.8.0+commit.c7dfd78e.Emscripten.clang"
  },
  "schemaVersion": "3.4.1",
  "updatedAt": "2021-06-08T17:45:02.541Z",
  "devdoc": {
    "details": "A token holder contract that can release its token balance gradually like a typical vesting scheme, with a cliff. Optionally revocable by the owner.",
    "kind": "dev",
    "methods": {
      "claimOwnership()": {
        "details": "Allows the pendingOwner address to finalize the transfer."
      },
      "constructor": {
        "details": "Creates a vesting contract that vests its balance of any ERC20 token to the beneficiary, gradually in a linear fashion. By then all of the balance will have vested.",
        "params": {
          "beneficiary": "address of the beneficiary to whom vested tokens are transferred",
          "cliff": "duration in seconds of the cliff in which tokens will begin to vest",
          "revocable": "whether the vesting is revocable or not",
          "start": "the time (as Unix time) at which point vesting starts"
        }
      },
      "getBeneficiary()": {
        "returns": {
          "_0": "the beneficiary of the tokens."
        }
      },
      "getCliff()": {
        "returns": {
          "_0": "the cliff time of the token vesting."
        }
      },
      "getDetails()": {
        "returns": {
          "_0": "TokenVesting details."
        }
      },
      "getInitialShare()": {
        "returns": {
          "_0": "the initial share of the beneficiary."
        }
      },
      "getPeriodicShare()": {
        "returns": {
          "_0": "the periodic share of the beneficiary."
        }
      },
      "getReleasable()": {
        "returns": {
          "_0": "the amount that has already vested but hasn't been released yet."
        }
      },
      "getReleased()": {
        "returns": {
          "_0": "the amount of the token released."
        }
      },
      "getStart()": {
        "returns": {
          "_0": "the start time of the token vesting."
        }
      },
      "getStatus()": {
        "returns": {
          "_0": "status."
        }
      },
      "getTotal()": {
        "returns": {
          "_0": "the total amount of the token."
        }
      },
      "getVested()": {
        "returns": {
          "_0": "the amount of the vested token."
        }
      },
      "isRevocable()": {
        "returns": {
          "_0": "true if the vesting is revocable."
        }
      },
      "isRevoked()": {
        "returns": {
          "_0": "true if the token is revoked."
        }
      },
      "owner()": {
        "details": "Returns the address of the current owner."
      },
      "pendingOwner()": {
        "details": "Returns the address of the pending owner."
      },
      "transferOwnership(address)": {
        "details": "Allows the current owner to set the pendingOwner address.",
        "params": {
          "newOwner": "The address to transfer ownership to."
        }
      }
    },
    "title": "TokenVesting",
    "version": 1
  },
  "userdoc": {
    "kind": "user",
    "methods": {
      "initialize(address,uint256)": {
        "notice": "change status to initialized."
      },
      "release()": {
        "notice": "Transfers vested tokens to beneficiary."
      },
      "revoke(address)": {
        "notice": "Allows the owner to revoke the vesting. Tokens already vested remain in the contract, the rest are returned to the owner."
      },
      "update(uint256,uint256,uint256,uint256,bool)": {
        "notice": "update token vesting contract."
      }
    },
    "version": 1
  }
}